{
	"contracts/FCODE_flattened.sol": {
		"FCODE": {
			"abi": [
				{
					"inputs": [
						{
							"internalType": "uint256",
							"name": "initialSupply",
							"type": "uint256"
						}
					],
					"stateMutability": "nonpayable",
					"type": "constructor"
				},
				{
					"inputs": [
						{
							"internalType": "address",
							"name": "spender",
							"type": "address"
						},
						{
							"internalType": "uint256",
							"name": "allowance",
							"type": "uint256"
						},
						{
							"internalType": "uint256",
							"name": "needed",
							"type": "uint256"
						}
					],
					"name": "ERC20InsufficientAllowance",
					"type": "error"
				},
				{
					"inputs": [
						{
							"internalType": "address",
							"name": "sender",
							"type": "address"
						},
						{
							"internalType": "uint256",
							"name": "balance",
							"type": "uint256"
						},
						{
							"internalType": "uint256",
							"name": "needed",
							"type": "uint256"
						}
					],
					"name": "ERC20InsufficientBalance",
					"type": "error"
				},
				{
					"inputs": [
						{
							"internalType": "address",
							"name": "approver",
							"type": "address"
						}
					],
					"name": "ERC20InvalidApprover",
					"type": "error"
				},
				{
					"inputs": [
						{
							"internalType": "address",
							"name": "receiver",
							"type": "address"
						}
					],
					"name": "ERC20InvalidReceiver",
					"type": "error"
				},
				{
					"inputs": [
						{
							"internalType": "address",
							"name": "sender",
							"type": "address"
						}
					],
					"name": "ERC20InvalidSender",
					"type": "error"
				},
				{
					"inputs": [
						{
							"internalType": "address",
							"name": "spender",
							"type": "address"
						}
					],
					"name": "ERC20InvalidSpender",
					"type": "error"
				},
				{
					"inputs": [
						{
							"internalType": "address",
							"name": "owner",
							"type": "address"
						}
					],
					"name": "OwnableInvalidOwner",
					"type": "error"
				},
				{
					"inputs": [
						{
							"internalType": "address",
							"name": "account",
							"type": "address"
						}
					],
					"name": "OwnableUnauthorizedAccount",
					"type": "error"
				},
				{
					"anonymous": false,
					"inputs": [
						{
							"indexed": true,
							"internalType": "address",
							"name": "owner",
							"type": "address"
						},
						{
							"indexed": true,
							"internalType": "address",
							"name": "spender",
							"type": "address"
						},
						{
							"indexed": false,
							"internalType": "uint256",
							"name": "value",
							"type": "uint256"
						}
					],
					"name": "Approval",
					"type": "event"
				},
				{
					"anonymous": false,
					"inputs": [
						{
							"indexed": true,
							"internalType": "address",
							"name": "previousOwner",
							"type": "address"
						},
						{
							"indexed": true,
							"internalType": "address",
							"name": "newOwner",
							"type": "address"
						}
					],
					"name": "OwnershipTransferred",
					"type": "event"
				},
				{
					"anonymous": false,
					"inputs": [
						{
							"indexed": true,
							"internalType": "address",
							"name": "from",
							"type": "address"
						},
						{
							"indexed": true,
							"internalType": "address",
							"name": "to",
							"type": "address"
						},
						{
							"indexed": false,
							"internalType": "uint256",
							"name": "value",
							"type": "uint256"
						}
					],
					"name": "Transfer",
					"type": "event"
				},
				{
					"inputs": [
						{
							"internalType": "address",
							"name": "owner",
							"type": "address"
						},
						{
							"internalType": "address",
							"name": "spender",
							"type": "address"
						}
					],
					"name": "allowance",
					"outputs": [
						{
							"internalType": "uint256",
							"name": "",
							"type": "uint256"
						}
					],
					"stateMutability": "view",
					"type": "function"
				},
				{
					"inputs": [
						{
							"internalType": "address",
							"name": "spender",
							"type": "address"
						},
						{
							"internalType": "uint256",
							"name": "value",
							"type": "uint256"
						}
					],
					"name": "approve",
					"outputs": [
						{
							"internalType": "bool",
							"name": "",
							"type": "bool"
						}
					],
					"stateMutability": "nonpayable",
					"type": "function"
				},
				{
					"inputs": [],
					"name": "balance",
					"outputs": [
						{
							"internalType": "uint256",
							"name": "",
							"type": "uint256"
						}
					],
					"stateMutability": "view",
					"type": "function"
				},
				{
					"inputs": [
						{
							"internalType": "address",
							"name": "account",
							"type": "address"
						}
					],
					"name": "balanceOf",
					"outputs": [
						{
							"internalType": "uint256",
							"name": "",
							"type": "uint256"
						}
					],
					"stateMutability": "view",
					"type": "function"
				},
				{
					"inputs": [
						{
							"internalType": "uint256",
							"name": "amount",
							"type": "uint256"
						}
					],
					"name": "burn",
					"outputs": [],
					"stateMutability": "nonpayable",
					"type": "function"
				},
				{
					"inputs": [],
					"name": "decimals",
					"outputs": [
						{
							"internalType": "uint8",
							"name": "",
							"type": "uint8"
						}
					],
					"stateMutability": "view",
					"type": "function"
				},
				{
					"inputs": [
						{
							"internalType": "address",
							"name": "to",
							"type": "address"
						},
						{
							"internalType": "uint256",
							"name": "amount",
							"type": "uint256"
						}
					],
					"name": "mint",
					"outputs": [],
					"stateMutability": "nonpayable",
					"type": "function"
				},
				{
					"inputs": [],
					"name": "name",
					"outputs": [
						{
							"internalType": "string",
							"name": "",
							"type": "string"
						}
					],
					"stateMutability": "view",
					"type": "function"
				},
				{
					"inputs": [],
					"name": "owner",
					"outputs": [
						{
							"internalType": "address",
							"name": "",
							"type": "address"
						}
					],
					"stateMutability": "view",
					"type": "function"
				},
				{
					"inputs": [],
					"name": "renounceOwnership",
					"outputs": [],
					"stateMutability": "nonpayable",
					"type": "function"
				},
				{
					"inputs": [],
					"name": "symbol",
					"outputs": [
						{
							"internalType": "string",
							"name": "",
							"type": "string"
						}
					],
					"stateMutability": "view",
					"type": "function"
				},
				{
					"inputs": [],
					"name": "totalSupply",
					"outputs": [
						{
							"internalType": "uint256",
							"name": "",
							"type": "uint256"
						}
					],
					"stateMutability": "view",
					"type": "function"
				},
				{
					"inputs": [
						{
							"internalType": "address",
							"name": "to",
							"type": "address"
						},
						{
							"internalType": "uint256",
							"name": "value",
							"type": "uint256"
						}
					],
					"name": "transfer",
					"outputs": [
						{
							"internalType": "bool",
							"name": "",
							"type": "bool"
						}
					],
					"stateMutability": "nonpayable",
					"type": "function"
				},
				{
					"inputs": [
						{
							"internalType": "address",
							"name": "from",
							"type": "address"
						},
						{
							"internalType": "address",
							"name": "to",
							"type": "address"
						},
						{
							"internalType": "uint256",
							"name": "value",
							"type": "uint256"
						}
					],
					"name": "transferFrom",
					"outputs": [
						{
							"internalType": "bool",
							"name": "",
							"type": "bool"
						}
					],
					"stateMutability": "nonpayable",
					"type": "function"
				},
				{
					"inputs": [
						{
							"internalType": "address",
							"name": "newOwner",
							"type": "address"
						}
					],
					"name": "transferOwnership",
					"outputs": [],
					"stateMutability": "nonpayable",
					"type": "function"
				},
				{
					"inputs": [
						{
							"internalType": "uint256",
							"name": "amount",
							"type": "uint256"
						},
						{
							"internalType": "address payable",
							"name": "destAddress",
							"type": "address"
						}
					],
					"name": "withdraw",
					"outputs": [],
					"stateMutability": "nonpayable",
					"type": "function"
				}
			],
			"devdoc": {
				"errors": {
					"ERC20InsufficientAllowance(address,uint256,uint256)": [
						{
							"details": "Indicates a failure with the `spender`’s `allowance`. Used in transfers.",
							"params": {
								"allowance": "Amount of tokens a `spender` is allowed to operate with.",
								"needed": "Minimum amount required to perform a transfer.",
								"spender": "Address that may be allowed to operate on tokens without being their owner."
							}
						}
					],
					"ERC20InsufficientBalance(address,uint256,uint256)": [
						{
							"details": "Indicates an error related to the current `balance` of a `sender`. Used in transfers.",
							"params": {
								"balance": "Current balance for the interacting account.",
								"needed": "Minimum amount required to perform a transfer.",
								"sender": "Address whose tokens are being transferred."
							}
						}
					],
					"ERC20InvalidApprover(address)": [
						{
							"details": "Indicates a failure with the `approver` of a token to be approved. Used in approvals.",
							"params": {
								"approver": "Address initiating an approval operation."
							}
						}
					],
					"ERC20InvalidReceiver(address)": [
						{
							"details": "Indicates a failure with the token `receiver`. Used in transfers.",
							"params": {
								"receiver": "Address to which tokens are being transferred."
							}
						}
					],
					"ERC20InvalidSender(address)": [
						{
							"details": "Indicates a failure with the token `sender`. Used in transfers.",
							"params": {
								"sender": "Address whose tokens are being transferred."
							}
						}
					],
					"ERC20InvalidSpender(address)": [
						{
							"details": "Indicates a failure with the `spender` to be approved. Used in approvals.",
							"params": {
								"spender": "Address that may be allowed to operate on tokens without being their owner."
							}
						}
					],
					"OwnableInvalidOwner(address)": [
						{
							"details": "The owner is not a valid owner account. (eg. `address(0)`)"
						}
					],
					"OwnableUnauthorizedAccount(address)": [
						{
							"details": "The caller account is not authorized to perform an operation."
						}
					]
				},
				"events": {
					"Approval(address,address,uint256)": {
						"details": "Emitted when the allowance of a `spender` for an `owner` is set by a call to {approve}. `value` is the new allowance."
					},
					"Transfer(address,address,uint256)": {
						"details": "Emitted when `value` tokens are moved from one account (`from`) to another (`to`). Note that `value` may be zero."
					}
				},
				"kind": "dev",
				"methods": {
					"allowance(address,address)": {
						"details": "See {IERC20-allowance}."
					},
					"approve(address,uint256)": {
						"details": "See {IERC20-approve}. NOTE: If `value` is the maximum `uint256`, the allowance is not updated on `transferFrom`. This is semantically equivalent to an infinite approval. Requirements: - `spender` cannot be the zero address."
					},
					"balanceOf(address)": {
						"details": "See {IERC20-balanceOf}."
					},
					"decimals()": {
						"details": "Returns the number of decimals used to get its user representation. For example, if `decimals` equals `2`, a balance of `505` tokens should be displayed to a user as `5.05` (`505 / 10 ** 2`). Tokens usually opt for a value of 18, imitating the relationship between Ether and Wei. This is the default value returned by this function, unless it's overridden. NOTE: This information is only used for _display_ purposes: it in no way affects any of the arithmetic of the contract, including {IERC20-balanceOf} and {IERC20-transfer}."
					},
					"name()": {
						"details": "Returns the name of the token."
					},
					"owner()": {
						"details": "Returns the address of the current owner."
					},
					"renounceOwnership()": {
						"details": "Leaves the contract without owner. It will not be possible to call `onlyOwner` functions. Can only be called by the current owner. NOTE: Renouncing ownership will leave the contract without an owner, thereby disabling any functionality that is only available to the owner."
					},
					"symbol()": {
						"details": "Returns the symbol of the token, usually a shorter version of the name."
					},
					"totalSupply()": {
						"details": "See {IERC20-totalSupply}."
					},
					"transfer(address,uint256)": {
						"details": "See {IERC20-transfer}. Requirements: - `to` cannot be the zero address. - the caller must have a balance of at least `value`."
					},
					"transferFrom(address,address,uint256)": {
						"details": "See {IERC20-transferFrom}. Skips emitting an {Approval} event indicating an allowance update. This is not required by the ERC. See {xref-ERC20-_approve-address-address-uint256-bool-}[_approve]. NOTE: Does not update the allowance if the current allowance is the maximum `uint256`. Requirements: - `from` and `to` cannot be the zero address. - `from` must have a balance of at least `value`. - the caller must have allowance for ``from``'s tokens of at least `value`."
					},
					"transferOwnership(address)": {
						"details": "Transfers ownership of the contract to a new account (`newOwner`). Can only be called by the current owner."
					}
				},
				"version": 1
			},
			"evm": {
				"assembly": "    /* \"contracts/FCODE_flattened.sol\":24932:25609  contract FCODE is ERC20, Ownable {... */\n  mstore(0x40, 0x80)\n    /* \"contracts/FCODE_flattened.sol\":25000:25147  constructor(uint256 initialSupply) ERC20(\"FCODE\", \"FCODE\") Ownable(msg.sender) {... */\n  callvalue\n  dup1\n  iszero\n  tag_1\n  jumpi\n  revert(0x00, 0x00)\ntag_1:\n  pop\n  mload(0x40)\n  sub(codesize, bytecodeSize)\n  dup1\n  bytecodeSize\n  dup4\n  codecopy\n  dup2\n  dup2\n  add\n  0x40\n  mstore\n  dup2\n  add\n  swap1\n  tag_2\n  swap2\n  swap1\n  tag_3\n  jump\t// in\ntag_2:\n    /* \"contracts/FCODE_flattened.sol\":25067:25077  msg.sender */\n  caller\n    /* \"contracts/FCODE_flattened.sol\":12501:12614  constructor(string memory name_, string memory symbol_) {... */\n  mload(0x40)\n  dup1\n  0x40\n  add\n  0x40\n  mstore\n  dup1\n  0x05\n  dup2\n  mstore\n  0x20\n  add\n  0x46434f4445000000000000000000000000000000000000000000000000000000\n  dup2\n  mstore\n  pop\n  mload(0x40)\n  dup1\n  0x40\n  add\n  0x40\n  mstore\n  dup1\n  0x05\n  dup2\n  mstore\n  0x20\n  add\n  0x46434f4445000000000000000000000000000000000000000000000000000000\n  dup2\n  mstore\n  pop\n    /* \"contracts/FCODE_flattened.sol\":12575:12580  name_ */\n  dup2\n    /* \"contracts/FCODE_flattened.sol\":12567:12572  _name */\n  0x03\n    /* \"contracts/FCODE_flattened.sol\":12567:12580  _name = name_ */\n  swap1\n  dup2\n  tag_8\n  swap2\n  swap1\n  tag_9\n  jump\t// in\ntag_8:\n  pop\n    /* \"contracts/FCODE_flattened.sol\":12600:12607  symbol_ */\n  dup1\n    /* \"contracts/FCODE_flattened.sol\":12590:12597  _symbol */\n  0x04\n    /* \"contracts/FCODE_flattened.sol\":12590:12607  _symbol = symbol_ */\n  swap1\n  dup2\n  tag_10\n  swap2\n  swap1\n  tag_9\n  jump\t// in\ntag_10:\n  pop\n    /* \"contracts/FCODE_flattened.sol\":12501:12614  constructor(string memory name_, string memory symbol_) {... */\n  pop\n  pop\n    /* \"contracts/FCODE_flattened.sol\":23068:23069  0 */\n  0x00\n    /* \"contracts/FCODE_flattened.sol\":23044:23070  initialOwner == address(0) */\n  0xffffffffffffffffffffffffffffffffffffffff\n  and\n    /* \"contracts/FCODE_flattened.sol\":23044:23056  initialOwner */\n  dup2\n    /* \"contracts/FCODE_flattened.sol\":23044:23070  initialOwner == address(0) */\n  0xffffffffffffffffffffffffffffffffffffffff\n  and\n  sub\n    /* \"contracts/FCODE_flattened.sol\":23040:23135  if (initialOwner == address(0)) {... */\n  tag_12\n  jumpi\n    /* \"contracts/FCODE_flattened.sol\":23121:23122  0 */\n  0x00\n    /* \"contracts/FCODE_flattened.sol\":23093:23124  OwnableInvalidOwner(address(0)) */\n  mload(0x40)\n  0x1e4fbdf700000000000000000000000000000000000000000000000000000000\n  dup2\n  mstore\n  0x04\n  add\n  tag_13\n  swap2\n  swap1\n  tag_14\n  jump\t// in\ntag_13:\n  mload(0x40)\n  dup1\n  swap2\n  sub\n  swap1\n  revert\n    /* \"contracts/FCODE_flattened.sol\":23040:23135  if (initialOwner == address(0)) {... */\ntag_12:\n    /* \"contracts/FCODE_flattened.sol\":23144:23176  _transferOwnership(initialOwner) */\n  tag_15\n    /* \"contracts/FCODE_flattened.sol\":23163:23175  initialOwner */\n  dup2\n    /* \"contracts/FCODE_flattened.sol\":23144:23162  _transferOwnership */\n  shl(0x20, tag_16)\n    /* \"contracts/FCODE_flattened.sol\":23144:23176  _transferOwnership(initialOwner) */\n  0x20\n  shr\n  jump\t// in\ntag_15:\n    /* \"contracts/FCODE_flattened.sol\":22996:23183  constructor(address initialOwner) {... */\n  pop\n    /* \"contracts/FCODE_flattened.sol\":25089:25140  _mint(msg.sender, initialSupply * 10 ** decimals()) */\n  tag_18\n    /* \"contracts/FCODE_flattened.sol\":25095:25105  msg.sender */\n  caller\n    /* \"contracts/FCODE_flattened.sol\":25129:25139  decimals() */\n  tag_19\n    /* \"contracts/FCODE_flattened.sol\":25129:25137  decimals */\n  shl(0x20, tag_20)\n    /* \"contracts/FCODE_flattened.sol\":25129:25139  decimals() */\n  0x20\n  shr\n  jump\t// in\ntag_19:\n    /* \"contracts/FCODE_flattened.sol\":25123:25125  10 */\n  0x0a\n    /* \"contracts/FCODE_flattened.sol\":25123:25139  10 ** decimals() */\n  tag_21\n  swap2\n  swap1\n  tag_22\n  jump\t// in\ntag_21:\n    /* \"contracts/FCODE_flattened.sol\":25107:25120  initialSupply */\n  dup4\n    /* \"contracts/FCODE_flattened.sol\":25107:25139  initialSupply * 10 ** decimals() */\n  tag_23\n  swap2\n  swap1\n  tag_24\n  jump\t// in\ntag_23:\n    /* \"contracts/FCODE_flattened.sol\":25089:25094  _mint */\n  shl(0x20, tag_25)\n    /* \"contracts/FCODE_flattened.sol\":25089:25140  _mint(msg.sender, initialSupply * 10 ** decimals()) */\n  0x20\n  shr\n  jump\t// in\ntag_18:\n    /* \"contracts/FCODE_flattened.sol\":25000:25147  constructor(uint256 initialSupply) ERC20(\"FCODE\", \"FCODE\") Ownable(msg.sender) {... */\n  pop\n    /* \"contracts/FCODE_flattened.sol\":24932:25609  contract FCODE is ERC20, Ownable {... */\n  jump(tag_26)\n    /* \"contracts/FCODE_flattened.sol\":24683:24870  function _transferOwnership(address newOwner) internal virtual {... */\ntag_16:\n    /* \"contracts/FCODE_flattened.sol\":24756:24772  address oldOwner */\n  0x00\n    /* \"contracts/FCODE_flattened.sol\":24775:24781  _owner */\n  0x05\n  0x00\n  swap1\n  sload\n  swap1\n  0x0100\n  exp\n  swap1\n  div\n  0xffffffffffffffffffffffffffffffffffffffff\n  and\n    /* \"contracts/FCODE_flattened.sol\":24756:24781  address oldOwner = _owner */\n  swap1\n  pop\n    /* \"contracts/FCODE_flattened.sol\":24800:24808  newOwner */\n  dup2\n    /* \"contracts/FCODE_flattened.sol\":24791:24797  _owner */\n  0x05\n  0x00\n    /* \"contracts/FCODE_flattened.sol\":24791:24808  _owner = newOwner */\n  0x0100\n  exp\n  dup2\n  sload\n  dup2\n  0xffffffffffffffffffffffffffffffffffffffff\n  mul\n  not\n  and\n  swap1\n  dup4\n  0xffffffffffffffffffffffffffffffffffffffff\n  and\n  mul\n  or\n  swap1\n  sstore\n  pop\n    /* \"contracts/FCODE_flattened.sol\":24854:24862  newOwner */\n  dup2\n    /* \"contracts/FCODE_flattened.sol\":24823:24863  OwnershipTransferred(oldOwner, newOwner) */\n  0xffffffffffffffffffffffffffffffffffffffff\n  and\n    /* \"contracts/FCODE_flattened.sol\":24844:24852  oldOwner */\n  dup2\n    /* \"contracts/FCODE_flattened.sol\":24823:24863  OwnershipTransferred(oldOwner, newOwner) */\n  0xffffffffffffffffffffffffffffffffffffffff\n  and\n  0x8be0079c531659141344cd1fd0a4f28419497f9722a3daafe3b4186f6b6457e0\n  mload(0x40)\n  mload(0x40)\n  dup1\n  swap2\n  sub\n  swap1\n  log3\n    /* \"contracts/FCODE_flattened.sol\":24746:24870  {... */\n  pop\n    /* \"contracts/FCODE_flattened.sol\":24683:24870  function _transferOwnership(address newOwner) internal virtual {... */\n  pop\n  jump\t// out\n    /* \"contracts/FCODE_flattened.sol\":13607:13689  function decimals() public view virtual returns (uint8) {... */\ntag_20:\n    /* \"contracts/FCODE_flattened.sol\":13656:13661  uint8 */\n  0x00\n    /* \"contracts/FCODE_flattened.sol\":13680:13682  18 */\n  0x12\n    /* \"contracts/FCODE_flattened.sol\":13673:13682  return 18 */\n  swap1\n  pop\n    /* \"contracts/FCODE_flattened.sol\":13607:13689  function decimals() public view virtual returns (uint8) {... */\n  swap1\n  jump\t// out\n    /* \"contracts/FCODE_flattened.sol\":18358:18566  function _mint(address account, uint256 value) internal {... */\ntag_25:\n    /* \"contracts/FCODE_flattened.sol\":18447:18448  0 */\n  0x00\n    /* \"contracts/FCODE_flattened.sol\":18428:18449  account == address(0) */\n  0xffffffffffffffffffffffffffffffffffffffff\n  and\n    /* \"contracts/FCODE_flattened.sol\":18428:18435  account */\n  dup3\n    /* \"contracts/FCODE_flattened.sol\":18428:18449  account == address(0) */\n  0xffffffffffffffffffffffffffffffffffffffff\n  and\n  sub\n    /* \"contracts/FCODE_flattened.sol\":18424:18515  if (account == address(0)) {... */\n  tag_30\n  jumpi\n    /* \"contracts/FCODE_flattened.sol\":18501:18502  0 */\n  0x00\n    /* \"contracts/FCODE_flattened.sol\":18472:18504  ERC20InvalidReceiver(address(0)) */\n  mload(0x40)\n  0xec442f0500000000000000000000000000000000000000000000000000000000\n  dup2\n  mstore\n  0x04\n  add\n  tag_31\n  swap2\n  swap1\n  tag_14\n  jump\t// in\ntag_31:\n  mload(0x40)\n  dup1\n  swap2\n  sub\n  swap1\n  revert\n    /* \"contracts/FCODE_flattened.sol\":18424:18515  if (account == address(0)) {... */\ntag_30:\n    /* \"contracts/FCODE_flattened.sol\":18524:18559  _update(address(0), account, value) */\n  tag_32\n    /* \"contracts/FCODE_flattened.sol\":18540:18541  0 */\n  0x00\n    /* \"contracts/FCODE_flattened.sol\":18544:18551  account */\n  dup4\n    /* \"contracts/FCODE_flattened.sol\":18553:18558  value */\n  dup4\n    /* \"contracts/FCODE_flattened.sol\":18524:18531  _update */\n  shl(0x20, tag_33)\n    /* \"contracts/FCODE_flattened.sol\":18524:18559  _update(address(0), account, value) */\n  0x20\n  shr\n  jump\t// in\ntag_32:\n    /* \"contracts/FCODE_flattened.sol\":18358:18566  function _mint(address account, uint256 value) internal {... */\n  pop\n  pop\n  jump\t// out\n    /* \"contracts/FCODE_flattened.sol\":16908:18015  function _update(address from, address to, uint256 value) internal virtual {... */\ntag_33:\n    /* \"contracts/FCODE_flattened.sol\":17013:17014  0 */\n  0x00\n    /* \"contracts/FCODE_flattened.sol\":16997:17015  from == address(0) */\n  0xffffffffffffffffffffffffffffffffffffffff\n  and\n    /* \"contracts/FCODE_flattened.sol\":16997:17001  from */\n  dup4\n    /* \"contracts/FCODE_flattened.sol\":16997:17015  from == address(0) */\n  0xffffffffffffffffffffffffffffffffffffffff\n  and\n  sub\n    /* \"contracts/FCODE_flattened.sol\":16993:17533  if (from == address(0)) {... */\n  tag_35\n  jumpi\n    /* \"contracts/FCODE_flattened.sol\":17149:17154  value */\n  dup1\n    /* \"contracts/FCODE_flattened.sol\":17133:17145  _totalSupply */\n  0x02\n  0x00\n    /* \"contracts/FCODE_flattened.sol\":17133:17154  _totalSupply += value */\n  dup3\n  dup3\n  sload\n  tag_36\n  swap2\n  swap1\n  tag_37\n  jump\t// in\ntag_36:\n  swap3\n  pop\n  pop\n  dup2\n  swap1\n  sstore\n  pop\n    /* \"contracts/FCODE_flattened.sol\":16993:17533  if (from == address(0)) {... */\n  jump(tag_38)\ntag_35:\n    /* \"contracts/FCODE_flattened.sol\":17185:17204  uint256 fromBalance */\n  0x00\n    /* \"contracts/FCODE_flattened.sol\":17207:17216  _balances */\n  0x00\n    /* \"contracts/FCODE_flattened.sol\":17207:17222  _balances[from] */\n  0x00\n    /* \"contracts/FCODE_flattened.sol\":17217:17221  from */\n  dup6\n    /* \"contracts/FCODE_flattened.sol\":17207:17222  _balances[from] */\n  0xffffffffffffffffffffffffffffffffffffffff\n  and\n  0xffffffffffffffffffffffffffffffffffffffff\n  and\n  dup2\n  mstore\n  0x20\n  add\n  swap1\n  dup2\n  mstore\n  0x20\n  add\n  0x00\n  keccak256\n  sload\n    /* \"contracts/FCODE_flattened.sol\":17185:17222  uint256 fromBalance = _balances[from] */\n  swap1\n  pop\n    /* \"contracts/FCODE_flattened.sol\":17254:17259  value */\n  dup2\n    /* \"contracts/FCODE_flattened.sol\":17240:17251  fromBalance */\n  dup2\n    /* \"contracts/FCODE_flattened.sol\":17240:17259  fromBalance < value */\n  lt\n    /* \"contracts/FCODE_flattened.sol\":17236:17351  if (fromBalance < value) {... */\n  iszero\n  tag_39\n  jumpi\n    /* \"contracts/FCODE_flattened.sol\":17311:17315  from */\n  dup4\n    /* \"contracts/FCODE_flattened.sol\":17317:17328  fromBalance */\n  dup2\n    /* \"contracts/FCODE_flattened.sol\":17330:17335  value */\n  dup4\n    /* \"contracts/FCODE_flattened.sol\":17286:17336  ERC20InsufficientBalance(from, fromBalance, value) */\n  mload(0x40)\n  0xe450d38c00000000000000000000000000000000000000000000000000000000\n  dup2\n  mstore\n  0x04\n  add\n  tag_40\n  swap4\n  swap3\n  swap2\n  swap1\n  tag_41\n  jump\t// in\ntag_40:\n  mload(0x40)\n  dup1\n  swap2\n  sub\n  swap1\n  revert\n    /* \"contracts/FCODE_flattened.sol\":17236:17351  if (fromBalance < value) {... */\ntag_39:\n    /* \"contracts/FCODE_flattened.sol\":17503:17508  value */\n  dup2\n    /* \"contracts/FCODE_flattened.sol\":17489:17500  fromBalance */\n  dup2\n    /* \"contracts/FCODE_flattened.sol\":17489:17508  fromBalance - value */\n  sub\n    /* \"contracts/FCODE_flattened.sol\":17471:17480  _balances */\n  0x00\n    /* \"contracts/FCODE_flattened.sol\":17471:17486  _balances[from] */\n  0x00\n    /* \"contracts/FCODE_flattened.sol\":17481:17485  from */\n  dup7\n    /* \"contracts/FCODE_flattened.sol\":17471:17486  _balances[from] */\n  0xffffffffffffffffffffffffffffffffffffffff\n  and\n  0xffffffffffffffffffffffffffffffffffffffff\n  and\n  dup2\n  mstore\n  0x20\n  add\n  swap1\n  dup2\n  mstore\n  0x20\n  add\n  0x00\n  keccak256\n    /* \"contracts/FCODE_flattened.sol\":17471:17508  _balances[from] = fromBalance - value */\n  dup2\n  swap1\n  sstore\n  pop\n    /* \"contracts/FCODE_flattened.sol\":17171:17533  {... */\n  pop\n    /* \"contracts/FCODE_flattened.sol\":16993:17533  if (from == address(0)) {... */\ntag_38:\n    /* \"contracts/FCODE_flattened.sol\":17561:17562  0 */\n  0x00\n    /* \"contracts/FCODE_flattened.sol\":17547:17563  to == address(0) */\n  0xffffffffffffffffffffffffffffffffffffffff\n  and\n    /* \"contracts/FCODE_flattened.sol\":17547:17549  to */\n  dup3\n    /* \"contracts/FCODE_flattened.sol\":17547:17563  to == address(0) */\n  0xffffffffffffffffffffffffffffffffffffffff\n  and\n  sub\n    /* \"contracts/FCODE_flattened.sol\":17543:17968  if (to == address(0)) {... */\n  tag_42\n  jumpi\n    /* \"contracts/FCODE_flattened.sol\":17726:17731  value */\n  dup1\n    /* \"contracts/FCODE_flattened.sol\":17710:17722  _totalSupply */\n  0x02\n  0x00\n    /* \"contracts/FCODE_flattened.sol\":17710:17731  _totalSupply -= value */\n  dup3\n  dup3\n  sload\n  sub\n  swap3\n  pop\n  pop\n  dup2\n  swap1\n  sstore\n  pop\n    /* \"contracts/FCODE_flattened.sol\":17543:17968  if (to == address(0)) {... */\n  jump(tag_43)\ntag_42:\n    /* \"contracts/FCODE_flattened.sol\":17938:17943  value */\n  dup1\n    /* \"contracts/FCODE_flattened.sol\":17921:17930  _balances */\n  0x00\n    /* \"contracts/FCODE_flattened.sol\":17921:17934  _balances[to] */\n  0x00\n    /* \"contracts/FCODE_flattened.sol\":17931:17933  to */\n  dup5\n    /* \"contracts/FCODE_flattened.sol\":17921:17934  _balances[to] */\n  0xffffffffffffffffffffffffffffffffffffffff\n  and\n  0xffffffffffffffffffffffffffffffffffffffff\n  and\n  dup2\n  mstore\n  0x20\n  add\n  swap1\n  dup2\n  mstore\n  0x20\n  add\n  0x00\n  keccak256\n  0x00\n    /* \"contracts/FCODE_flattened.sol\":17921:17943  _balances[to] += value */\n  dup3\n  dup3\n  sload\n  add\n  swap3\n  pop\n  pop\n  dup2\n  swap1\n  sstore\n  pop\n    /* \"contracts/FCODE_flattened.sol\":17543:17968  if (to == address(0)) {... */\ntag_43:\n    /* \"contracts/FCODE_flattened.sol\":17998:18000  to */\n  dup2\n    /* \"contracts/FCODE_flattened.sol\":17983:18008  Transfer(from, to, value) */\n  0xffffffffffffffffffffffffffffffffffffffff\n  and\n    /* \"contracts/FCODE_flattened.sol\":17992:17996  from */\n  dup4\n    /* \"contracts/FCODE_flattened.sol\":17983:18008  Transfer(from, to, value) */\n  0xffffffffffffffffffffffffffffffffffffffff\n  and\n  0xddf252ad1be2c89b69c2b068fc378daa952ba7f163c4a11628f55a4df523b3ef\n    /* \"contracts/FCODE_flattened.sol\":18002:18007  value */\n  dup4\n    /* \"contracts/FCODE_flattened.sol\":17983:18008  Transfer(from, to, value) */\n  mload(0x40)\n  tag_44\n  swap2\n  swap1\n  tag_45\n  jump\t// in\ntag_44:\n  mload(0x40)\n  dup1\n  swap2\n  sub\n  swap1\n  log3\n    /* \"contracts/FCODE_flattened.sol\":16908:18015  function _update(address from, address to, uint256 value) internal virtual {... */\n  pop\n  pop\n  pop\n  jump\t// out\n    /* \"#utility.yul\":88:205   */\ntag_47:\n    /* \"#utility.yul\":197:198   */\n  0x00\n    /* \"#utility.yul\":194:195   */\n  0x00\n    /* \"#utility.yul\":187:199   */\n  revert\n    /* \"#utility.yul\":334:411   */\ntag_49:\n    /* \"#utility.yul\":371:378   */\n  0x00\n    /* \"#utility.yul\":400:405   */\n  dup2\n    /* \"#utility.yul\":389:405   */\n  swap1\n  pop\n    /* \"#utility.yul\":334:411   */\n  swap2\n  swap1\n  pop\n  jump\t// out\n    /* \"#utility.yul\":417:539   */\ntag_50:\n    /* \"#utility.yul\":490:514   */\n  tag_86\n    /* \"#utility.yul\":508:513   */\n  dup2\n    /* \"#utility.yul\":490:514   */\n  tag_49\n  jump\t// in\ntag_86:\n    /* \"#utility.yul\":483:488   */\n  dup2\n    /* \"#utility.yul\":480:515   */\n  eq\n    /* \"#utility.yul\":470:533   */\n  tag_87\n  jumpi\n    /* \"#utility.yul\":529:530   */\n  0x00\n    /* \"#utility.yul\":526:527   */\n  0x00\n    /* \"#utility.yul\":519:531   */\n  revert\n    /* \"#utility.yul\":470:533   */\ntag_87:\n    /* \"#utility.yul\":417:539   */\n  pop\n  jump\t// out\n    /* \"#utility.yul\":545:688   */\ntag_51:\n    /* \"#utility.yul\":602:607   */\n  0x00\n    /* \"#utility.yul\":633:639   */\n  dup2\n    /* \"#utility.yul\":627:640   */\n  mload\n    /* \"#utility.yul\":618:640   */\n  swap1\n  pop\n    /* \"#utility.yul\":649:682   */\n  tag_89\n    /* \"#utility.yul\":676:681   */\n  dup2\n    /* \"#utility.yul\":649:682   */\n  tag_50\n  jump\t// in\ntag_89:\n    /* \"#utility.yul\":545:688   */\n  swap3\n  swap2\n  pop\n  pop\n  jump\t// out\n    /* \"#utility.yul\":694:1045   */\ntag_3:\n    /* \"#utility.yul\":764:770   */\n  0x00\n    /* \"#utility.yul\":813:815   */\n  0x20\n    /* \"#utility.yul\":801:810   */\n  dup3\n    /* \"#utility.yul\":792:799   */\n  dup5\n    /* \"#utility.yul\":788:811   */\n  sub\n    /* \"#utility.yul\":784:816   */\n  slt\n    /* \"#utility.yul\":781:900   */\n  iszero\n  tag_91\n  jumpi\n    /* \"#utility.yul\":819:898   */\n  tag_92\n  tag_47\n  jump\t// in\ntag_92:\n    /* \"#utility.yul\":781:900   */\ntag_91:\n    /* \"#utility.yul\":939:940   */\n  0x00\n    /* \"#utility.yul\":964:1028   */\n  tag_93\n    /* \"#utility.yul\":1020:1027   */\n  dup5\n    /* \"#utility.yul\":1011:1017   */\n  dup3\n    /* \"#utility.yul\":1000:1009   */\n  dup6\n    /* \"#utility.yul\":996:1018   */\n  add\n    /* \"#utility.yul\":964:1028   */\n  tag_51\n  jump\t// in\ntag_93:\n    /* \"#utility.yul\":954:1028   */\n  swap2\n  pop\n    /* \"#utility.yul\":910:1038   */\n  pop\n    /* \"#utility.yul\":694:1045   */\n  swap3\n  swap2\n  pop\n  pop\n  jump\t// out\n    /* \"#utility.yul\":1051:1150   */\ntag_52:\n    /* \"#utility.yul\":1103:1109   */\n  0x00\n    /* \"#utility.yul\":1137:1142   */\n  dup2\n    /* \"#utility.yul\":1131:1143   */\n  mload\n    /* \"#utility.yul\":1121:1143   */\n  swap1\n  pop\n    /* \"#utility.yul\":1051:1150   */\n  swap2\n  swap1\n  pop\n  jump\t// out\n    /* \"#utility.yul\":1156:1336   */\ntag_53:\n    /* \"#utility.yul\":1204:1281   */\n  0x4e487b7100000000000000000000000000000000000000000000000000000000\n    /* \"#utility.yul\":1201:1202   */\n  0x00\n    /* \"#utility.yul\":1194:1282   */\n  mstore\n    /* \"#utility.yul\":1301:1305   */\n  0x41\n    /* \"#utility.yul\":1298:1299   */\n  0x04\n    /* \"#utility.yul\":1291:1306   */\n  mstore\n    /* \"#utility.yul\":1325:1329   */\n  0x24\n    /* \"#utility.yul\":1322:1323   */\n  0x00\n    /* \"#utility.yul\":1315:1330   */\n  revert\n    /* \"#utility.yul\":1342:1522   */\ntag_54:\n    /* \"#utility.yul\":1390:1467   */\n  0x4e487b7100000000000000000000000000000000000000000000000000000000\n    /* \"#utility.yul\":1387:1388   */\n  0x00\n    /* \"#utility.yul\":1380:1468   */\n  mstore\n    /* \"#utility.yul\":1487:1491   */\n  0x22\n    /* \"#utility.yul\":1484:1485   */\n  0x04\n    /* \"#utility.yul\":1477:1492   */\n  mstore\n    /* \"#utility.yul\":1511:1515   */\n  0x24\n    /* \"#utility.yul\":1508:1509   */\n  0x00\n    /* \"#utility.yul\":1501:1516   */\n  revert\n    /* \"#utility.yul\":1528:1848   */\ntag_55:\n    /* \"#utility.yul\":1572:1578   */\n  0x00\n    /* \"#utility.yul\":1609:1610   */\n  0x02\n    /* \"#utility.yul\":1603:1607   */\n  dup3\n    /* \"#utility.yul\":1599:1611   */\n  div\n    /* \"#utility.yul\":1589:1611   */\n  swap1\n  pop\n    /* \"#utility.yul\":1656:1657   */\n  0x01\n    /* \"#utility.yul\":1650:1654   */\n  dup3\n    /* \"#utility.yul\":1646:1658   */\n  and\n    /* \"#utility.yul\":1677:1695   */\n  dup1\n    /* \"#utility.yul\":1667:1748   */\n  tag_98\n  jumpi\n    /* \"#utility.yul\":1733:1737   */\n  0x7f\n    /* \"#utility.yul\":1725:1731   */\n  dup3\n    /* \"#utility.yul\":1721:1738   */\n  and\n    /* \"#utility.yul\":1711:1738   */\n  swap2\n  pop\n    /* \"#utility.yul\":1667:1748   */\ntag_98:\n    /* \"#utility.yul\":1795:1797   */\n  0x20\n    /* \"#utility.yul\":1787:1793   */\n  dup3\n    /* \"#utility.yul\":1784:1798   */\n  lt\n    /* \"#utility.yul\":1764:1782   */\n  dup2\n    /* \"#utility.yul\":1761:1799   */\n  sub\n    /* \"#utility.yul\":1758:1842   */\n  tag_99\n  jumpi\n    /* \"#utility.yul\":1814:1832   */\n  tag_100\n  tag_54\n  jump\t// in\ntag_100:\n    /* \"#utility.yul\":1758:1842   */\ntag_99:\n    /* \"#utility.yul\":1579:1848   */\n  pop\n    /* \"#utility.yul\":1528:1848   */\n  swap2\n  swap1\n  pop\n  jump\t// out\n    /* \"#utility.yul\":1854:1995   */\ntag_56:\n    /* \"#utility.yul\":1903:1907   */\n  0x00\n    /* \"#utility.yul\":1926:1929   */\n  dup2\n    /* \"#utility.yul\":1918:1929   */\n  swap1\n  pop\n    /* \"#utility.yul\":1949:1952   */\n  dup2\n    /* \"#utility.yul\":1946:1947   */\n  0x00\n    /* \"#utility.yul\":1939:1953   */\n  mstore\n    /* \"#utility.yul\":1983:1987   */\n  0x20\n    /* \"#utility.yul\":1980:1981   */\n  0x00\n    /* \"#utility.yul\":1970:1988   */\n  keccak256\n    /* \"#utility.yul\":1962:1988   */\n  swap1\n  pop\n    /* \"#utility.yul\":1854:1995   */\n  swap2\n  swap1\n  pop\n  jump\t// out\n    /* \"#utility.yul\":2001:2094   */\ntag_57:\n    /* \"#utility.yul\":2038:2044   */\n  0x00\n    /* \"#utility.yul\":2085:2087   */\n  0x20\n    /* \"#utility.yul\":2080:2082   */\n  0x1f\n    /* \"#utility.yul\":2073:2078   */\n  dup4\n    /* \"#utility.yul\":2069:2083   */\n  add\n    /* \"#utility.yul\":2065:2088   */\n  div\n    /* \"#utility.yul\":2055:2088   */\n  swap1\n  pop\n    /* \"#utility.yul\":2001:2094   */\n  swap2\n  swap1\n  pop\n  jump\t// out\n    /* \"#utility.yul\":2100:2207   */\ntag_58:\n    /* \"#utility.yul\":2144:2152   */\n  0x00\n    /* \"#utility.yul\":2194:2199   */\n  dup3\n    /* \"#utility.yul\":2188:2192   */\n  dup3\n    /* \"#utility.yul\":2184:2200   */\n  shl\n    /* \"#utility.yul\":2163:2200   */\n  swap1\n  pop\n    /* \"#utility.yul\":2100:2207   */\n  swap3\n  swap2\n  pop\n  pop\n  jump\t// out\n    /* \"#utility.yul\":2213:2606   */\ntag_59:\n    /* \"#utility.yul\":2282:2288   */\n  0x00\n    /* \"#utility.yul\":2332:2333   */\n  0x08\n    /* \"#utility.yul\":2320:2330   */\n  dup4\n    /* \"#utility.yul\":2316:2334   */\n  mul\n    /* \"#utility.yul\":2355:2452   */\n  tag_105\n    /* \"#utility.yul\":2385:2451   */\n  0xffffffffffffffffffffffffffffffffffffffffffffffffffffffffffffffff\n    /* \"#utility.yul\":2374:2383   */\n  dup3\n    /* \"#utility.yul\":2355:2452   */\n  tag_58\n  jump\t// in\ntag_105:\n    /* \"#utility.yul\":2473:2512   */\n  tag_106\n    /* \"#utility.yul\":2503:2511   */\n  dup7\n    /* \"#utility.yul\":2492:2501   */\n  dup4\n    /* \"#utility.yul\":2473:2512   */\n  tag_58\n  jump\t// in\ntag_106:\n    /* \"#utility.yul\":2461:2512   */\n  swap6\n  pop\n    /* \"#utility.yul\":2545:2549   */\n  dup1\n    /* \"#utility.yul\":2541:2550   */\n  not\n    /* \"#utility.yul\":2534:2539   */\n  dup5\n    /* \"#utility.yul\":2530:2551   */\n  and\n    /* \"#utility.yul\":2521:2551   */\n  swap4\n  pop\n    /* \"#utility.yul\":2594:2598   */\n  dup1\n    /* \"#utility.yul\":2584:2592   */\n  dup7\n    /* \"#utility.yul\":2580:2599   */\n  and\n    /* \"#utility.yul\":2573:2578   */\n  dup5\n    /* \"#utility.yul\":2570:2600   */\n  or\n    /* \"#utility.yul\":2560:2600   */\n  swap3\n  pop\n    /* \"#utility.yul\":2289:2606   */\n  pop\n  pop\n    /* \"#utility.yul\":2213:2606   */\n  swap4\n  swap3\n  pop\n  pop\n  pop\n  jump\t// out\n    /* \"#utility.yul\":2612:2672   */\ntag_60:\n    /* \"#utility.yul\":2640:2643   */\n  0x00\n    /* \"#utility.yul\":2661:2666   */\n  dup2\n    /* \"#utility.yul\":2654:2666   */\n  swap1\n  pop\n    /* \"#utility.yul\":2612:2672   */\n  swap2\n  swap1\n  pop\n  jump\t// out\n    /* \"#utility.yul\":2678:2820   */\ntag_61:\n    /* \"#utility.yul\":2728:2737   */\n  0x00\n    /* \"#utility.yul\":2761:2814   */\n  tag_109\n    /* \"#utility.yul\":2779:2813   */\n  tag_110\n    /* \"#utility.yul\":2788:2812   */\n  tag_111\n    /* \"#utility.yul\":2806:2811   */\n  dup5\n    /* \"#utility.yul\":2788:2812   */\n  tag_49\n  jump\t// in\ntag_111:\n    /* \"#utility.yul\":2779:2813   */\n  tag_60\n  jump\t// in\ntag_110:\n    /* \"#utility.yul\":2761:2814   */\n  tag_49\n  jump\t// in\ntag_109:\n    /* \"#utility.yul\":2748:2814   */\n  swap1\n  pop\n    /* \"#utility.yul\":2678:2820   */\n  swap2\n  swap1\n  pop\n  jump\t// out\n    /* \"#utility.yul\":2826:2901   */\ntag_62:\n    /* \"#utility.yul\":2869:2872   */\n  0x00\n    /* \"#utility.yul\":2890:2895   */\n  dup2\n    /* \"#utility.yul\":2883:2895   */\n  swap1\n  pop\n    /* \"#utility.yul\":2826:2901   */\n  swap2\n  swap1\n  pop\n  jump\t// out\n    /* \"#utility.yul\":2907:3176   */\ntag_63:\n    /* \"#utility.yul\":3017:3056   */\n  tag_114\n    /* \"#utility.yul\":3048:3055   */\n  dup4\n    /* \"#utility.yul\":3017:3056   */\n  tag_61\n  jump\t// in\ntag_114:\n    /* \"#utility.yul\":3078:3169   */\n  tag_115\n    /* \"#utility.yul\":3127:3168   */\n  tag_116\n    /* \"#utility.yul\":3151:3167   */\n  dup3\n    /* \"#utility.yul\":3127:3168   */\n  tag_62\n  jump\t// in\ntag_116:\n    /* \"#utility.yul\":3119:3125   */\n  dup5\n    /* \"#utility.yul\":3112:3116   */\n  dup5\n    /* \"#utility.yul\":3106:3117   */\n  sload\n    /* \"#utility.yul\":3078:3169   */\n  tag_59\n  jump\t// in\ntag_115:\n    /* \"#utility.yul\":3072:3076   */\n  dup3\n    /* \"#utility.yul\":3065:3170   */\n  sstore\n    /* \"#utility.yul\":2983:3176   */\n  pop\n    /* \"#utility.yul\":2907:3176   */\n  pop\n  pop\n  pop\n  jump\t// out\n    /* \"#utility.yul\":3182:3255   */\ntag_64:\n    /* \"#utility.yul\":3227:3230   */\n  0x00\n    /* \"#utility.yul\":3248:3249   */\n  0x00\n    /* \"#utility.yul\":3241:3249   */\n  swap1\n  pop\n    /* \"#utility.yul\":3182:3255   */\n  swap1\n  jump\t// out\n    /* \"#utility.yul\":3261:3450   */\ntag_65:\n    /* \"#utility.yul\":3338:3370   */\n  tag_119\n  tag_64\n  jump\t// in\ntag_119:\n    /* \"#utility.yul\":3379:3444   */\n  tag_120\n    /* \"#utility.yul\":3437:3443   */\n  dup2\n    /* \"#utility.yul\":3429:3435   */\n  dup5\n    /* \"#utility.yul\":3423:3427   */\n  dup5\n    /* \"#utility.yul\":3379:3444   */\n  tag_63\n  jump\t// in\ntag_120:\n    /* \"#utility.yul\":3314:3450   */\n  pop\n    /* \"#utility.yul\":3261:3450   */\n  pop\n  pop\n  jump\t// out\n    /* \"#utility.yul\":3456:3642   */\ntag_66:\n    /* \"#utility.yul\":3516:3636   */\ntag_122:\n    /* \"#utility.yul\":3533:3536   */\n  dup2\n    /* \"#utility.yul\":3526:3531   */\n  dup2\n    /* \"#utility.yul\":3523:3537   */\n  lt\n    /* \"#utility.yul\":3516:3636   */\n  iszero\n  tag_124\n  jumpi\n    /* \"#utility.yul\":3587:3626   */\n  tag_125\n    /* \"#utility.yul\":3624:3625   */\n  0x00\n    /* \"#utility.yul\":3617:3622   */\n  dup3\n    /* \"#utility.yul\":3587:3626   */\n  tag_65\n  jump\t// in\ntag_125:\n    /* \"#utility.yul\":3560:3561   */\n  0x01\n    /* \"#utility.yul\":3553:3558   */\n  dup2\n    /* \"#utility.yul\":3549:3562   */\n  add\n    /* \"#utility.yul\":3540:3562   */\n  swap1\n  pop\n    /* \"#utility.yul\":3516:3636   */\n  jump(tag_122)\ntag_124:\n    /* \"#utility.yul\":3456:3642   */\n  pop\n  pop\n  jump\t// out\n    /* \"#utility.yul\":3648:4191   */\ntag_67:\n    /* \"#utility.yul\":3749:3751   */\n  0x1f\n    /* \"#utility.yul\":3744:3747   */\n  dup3\n    /* \"#utility.yul\":3741:3752   */\n  gt\n    /* \"#utility.yul\":3738:4184   */\n  iszero\n  tag_127\n  jumpi\n    /* \"#utility.yul\":3783:3821   */\n  tag_128\n    /* \"#utility.yul\":3815:3820   */\n  dup2\n    /* \"#utility.yul\":3783:3821   */\n  tag_56\n  jump\t// in\ntag_128:\n    /* \"#utility.yul\":3867:3896   */\n  tag_129\n    /* \"#utility.yul\":3885:3895   */\n  dup5\n    /* \"#utility.yul\":3867:3896   */\n  tag_57\n  jump\t// in\ntag_129:\n    /* \"#utility.yul\":3857:3865   */\n  dup2\n    /* \"#utility.yul\":3853:3897   */\n  add\n    /* \"#utility.yul\":4050:4052   */\n  0x20\n    /* \"#utility.yul\":4038:4048   */\n  dup6\n    /* \"#utility.yul\":4035:4053   */\n  lt\n    /* \"#utility.yul\":4032:4081   */\n  iszero\n  tag_130\n  jumpi\n    /* \"#utility.yul\":4071:4079   */\n  dup2\n    /* \"#utility.yul\":4056:4079   */\n  swap1\n  pop\n    /* \"#utility.yul\":4032:4081   */\ntag_130:\n    /* \"#utility.yul\":4094:4174   */\n  tag_131\n    /* \"#utility.yul\":4150:4172   */\n  tag_132\n    /* \"#utility.yul\":4168:4171   */\n  dup6\n    /* \"#utility.yul\":4150:4172   */\n  tag_57\n  jump\t// in\ntag_132:\n    /* \"#utility.yul\":4140:4148   */\n  dup4\n    /* \"#utility.yul\":4136:4173   */\n  add\n    /* \"#utility.yul\":4123:4134   */\n  dup3\n    /* \"#utility.yul\":4094:4174   */\n  tag_66\n  jump\t// in\ntag_131:\n    /* \"#utility.yul\":3753:4184   */\n  pop\n  pop\n    /* \"#utility.yul\":3738:4184   */\ntag_127:\n    /* \"#utility.yul\":3648:4191   */\n  pop\n  pop\n  pop\n  jump\t// out\n    /* \"#utility.yul\":4197:4314   */\ntag_68:\n    /* \"#utility.yul\":4251:4259   */\n  0x00\n    /* \"#utility.yul\":4301:4306   */\n  dup3\n    /* \"#utility.yul\":4295:4299   */\n  dup3\n    /* \"#utility.yul\":4291:4307   */\n  shr\n    /* \"#utility.yul\":4270:4307   */\n  swap1\n  pop\n    /* \"#utility.yul\":4197:4314   */\n  swap3\n  swap2\n  pop\n  pop\n  jump\t// out\n    /* \"#utility.yul\":4320:4489   */\ntag_69:\n    /* \"#utility.yul\":4364:4370   */\n  0x00\n    /* \"#utility.yul\":4397:4448   */\n  tag_135\n    /* \"#utility.yul\":4445:4446   */\n  0x00\n    /* \"#utility.yul\":4441:4447   */\n  not\n    /* \"#utility.yul\":4433:4438   */\n  dup5\n    /* \"#utility.yul\":4430:4431   */\n  0x08\n    /* \"#utility.yul\":4426:4439   */\n  mul\n    /* \"#utility.yul\":4397:4448   */\n  tag_68\n  jump\t// in\ntag_135:\n    /* \"#utility.yul\":4393:4449   */\n  not\n    /* \"#utility.yul\":4478:4482   */\n  dup1\n    /* \"#utility.yul\":4472:4476   */\n  dup4\n    /* \"#utility.yul\":4468:4483   */\n  and\n    /* \"#utility.yul\":4458:4483   */\n  swap2\n  pop\n    /* \"#utility.yul\":4371:4489   */\n  pop\n    /* \"#utility.yul\":4320:4489   */\n  swap3\n  swap2\n  pop\n  pop\n  jump\t// out\n    /* \"#utility.yul\":4494:4789   */\ntag_70:\n    /* \"#utility.yul\":4570:4574   */\n  0x00\n    /* \"#utility.yul\":4716:4745   */\n  tag_137\n    /* \"#utility.yul\":4741:4744   */\n  dup4\n    /* \"#utility.yul\":4735:4739   */\n  dup4\n    /* \"#utility.yul\":4716:4745   */\n  tag_69\n  jump\t// in\ntag_137:\n    /* \"#utility.yul\":4708:4745   */\n  swap2\n  pop\n    /* \"#utility.yul\":4778:4781   */\n  dup3\n    /* \"#utility.yul\":4775:4776   */\n  0x02\n    /* \"#utility.yul\":4771:4782   */\n  mul\n    /* \"#utility.yul\":4765:4769   */\n  dup3\n    /* \"#utility.yul\":4762:4783   */\n  or\n    /* \"#utility.yul\":4754:4783   */\n  swap1\n  pop\n    /* \"#utility.yul\":4494:4789   */\n  swap3\n  swap2\n  pop\n  pop\n  jump\t// out\n    /* \"#utility.yul\":4794:6189   */\ntag_9:\n    /* \"#utility.yul\":4911:4948   */\n  tag_139\n    /* \"#utility.yul\":4944:4947   */\n  dup3\n    /* \"#utility.yul\":4911:4948   */\n  tag_52\n  jump\t// in\ntag_139:\n    /* \"#utility.yul\":5013:5031   */\n  0xffffffffffffffff\n    /* \"#utility.yul\":5005:5011   */\n  dup2\n    /* \"#utility.yul\":5002:5032   */\n  gt\n    /* \"#utility.yul\":4999:5055   */\n  iszero\n  tag_140\n  jumpi\n    /* \"#utility.yul\":5035:5053   */\n  tag_141\n  tag_53\n  jump\t// in\ntag_141:\n    /* \"#utility.yul\":4999:5055   */\ntag_140:\n    /* \"#utility.yul\":5079:5117   */\n  tag_142\n    /* \"#utility.yul\":5111:5115   */\n  dup3\n    /* \"#utility.yul\":5105:5116   */\n  sload\n    /* \"#utility.yul\":5079:5117   */\n  tag_55\n  jump\t// in\ntag_142:\n    /* \"#utility.yul\":5164:5231   */\n  tag_143\n    /* \"#utility.yul\":5224:5230   */\n  dup3\n    /* \"#utility.yul\":5216:5222   */\n  dup3\n    /* \"#utility.yul\":5210:5214   */\n  dup6\n    /* \"#utility.yul\":5164:5231   */\n  tag_67\n  jump\t// in\ntag_143:\n    /* \"#utility.yul\":5258:5259   */\n  0x00\n    /* \"#utility.yul\":5282:5286   */\n  0x20\n    /* \"#utility.yul\":5269:5286   */\n  swap1\n  pop\n    /* \"#utility.yul\":5314:5316   */\n  0x1f\n    /* \"#utility.yul\":5306:5312   */\n  dup4\n    /* \"#utility.yul\":5303:5317   */\n  gt\n    /* \"#utility.yul\":5331:5332   */\n  0x01\n    /* \"#utility.yul\":5326:5944   */\n  dup2\n  eq\n  tag_145\n  jumpi\n    /* \"#utility.yul\":5988:5989   */\n  0x00\n    /* \"#utility.yul\":6005:6011   */\n  dup5\n    /* \"#utility.yul\":6002:6079   */\n  iszero\n  tag_146\n  jumpi\n    /* \"#utility.yul\":6054:6063   */\n  dup3\n    /* \"#utility.yul\":6049:6052   */\n  dup8\n    /* \"#utility.yul\":6045:6064   */\n  add\n    /* \"#utility.yul\":6039:6065   */\n  mload\n    /* \"#utility.yul\":6030:6065   */\n  swap1\n  pop\n    /* \"#utility.yul\":6002:6079   */\ntag_146:\n    /* \"#utility.yul\":6105:6172   */\n  tag_147\n    /* \"#utility.yul\":6165:6171   */\n  dup6\n    /* \"#utility.yul\":6158:6163   */\n  dup3\n    /* \"#utility.yul\":6105:6172   */\n  tag_70\n  jump\t// in\ntag_147:\n    /* \"#utility.yul\":6099:6103   */\n  dup7\n    /* \"#utility.yul\":6092:6173   */\n  sstore\n    /* \"#utility.yul\":5961:6183   */\n  pop\n    /* \"#utility.yul\":5296:6183   */\n  jump(tag_144)\n    /* \"#utility.yul\":5326:5944   */\ntag_145:\n    /* \"#utility.yul\":5378:5382   */\n  0x1f\n    /* \"#utility.yul\":5374:5383   */\n  not\n    /* \"#utility.yul\":5366:5372   */\n  dup5\n    /* \"#utility.yul\":5362:5384   */\n  and\n    /* \"#utility.yul\":5412:5449   */\n  tag_148\n    /* \"#utility.yul\":5444:5448   */\n  dup7\n    /* \"#utility.yul\":5412:5449   */\n  tag_56\n  jump\t// in\ntag_148:\n    /* \"#utility.yul\":5471:5472   */\n  0x00\n    /* \"#utility.yul\":5485:5693   */\ntag_149:\n    /* \"#utility.yul\":5499:5506   */\n  dup3\n    /* \"#utility.yul\":5496:5497   */\n  dup2\n    /* \"#utility.yul\":5493:5507   */\n  lt\n    /* \"#utility.yul\":5485:5693   */\n  iszero\n  tag_151\n  jumpi\n    /* \"#utility.yul\":5578:5587   */\n  dup5\n    /* \"#utility.yul\":5573:5576   */\n  dup10\n    /* \"#utility.yul\":5569:5588   */\n  add\n    /* \"#utility.yul\":5563:5589   */\n  mload\n    /* \"#utility.yul\":5555:5561   */\n  dup3\n    /* \"#utility.yul\":5548:5590   */\n  sstore\n    /* \"#utility.yul\":5629:5630   */\n  0x01\n    /* \"#utility.yul\":5621:5627   */\n  dup3\n    /* \"#utility.yul\":5617:5631   */\n  add\n    /* \"#utility.yul\":5607:5631   */\n  swap2\n  pop\n    /* \"#utility.yul\":5676:5678   */\n  0x20\n    /* \"#utility.yul\":5665:5674   */\n  dup6\n    /* \"#utility.yul\":5661:5679   */\n  add\n    /* \"#utility.yul\":5648:5679   */\n  swap5\n  pop\n    /* \"#utility.yul\":5522:5526   */\n  0x20\n    /* \"#utility.yul\":5519:5520   */\n  dup2\n    /* \"#utility.yul\":5515:5527   */\n  add\n    /* \"#utility.yul\":5510:5527   */\n  swap1\n  pop\n    /* \"#utility.yul\":5485:5693   */\n  jump(tag_149)\ntag_151:\n    /* \"#utility.yul\":5721:5727   */\n  dup7\n    /* \"#utility.yul\":5712:5719   */\n  dup4\n    /* \"#utility.yul\":5709:5728   */\n  lt\n    /* \"#utility.yul\":5706:5885   */\n  iszero\n  tag_152\n  jumpi\n    /* \"#utility.yul\":5779:5788   */\n  dup5\n    /* \"#utility.yul\":5774:5777   */\n  dup10\n    /* \"#utility.yul\":5770:5789   */\n  add\n    /* \"#utility.yul\":5764:5790   */\n  mload\n    /* \"#utility.yul\":5822:5870   */\n  tag_153\n    /* \"#utility.yul\":5864:5868   */\n  0x1f\n    /* \"#utility.yul\":5856:5862   */\n  dup10\n    /* \"#utility.yul\":5852:5869   */\n  and\n    /* \"#utility.yul\":5841:5850   */\n  dup3\n    /* \"#utility.yul\":5822:5870   */\n  tag_69\n  jump\t// in\ntag_153:\n    /* \"#utility.yul\":5814:5820   */\n  dup4\n    /* \"#utility.yul\":5807:5871   */\n  sstore\n    /* \"#utility.yul\":5729:5885   */\n  pop\n    /* \"#utility.yul\":5706:5885   */\ntag_152:\n    /* \"#utility.yul\":5931:5932   */\n  0x01\n    /* \"#utility.yul\":5927:5928   */\n  0x02\n    /* \"#utility.yul\":5919:5925   */\n  dup9\n    /* \"#utility.yul\":5915:5929   */\n  mul\n    /* \"#utility.yul\":5911:5933   */\n  add\n    /* \"#utility.yul\":5905:5909   */\n  dup9\n    /* \"#utility.yul\":5898:5934   */\n  sstore\n    /* \"#utility.yul\":5333:5944   */\n  pop\n  pop\n  pop\n    /* \"#utility.yul\":5296:6183   */\ntag_144:\n  pop\n    /* \"#utility.yul\":4886:6189   */\n  pop\n  pop\n  pop\n    /* \"#utility.yul\":4794:6189   */\n  pop\n  pop\n  jump\t// out\n    /* \"#utility.yul\":6195:6321   */\ntag_71:\n    /* \"#utility.yul\":6232:6239   */\n  0x00\n    /* \"#utility.yul\":6272:6314   */\n  0xffffffffffffffffffffffffffffffffffffffff\n    /* \"#utility.yul\":6265:6270   */\n  dup3\n    /* \"#utility.yul\":6261:6315   */\n  and\n    /* \"#utility.yul\":6250:6315   */\n  swap1\n  pop\n    /* \"#utility.yul\":6195:6321   */\n  swap2\n  swap1\n  pop\n  jump\t// out\n    /* \"#utility.yul\":6327:6423   */\ntag_72:\n    /* \"#utility.yul\":6364:6371   */\n  0x00\n    /* \"#utility.yul\":6393:6417   */\n  tag_156\n    /* \"#utility.yul\":6411:6416   */\n  dup3\n    /* \"#utility.yul\":6393:6417   */\n  tag_71\n  jump\t// in\ntag_156:\n    /* \"#utility.yul\":6382:6417   */\n  swap1\n  pop\n    /* \"#utility.yul\":6327:6423   */\n  swap2\n  swap1\n  pop\n  jump\t// out\n    /* \"#utility.yul\":6429:6547   */\ntag_73:\n    /* \"#utility.yul\":6516:6540   */\n  tag_158\n    /* \"#utility.yul\":6534:6539   */\n  dup2\n    /* \"#utility.yul\":6516:6540   */\n  tag_72\n  jump\t// in\ntag_158:\n    /* \"#utility.yul\":6511:6514   */\n  dup3\n    /* \"#utility.yul\":6504:6541   */\n  mstore\n    /* \"#utility.yul\":6429:6547   */\n  pop\n  pop\n  jump\t// out\n    /* \"#utility.yul\":6553:6775   */\ntag_14:\n    /* \"#utility.yul\":6646:6650   */\n  0x00\n    /* \"#utility.yul\":6684:6686   */\n  0x20\n    /* \"#utility.yul\":6673:6682   */\n  dup3\n    /* \"#utility.yul\":6669:6687   */\n  add\n    /* \"#utility.yul\":6661:6687   */\n  swap1\n  pop\n    /* \"#utility.yul\":6697:6768   */\n  tag_160\n    /* \"#utility.yul\":6765:6766   */\n  0x00\n    /* \"#utility.yul\":6754:6763   */\n  dup4\n    /* \"#utility.yul\":6750:6767   */\n  add\n    /* \"#utility.yul\":6741:6747   */\n  dup5\n    /* \"#utility.yul\":6697:6768   */\n  tag_73\n  jump\t// in\ntag_160:\n    /* \"#utility.yul\":6553:6775   */\n  swap3\n  swap2\n  pop\n  pop\n  jump\t// out\n    /* \"#utility.yul\":6781:6961   */\ntag_74:\n    /* \"#utility.yul\":6829:6906   */\n  0x4e487b7100000000000000000000000000000000000000000000000000000000\n    /* \"#utility.yul\":6826:6827   */\n  0x00\n    /* \"#utility.yul\":6819:6907   */\n  mstore\n    /* \"#utility.yul\":6926:6930   */\n  0x11\n    /* \"#utility.yul\":6923:6924   */\n  0x04\n    /* \"#utility.yul\":6916:6931   */\n  mstore\n    /* \"#utility.yul\":6950:6954   */\n  0x24\n    /* \"#utility.yul\":6947:6948   */\n  0x00\n    /* \"#utility.yul\":6940:6955   */\n  revert\n    /* \"#utility.yul\":6967:7069   */\ntag_75:\n    /* \"#utility.yul\":7009:7017   */\n  0x00\n    /* \"#utility.yul\":7056:7061   */\n  dup2\n    /* \"#utility.yul\":7053:7054   */\n  0x01\n    /* \"#utility.yul\":7049:7062   */\n  shr\n    /* \"#utility.yul\":7028:7062   */\n  swap1\n  pop\n    /* \"#utility.yul\":6967:7069   */\n  swap2\n  swap1\n  pop\n  jump\t// out\n    /* \"#utility.yul\":7075:7923   */\ntag_76:\n    /* \"#utility.yul\":7136:7141   */\n  0x00\n    /* \"#utility.yul\":7143:7147   */\n  0x00\n    /* \"#utility.yul\":7167:7173   */\n  dup3\n    /* \"#utility.yul\":7158:7173   */\n  swap2\n  pop\n    /* \"#utility.yul\":7191:7196   */\n  dup4\n    /* \"#utility.yul\":7182:7196   */\n  swap1\n  pop\n    /* \"#utility.yul\":7205:7917   */\ntag_164:\n    /* \"#utility.yul\":7226:7227   */\n  0x01\n    /* \"#utility.yul\":7216:7224   */\n  dup6\n    /* \"#utility.yul\":7213:7228   */\n  gt\n    /* \"#utility.yul\":7205:7917   */\n  iszero\n  tag_166\n  jumpi\n    /* \"#utility.yul\":7321:7325   */\n  dup1\n    /* \"#utility.yul\":7316:7319   */\n  dup7\n    /* \"#utility.yul\":7312:7326   */\n  div\n    /* \"#utility.yul\":7306:7310   */\n  dup2\n    /* \"#utility.yul\":7303:7327   */\n  gt\n    /* \"#utility.yul\":7300:7350   */\n  iszero\n  tag_167\n  jumpi\n    /* \"#utility.yul\":7330:7348   */\n  tag_168\n  tag_74\n  jump\t// in\ntag_168:\n    /* \"#utility.yul\":7300:7350   */\ntag_167:\n    /* \"#utility.yul\":7380:7381   */\n  0x01\n    /* \"#utility.yul\":7370:7378   */\n  dup6\n    /* \"#utility.yul\":7366:7382   */\n  and\n    /* \"#utility.yul\":7363:7814   */\n  iszero\n  tag_169\n  jumpi\n    /* \"#utility.yul\":7795:7799   */\n  dup1\n    /* \"#utility.yul\":7788:7793   */\n  dup3\n    /* \"#utility.yul\":7784:7800   */\n  mul\n    /* \"#utility.yul\":7775:7800   */\n  swap2\n  pop\n    /* \"#utility.yul\":7363:7814   */\ntag_169:\n    /* \"#utility.yul\":7845:7849   */\n  dup1\n    /* \"#utility.yul\":7839:7843   */\n  dup2\n    /* \"#utility.yul\":7835:7850   */\n  mul\n    /* \"#utility.yul\":7827:7850   */\n  swap1\n  pop\n    /* \"#utility.yul\":7875:7907   */\n  tag_170\n    /* \"#utility.yul\":7898:7906   */\n  dup6\n    /* \"#utility.yul\":7875:7907   */\n  tag_75\n  jump\t// in\ntag_170:\n    /* \"#utility.yul\":7863:7907   */\n  swap5\n  pop\n    /* \"#utility.yul\":7205:7917   */\n  jump(tag_164)\ntag_166:\n    /* \"#utility.yul\":7075:7923   */\n  swap5\n  pop\n  swap5\n  swap3\n  pop\n  pop\n  pop\n  jump\t// out\n    /* \"#utility.yul\":7929:9002   */\ntag_77:\n    /* \"#utility.yul\":7983:7988   */\n  0x00\n    /* \"#utility.yul\":8174:8182   */\n  dup3\n    /* \"#utility.yul\":8164:8204   */\n  tag_172\n  jumpi\n    /* \"#utility.yul\":8195:8196   */\n  0x01\n    /* \"#utility.yul\":8186:8196   */\n  swap1\n  pop\n    /* \"#utility.yul\":8197:8202   */\n  jump(tag_171)\n    /* \"#utility.yul\":8164:8204   */\ntag_172:\n    /* \"#utility.yul\":8223:8227   */\n  dup2\n    /* \"#utility.yul\":8213:8249   */\n  tag_173\n  jumpi\n    /* \"#utility.yul\":8240:8241   */\n  0x00\n    /* \"#utility.yul\":8231:8241   */\n  swap1\n  pop\n    /* \"#utility.yul\":8242:8247   */\n  jump(tag_171)\n    /* \"#utility.yul\":8213:8249   */\ntag_173:\n    /* \"#utility.yul\":8309:8313   */\n  dup2\n    /* \"#utility.yul\":8357:8358   */\n  0x01\n    /* \"#utility.yul\":8352:8379   */\n  dup2\n  eq\n  tag_175\n  jumpi\n    /* \"#utility.yul\":8393:8394   */\n  0x02\n    /* \"#utility.yul\":8388:8579   */\n  dup2\n  eq\n  tag_176\n  jumpi\n    /* \"#utility.yul\":8302:8579   */\n  jump(tag_174)\n    /* \"#utility.yul\":8352:8379   */\ntag_175:\n    /* \"#utility.yul\":8370:8371   */\n  0x01\n    /* \"#utility.yul\":8361:8371   */\n  swap2\n  pop\n    /* \"#utility.yul\":8372:8377   */\n  pop\n  jump(tag_171)\n    /* \"#utility.yul\":8388:8579   */\ntag_176:\n    /* \"#utility.yul\":8433:8436   */\n  0xff\n    /* \"#utility.yul\":8423:8431   */\n  dup5\n    /* \"#utility.yul\":8420:8437   */\n  gt\n    /* \"#utility.yul\":8417:8460   */\n  iszero\n  tag_177\n  jumpi\n    /* \"#utility.yul\":8440:8458   */\n  tag_178\n  tag_74\n  jump\t// in\ntag_178:\n    /* \"#utility.yul\":8417:8460   */\ntag_177:\n    /* \"#utility.yul\":8489:8497   */\n  dup4\n    /* \"#utility.yul\":8486:8487   */\n  0x02\n    /* \"#utility.yul\":8482:8498   */\n  exp\n    /* \"#utility.yul\":8473:8498   */\n  swap2\n  pop\n    /* \"#utility.yul\":8524:8527   */\n  dup5\n    /* \"#utility.yul\":8517:8522   */\n  dup3\n    /* \"#utility.yul\":8514:8528   */\n  gt\n    /* \"#utility.yul\":8511:8551   */\n  iszero\n  tag_179\n  jumpi\n    /* \"#utility.yul\":8531:8549   */\n  tag_180\n  tag_74\n  jump\t// in\ntag_180:\n    /* \"#utility.yul\":8511:8551   */\ntag_179:\n    /* \"#utility.yul\":8564:8569   */\n  pop\n  jump(tag_171)\n    /* \"#utility.yul\":8302:8579   */\ntag_174:\n  pop\n    /* \"#utility.yul\":8688:8690   */\n  0x20\n    /* \"#utility.yul\":8678:8686   */\n  dup4\n    /* \"#utility.yul\":8675:8691   */\n  lt\n    /* \"#utility.yul\":8669:8672   */\n  0x0133\n    /* \"#utility.yul\":8663:8667   */\n  dup4\n    /* \"#utility.yul\":8660:8673   */\n  lt\n    /* \"#utility.yul\":8656:8692   */\n  and\n    /* \"#utility.yul\":8638:8640   */\n  0x4e\n    /* \"#utility.yul\":8628:8636   */\n  dup5\n    /* \"#utility.yul\":8625:8641   */\n  lt\n    /* \"#utility.yul\":8620:8622   */\n  0x0b\n    /* \"#utility.yul\":8614:8618   */\n  dup5\n    /* \"#utility.yul\":8611:8623   */\n  lt\n    /* \"#utility.yul\":8607:8642   */\n  and\n    /* \"#utility.yul\":8591:8702   */\n  or\n    /* \"#utility.yul\":8588:8834   */\n  iszero\n  tag_181\n  jumpi\n    /* \"#utility.yul\":8744:8752   */\n  dup3\n    /* \"#utility.yul\":8738:8742   */\n  dup3\n    /* \"#utility.yul\":8734:8753   */\n  exp\n    /* \"#utility.yul\":8725:8753   */\n  swap1\n  pop\n    /* \"#utility.yul\":8779:8782   */\n  dup4\n    /* \"#utility.yul\":8772:8777   */\n  dup2\n    /* \"#utility.yul\":8769:8783   */\n  gt\n    /* \"#utility.yul\":8766:8806   */\n  iszero\n  tag_182\n  jumpi\n    /* \"#utility.yul\":8786:8804   */\n  tag_183\n  tag_74\n  jump\t// in\ntag_183:\n    /* \"#utility.yul\":8766:8806   */\ntag_182:\n    /* \"#utility.yul\":8819:8824   */\n  jump(tag_171)\n    /* \"#utility.yul\":8588:8834   */\ntag_181:\n    /* \"#utility.yul\":8859:8901   */\n  tag_184\n    /* \"#utility.yul\":8897:8900   */\n  dup5\n    /* \"#utility.yul\":8887:8895   */\n  dup5\n    /* \"#utility.yul\":8881:8885   */\n  dup5\n    /* \"#utility.yul\":8878:8879   */\n  0x01\n    /* \"#utility.yul\":8859:8901   */\n  tag_76\n  jump\t// in\ntag_184:\n    /* \"#utility.yul\":8844:8901   */\n  swap3\n  pop\n  swap1\n  pop\n    /* \"#utility.yul\":8933:8937   */\n  dup2\n    /* \"#utility.yul\":8928:8931   */\n  dup5\n    /* \"#utility.yul\":8924:8938   */\n  div\n    /* \"#utility.yul\":8917:8922   */\n  dup2\n    /* \"#utility.yul\":8914:8939   */\n  gt\n    /* \"#utility.yul\":8911:8962   */\n  iszero\n  tag_185\n  jumpi\n    /* \"#utility.yul\":8942:8960   */\n  tag_186\n  tag_74\n  jump\t// in\ntag_186:\n    /* \"#utility.yul\":8911:8962   */\ntag_185:\n    /* \"#utility.yul\":8991:8995   */\n  dup2\n    /* \"#utility.yul\":8984:8989   */\n  dup2\n    /* \"#utility.yul\":8980:8996   */\n  mul\n    /* \"#utility.yul\":8971:8996   */\n  swap1\n  pop\n    /* \"#utility.yul\":7929:9002   */\ntag_171:\n  swap4\n  swap3\n  pop\n  pop\n  pop\n  jump\t// out\n    /* \"#utility.yul\":9008:9094   */\ntag_78:\n    /* \"#utility.yul\":9043:9050   */\n  0x00\n    /* \"#utility.yul\":9083:9087   */\n  0xff\n    /* \"#utility.yul\":9076:9081   */\n  dup3\n    /* \"#utility.yul\":9072:9088   */\n  and\n    /* \"#utility.yul\":9061:9088   */\n  swap1\n  pop\n    /* \"#utility.yul\":9008:9094   */\n  swap2\n  swap1\n  pop\n  jump\t// out\n    /* \"#utility.yul\":9100:9381   */\ntag_22:\n    /* \"#utility.yul\":9158:9163   */\n  0x00\n    /* \"#utility.yul\":9182:9205   */\n  tag_189\n    /* \"#utility.yul\":9200:9204   */\n  dup3\n    /* \"#utility.yul\":9182:9205   */\n  tag_49\n  jump\t// in\ntag_189:\n    /* \"#utility.yul\":9174:9205   */\n  swap2\n  pop\n    /* \"#utility.yul\":9226:9251   */\n  tag_190\n    /* \"#utility.yul\":9242:9250   */\n  dup4\n    /* \"#utility.yul\":9226:9251   */\n  tag_78\n  jump\t// in\ntag_190:\n    /* \"#utility.yul\":9214:9251   */\n  swap3\n  pop\n    /* \"#utility.yul\":9270:9374   */\n  tag_191\n    /* \"#utility.yul\":9307:9373   */\n  0xffffffffffffffffffffffffffffffffffffffffffffffffffffffffffffffff\n    /* \"#utility.yul\":9297:9305   */\n  dup5\n    /* \"#utility.yul\":9291:9295   */\n  dup5\n    /* \"#utility.yul\":9270:9374   */\n  tag_77\n  jump\t// in\ntag_191:\n    /* \"#utility.yul\":9261:9374   */\n  swap1\n  pop\n    /* \"#utility.yul\":9100:9381   */\n  swap3\n  swap2\n  pop\n  pop\n  jump\t// out\n    /* \"#utility.yul\":9387:9797   */\ntag_24:\n    /* \"#utility.yul\":9427:9434   */\n  0x00\n    /* \"#utility.yul\":9450:9470   */\n  tag_193\n    /* \"#utility.yul\":9468:9469   */\n  dup3\n    /* \"#utility.yul\":9450:9470   */\n  tag_49\n  jump\t// in\ntag_193:\n    /* \"#utility.yul\":9445:9470   */\n  swap2\n  pop\n    /* \"#utility.yul\":9484:9504   */\n  tag_194\n    /* \"#utility.yul\":9502:9503   */\n  dup4\n    /* \"#utility.yul\":9484:9504   */\n  tag_49\n  jump\t// in\ntag_194:\n    /* \"#utility.yul\":9479:9504   */\n  swap3\n  pop\n    /* \"#utility.yul\":9539:9540   */\n  dup3\n    /* \"#utility.yul\":9536:9537   */\n  dup3\n    /* \"#utility.yul\":9532:9541   */\n  mul\n    /* \"#utility.yul\":9561:9591   */\n  tag_195\n    /* \"#utility.yul\":9579:9590   */\n  dup2\n    /* \"#utility.yul\":9561:9591   */\n  tag_49\n  jump\t// in\ntag_195:\n    /* \"#utility.yul\":9550:9591   */\n  swap2\n  pop\n    /* \"#utility.yul\":9740:9741   */\n  dup3\n    /* \"#utility.yul\":9731:9738   */\n  dup3\n    /* \"#utility.yul\":9727:9742   */\n  div\n    /* \"#utility.yul\":9724:9725   */\n  dup5\n    /* \"#utility.yul\":9721:9743   */\n  eq\n    /* \"#utility.yul\":9701:9702   */\n  dup4\n    /* \"#utility.yul\":9694:9703   */\n  iszero\n    /* \"#utility.yul\":9674:9757   */\n  or\n    /* \"#utility.yul\":9651:9790   */\n  tag_196\n  jumpi\n    /* \"#utility.yul\":9770:9788   */\n  tag_197\n  tag_74\n  jump\t// in\ntag_197:\n    /* \"#utility.yul\":9651:9790   */\ntag_196:\n    /* \"#utility.yul\":9435:9797   */\n  pop\n    /* \"#utility.yul\":9387:9797   */\n  swap3\n  swap2\n  pop\n  pop\n  jump\t// out\n    /* \"#utility.yul\":9803:9994   */\ntag_37:\n    /* \"#utility.yul\":9843:9846   */\n  0x00\n    /* \"#utility.yul\":9862:9882   */\n  tag_199\n    /* \"#utility.yul\":9880:9881   */\n  dup3\n    /* \"#utility.yul\":9862:9882   */\n  tag_49\n  jump\t// in\ntag_199:\n    /* \"#utility.yul\":9857:9882   */\n  swap2\n  pop\n    /* \"#utility.yul\":9896:9916   */\n  tag_200\n    /* \"#utility.yul\":9914:9915   */\n  dup4\n    /* \"#utility.yul\":9896:9916   */\n  tag_49\n  jump\t// in\ntag_200:\n    /* \"#utility.yul\":9891:9916   */\n  swap3\n  pop\n    /* \"#utility.yul\":9939:9940   */\n  dup3\n    /* \"#utility.yul\":9936:9937   */\n  dup3\n    /* \"#utility.yul\":9932:9941   */\n  add\n    /* \"#utility.yul\":9925:9941   */\n  swap1\n  pop\n    /* \"#utility.yul\":9960:9963   */\n  dup1\n    /* \"#utility.yul\":9957:9958   */\n  dup3\n    /* \"#utility.yul\":9954:9964   */\n  gt\n    /* \"#utility.yul\":9951:9987   */\n  iszero\n  tag_201\n  jumpi\n    /* \"#utility.yul\":9967:9985   */\n  tag_202\n  tag_74\n  jump\t// in\ntag_202:\n    /* \"#utility.yul\":9951:9987   */\ntag_201:\n    /* \"#utility.yul\":9803:9994   */\n  swap3\n  swap2\n  pop\n  pop\n  jump\t// out\n    /* \"#utility.yul\":10000:10118   */\ntag_79:\n    /* \"#utility.yul\":10087:10111   */\n  tag_204\n    /* \"#utility.yul\":10105:10110   */\n  dup2\n    /* \"#utility.yul\":10087:10111   */\n  tag_49\n  jump\t// in\ntag_204:\n    /* \"#utility.yul\":10082:10085   */\n  dup3\n    /* \"#utility.yul\":10075:10112   */\n  mstore\n    /* \"#utility.yul\":10000:10118   */\n  pop\n  pop\n  jump\t// out\n    /* \"#utility.yul\":10124:10566   */\ntag_41:\n    /* \"#utility.yul\":10273:10277   */\n  0x00\n    /* \"#utility.yul\":10311:10313   */\n  0x60\n    /* \"#utility.yul\":10300:10309   */\n  dup3\n    /* \"#utility.yul\":10296:10314   */\n  add\n    /* \"#utility.yul\":10288:10314   */\n  swap1\n  pop\n    /* \"#utility.yul\":10324:10395   */\n  tag_206\n    /* \"#utility.yul\":10392:10393   */\n  0x00\n    /* \"#utility.yul\":10381:10390   */\n  dup4\n    /* \"#utility.yul\":10377:10394   */\n  add\n    /* \"#utility.yul\":10368:10374   */\n  dup7\n    /* \"#utility.yul\":10324:10395   */\n  tag_73\n  jump\t// in\ntag_206:\n    /* \"#utility.yul\":10405:10477   */\n  tag_207\n    /* \"#utility.yul\":10473:10475   */\n  0x20\n    /* \"#utility.yul\":10462:10471   */\n  dup4\n    /* \"#utility.yul\":10458:10476   */\n  add\n    /* \"#utility.yul\":10449:10455   */\n  dup6\n    /* \"#utility.yul\":10405:10477   */\n  tag_79\n  jump\t// in\ntag_207:\n    /* \"#utility.yul\":10487:10559   */\n  tag_208\n    /* \"#utility.yul\":10555:10557   */\n  0x40\n    /* \"#utility.yul\":10544:10553   */\n  dup4\n    /* \"#utility.yul\":10540:10558   */\n  add\n    /* \"#utility.yul\":10531:10537   */\n  dup5\n    /* \"#utility.yul\":10487:10559   */\n  tag_79\n  jump\t// in\ntag_208:\n    /* \"#utility.yul\":10124:10566   */\n  swap5\n  swap4\n  pop\n  pop\n  pop\n  pop\n  jump\t// out\n    /* \"#utility.yul\":10572:10794   */\ntag_45:\n    /* \"#utility.yul\":10665:10669   */\n  0x00\n    /* \"#utility.yul\":10703:10705   */\n  0x20\n    /* \"#utility.yul\":10692:10701   */\n  dup3\n    /* \"#utility.yul\":10688:10706   */\n  add\n    /* \"#utility.yul\":10680:10706   */\n  swap1\n  pop\n    /* \"#utility.yul\":10716:10787   */\n  tag_210\n    /* \"#utility.yul\":10784:10785   */\n  0x00\n    /* \"#utility.yul\":10773:10782   */\n  dup4\n    /* \"#utility.yul\":10769:10786   */\n  add\n    /* \"#utility.yul\":10760:10766   */\n  dup5\n    /* \"#utility.yul\":10716:10787   */\n  tag_79\n  jump\t// in\ntag_210:\n    /* \"#utility.yul\":10572:10794   */\n  swap3\n  swap2\n  pop\n  pop\n  jump\t// out\n    /* \"contracts/FCODE_flattened.sol\":24932:25609  contract FCODE is ERC20, Ownable {... */\ntag_26:\n  dataSize(sub_0)\n  dup1\n  dataOffset(sub_0)\n  0x00\n  codecopy\n  0x00\n  return\nstop\n\nsub_0: assembly {\n        /* \"contracts/FCODE_flattened.sol\":24932:25609  contract FCODE is ERC20, Ownable {... */\n      mstore(0x40, 0x80)\n      callvalue\n      dup1\n      iszero\n      tag_1\n      jumpi\n      revert(0x00, 0x00)\n    tag_1:\n      pop\n      jumpi(tag_2, lt(calldatasize, 0x04))\n      shr(0xe0, calldataload(0x00))\n      dup1\n      0x70a08231\n      gt\n      tag_19\n      jumpi\n      dup1\n      0xa9059cbb\n      gt\n      tag_20\n      jumpi\n      dup1\n      0xa9059cbb\n      eq\n      tag_15\n      jumpi\n      dup1\n      0xb69ef8a8\n      eq\n      tag_16\n      jumpi\n      dup1\n      0xdd62ed3e\n      eq\n      tag_17\n      jumpi\n      dup1\n      0xf2fde38b\n      eq\n      tag_18\n      jumpi\n      jump(tag_2)\n    tag_20:\n      dup1\n      0x70a08231\n      eq\n      tag_11\n      jumpi\n      dup1\n      0x715018a6\n      eq\n      tag_12\n      jumpi\n      dup1\n      0x8da5cb5b\n      eq\n      tag_13\n      jumpi\n      dup1\n      0x95d89b41\n      eq\n      tag_14\n      jumpi\n      jump(tag_2)\n    tag_19:\n      dup1\n      0x23b872dd\n      gt\n      tag_21\n      jumpi\n      dup1\n      0x23b872dd\n      eq\n      tag_7\n      jumpi\n      dup1\n      0x313ce567\n      eq\n      tag_8\n      jumpi\n      dup1\n      0x40c10f19\n      eq\n      tag_9\n      jumpi\n      dup1\n      0x42966c68\n      eq\n      tag_10\n      jumpi\n      jump(tag_2)\n    tag_21:\n      dup1\n      0xf714ce\n      eq\n      tag_3\n      jumpi\n      dup1\n      0x06fdde03\n      eq\n      tag_4\n      jumpi\n      dup1\n      0x095ea7b3\n      eq\n      tag_5\n      jumpi\n      dup1\n      0x18160ddd\n      eq\n      tag_6\n      jumpi\n    tag_2:\n      revert(0x00, 0x00)\n        /* \"contracts/FCODE_flattened.sol\":25345:25607  function withdraw(uint amount, address payable destAddress) public {... */\n    tag_3:\n      tag_22\n      0x04\n      dup1\n      calldatasize\n      sub\n      dup2\n      add\n      swap1\n      tag_23\n      swap2\n      swap1\n      tag_24\n      jump\t// in\n    tag_23:\n      tag_25\n      jump\t// in\n    tag_22:\n      stop\n        /* \"contracts/FCODE_flattened.sol\":12679:12768  function name() public view virtual returns (string memory) {... */\n    tag_4:\n      tag_26\n      tag_27\n      jump\t// in\n    tag_26:\n      mload(0x40)\n      tag_28\n      swap2\n      swap1\n      tag_29\n      jump\t// in\n    tag_28:\n      mload(0x40)\n      dup1\n      swap2\n      sub\n      swap1\n      return\n        /* \"contracts/FCODE_flattened.sol\":14898:15084  function approve(address spender, uint256 value) public virtual returns (bool) {... */\n    tag_5:\n      tag_30\n      0x04\n      dup1\n      calldatasize\n      sub\n      dup2\n      add\n      swap1\n      tag_31\n      swap2\n      swap1\n      tag_32\n      jump\t// in\n    tag_31:\n      tag_33\n      jump\t// in\n    tag_30:\n      mload(0x40)\n      tag_34\n      swap2\n      swap1\n      tag_35\n      jump\t// in\n    tag_34:\n      mload(0x40)\n      dup1\n      swap2\n      sub\n      swap1\n      return\n        /* \"contracts/FCODE_flattened.sol\":13749:13846  function totalSupply() public view virtual returns (uint256) {... */\n    tag_6:\n      tag_36\n      tag_37\n      jump\t// in\n    tag_36:\n      mload(0x40)\n      tag_38\n      swap2\n      swap1\n      tag_39\n      jump\t// in\n    tag_38:\n      mload(0x40)\n      dup1\n      swap2\n      sub\n      swap1\n      return\n        /* \"contracts/FCODE_flattened.sol\":15676:15920  function transferFrom(address from, address to, uint256 value) public virtual returns (bool) {... */\n    tag_7:\n      tag_40\n      0x04\n      dup1\n      calldatasize\n      sub\n      dup2\n      add\n      swap1\n      tag_41\n      swap2\n      swap1\n      tag_42\n      jump\t// in\n    tag_41:\n      tag_43\n      jump\t// in\n    tag_40:\n      mload(0x40)\n      tag_44\n      swap2\n      swap1\n      tag_35\n      jump\t// in\n    tag_44:\n      mload(0x40)\n      dup1\n      swap2\n      sub\n      swap1\n      return\n        /* \"contracts/FCODE_flattened.sol\":13607:13689  function decimals() public view virtual returns (uint8) {... */\n    tag_8:\n      tag_45\n      tag_46\n      jump\t// in\n    tag_45:\n      mload(0x40)\n      tag_47\n      swap2\n      swap1\n      tag_48\n      jump\t// in\n    tag_47:\n      mload(0x40)\n      dup1\n      swap2\n      sub\n      swap1\n      return\n        /* \"contracts/FCODE_flattened.sol\":25157:25250  function mint(address to, uint256 amount) public onlyOwner {... */\n    tag_9:\n      tag_49\n      0x04\n      dup1\n      calldatasize\n      sub\n      dup2\n      add\n      swap1\n      tag_50\n      swap2\n      swap1\n      tag_32\n      jump\t// in\n    tag_50:\n      tag_51\n      jump\t// in\n    tag_49:\n      stop\n        /* \"contracts/FCODE_flattened.sol\":25260:25339  function burn(uint256 amount) public {... */\n    tag_10:\n      tag_52\n      0x04\n      dup1\n      calldatasize\n      sub\n      dup2\n      add\n      swap1\n      tag_53\n      swap2\n      swap1\n      tag_54\n      jump\t// in\n    tag_53:\n      tag_55\n      jump\t// in\n    tag_52:\n      stop\n        /* \"contracts/FCODE_flattened.sol\":13904:14020  function balanceOf(address account) public view virtual returns (uint256) {... */\n    tag_11:\n      tag_56\n      0x04\n      dup1\n      calldatasize\n      sub\n      dup2\n      add\n      swap1\n      tag_57\n      swap2\n      swap1\n      tag_58\n      jump\t// in\n    tag_57:\n      tag_59\n      jump\t// in\n    tag_56:\n      mload(0x40)\n      tag_60\n      swap2\n      swap1\n      tag_39\n      jump\t// in\n    tag_60:\n      mload(0x40)\n      dup1\n      swap2\n      sub\n      swap1\n      return\n        /* \"contracts/FCODE_flattened.sol\":24064:24165  function renounceOwnership() public virtual onlyOwner {... */\n    tag_12:\n      tag_61\n      tag_62\n      jump\t// in\n    tag_61:\n      stop\n        /* \"contracts/FCODE_flattened.sol\":23409:23494  function owner() public view virtual returns (address) {... */\n    tag_13:\n      tag_63\n      tag_64\n      jump\t// in\n    tag_63:\n      mload(0x40)\n      tag_65\n      swap2\n      swap1\n      tag_66\n      jump\t// in\n    tag_65:\n      mload(0x40)\n      dup1\n      swap2\n      sub\n      swap1\n      return\n        /* \"contracts/FCODE_flattened.sol\":12881:12974  function symbol() public view virtual returns (string memory) {... */\n    tag_14:\n      tag_67\n      tag_68\n      jump\t// in\n    tag_67:\n      mload(0x40)\n      tag_69\n      swap2\n      swap1\n      tag_29\n      jump\t// in\n    tag_69:\n      mload(0x40)\n      dup1\n      swap2\n      sub\n      swap1\n      return\n        /* \"contracts/FCODE_flattened.sol\":14215:14393  function transfer(address to, uint256 value) public virtual returns (bool) {... */\n    tag_15:\n      tag_70\n      0x04\n      dup1\n      calldatasize\n      sub\n      dup2\n      add\n      swap1\n      tag_71\n      swap2\n      swap1\n      tag_32\n      jump\t// in\n    tag_71:\n      tag_72\n      jump\t// in\n    tag_70:\n      mload(0x40)\n      tag_73\n      swap2\n      swap1\n      tag_35\n      jump\t// in\n    tag_73:\n      mload(0x40)\n      dup1\n      swap2\n      sub\n      swap1\n      return\n        /* \"contracts/FCODE_flattened.sol\":24971:24993  uint256 public balance */\n    tag_16:\n      tag_74\n      tag_75\n      jump\t// in\n    tag_74:\n      mload(0x40)\n      tag_76\n      swap2\n      swap1\n      tag_39\n      jump\t// in\n    tag_76:\n      mload(0x40)\n      dup1\n      swap2\n      sub\n      swap1\n      return\n        /* \"contracts/FCODE_flattened.sol\":14451:14591  function allowance(address owner, address spender) public view virtual returns (uint256) {... */\n    tag_17:\n      tag_77\n      0x04\n      dup1\n      calldatasize\n      sub\n      dup2\n      add\n      swap1\n      tag_78\n      swap2\n      swap1\n      tag_79\n      jump\t// in\n    tag_78:\n      tag_80\n      jump\t// in\n    tag_77:\n      mload(0x40)\n      tag_81\n      swap2\n      swap1\n      tag_39\n      jump\t// in\n    tag_81:\n      mload(0x40)\n      dup1\n      swap2\n      sub\n      swap1\n      return\n        /* \"contracts/FCODE_flattened.sol\":24314:24529  function transferOwnership(address newOwner) public virtual onlyOwner {... */\n    tag_18:\n      tag_82\n      0x04\n      dup1\n      calldatasize\n      sub\n      dup2\n      add\n      swap1\n      tag_83\n      swap2\n      swap1\n      tag_58\n      jump\t// in\n    tag_83:\n      tag_84\n      jump\t// in\n    tag_82:\n      stop\n        /* \"contracts/FCODE_flattened.sol\":25345:25607  function withdraw(uint amount, address payable destAddress) public {... */\n    tag_25:\n        /* \"contracts/FCODE_flattened.sol\":25442:25449  owner() */\n      tag_86\n        /* \"contracts/FCODE_flattened.sol\":25442:25447  owner */\n      tag_64\n        /* \"contracts/FCODE_flattened.sol\":25442:25449  owner() */\n      jump\t// in\n    tag_86:\n        /* \"contracts/FCODE_flattened.sol\":25430:25449  msg.sender==owner() */\n      0xffffffffffffffffffffffffffffffffffffffff\n      and\n        /* \"contracts/FCODE_flattened.sol\":25430:25440  msg.sender */\n      caller\n        /* \"contracts/FCODE_flattened.sol\":25430:25449  msg.sender==owner() */\n      0xffffffffffffffffffffffffffffffffffffffff\n      and\n      eq\n        /* \"contracts/FCODE_flattened.sol\":25422:25478  require(msg.sender==owner(), \"Only owner can withdraw.\") */\n      tag_87\n      jumpi\n      mload(0x40)\n      0x08c379a000000000000000000000000000000000000000000000000000000000\n      dup2\n      mstore\n      0x04\n      add\n      tag_88\n      swap1\n      tag_89\n      jump\t// in\n    tag_88:\n      mload(0x40)\n      dup1\n      swap2\n      sub\n      swap1\n      revert\n    tag_87:\n        /* \"contracts/FCODE_flattened.sol\":25506:25513  balance */\n      sload(0x06)\n        /* \"contracts/FCODE_flattened.sol\":25496:25502  amount */\n      dup3\n        /* \"contracts/FCODE_flattened.sol\":25496:25513  amount <= balance */\n      gt\n      iszero\n        /* \"contracts/FCODE_flattened.sol\":25488:25537  require(amount <= balance, \"Insufficient funds.\") */\n      tag_90\n      jumpi\n      mload(0x40)\n      0x08c379a000000000000000000000000000000000000000000000000000000000\n      dup2\n      mstore\n      0x04\n      add\n      tag_91\n      swap1\n      tag_92\n      jump\t// in\n    tag_91:\n      mload(0x40)\n      dup1\n      swap2\n      sub\n      swap1\n      revert\n    tag_90:\n        /* \"contracts/FCODE_flattened.sol\":25547:25558  destAddress */\n      dup1\n        /* \"contracts/FCODE_flattened.sol\":25547:25567  destAddress.transfer */\n      0xffffffffffffffffffffffffffffffffffffffff\n      and\n        /* \"contracts/FCODE_flattened.sol\":25547:25575  destAddress.transfer(amount) */\n      0x08fc\n        /* \"contracts/FCODE_flattened.sol\":25568:25574  amount */\n      dup4\n        /* \"contracts/FCODE_flattened.sol\":25547:25575  destAddress.transfer(amount) */\n      swap1\n      dup2\n      iszero\n      mul\n      swap1\n      mload(0x40)\n      0x00\n      mload(0x40)\n      dup1\n      dup4\n      sub\n      dup2\n      dup6\n      dup9\n      dup9\n      call\n      swap4\n      pop\n      pop\n      pop\n      pop\n      iszero\n      dup1\n      iszero\n      tag_94\n      jumpi\n      returndatacopy(0x00, 0x00, returndatasize)\n      revert(0x00, returndatasize)\n    tag_94:\n      pop\n        /* \"contracts/FCODE_flattened.sol\":25594:25600  amount */\n      dup2\n        /* \"contracts/FCODE_flattened.sol\":25585:25592  balance */\n      0x06\n      0x00\n        /* \"contracts/FCODE_flattened.sol\":25585:25600  balance-=amount */\n      dup3\n      dup3\n      sload\n      tag_95\n      swap2\n      swap1\n      tag_96\n      jump\t// in\n    tag_95:\n      swap3\n      pop\n      pop\n      dup2\n      swap1\n      sstore\n      pop\n        /* \"contracts/FCODE_flattened.sol\":25345:25607  function withdraw(uint amount, address payable destAddress) public {... */\n      pop\n      pop\n      jump\t// out\n        /* \"contracts/FCODE_flattened.sol\":12679:12768  function name() public view virtual returns (string memory) {... */\n    tag_27:\n        /* \"contracts/FCODE_flattened.sol\":12724:12737  string memory */\n      0x60\n        /* \"contracts/FCODE_flattened.sol\":12756:12761  _name */\n      0x03\n        /* \"contracts/FCODE_flattened.sol\":12749:12761  return _name */\n      dup1\n      sload\n      tag_98\n      swap1\n      tag_99\n      jump\t// in\n    tag_98:\n      dup1\n      0x1f\n      add\n      0x20\n      dup1\n      swap2\n      div\n      mul\n      0x20\n      add\n      mload(0x40)\n      swap1\n      dup2\n      add\n      0x40\n      mstore\n      dup1\n      swap3\n      swap2\n      swap1\n      dup2\n      dup2\n      mstore\n      0x20\n      add\n      dup3\n      dup1\n      sload\n      tag_100\n      swap1\n      tag_99\n      jump\t// in\n    tag_100:\n      dup1\n      iszero\n      tag_101\n      jumpi\n      dup1\n      0x1f\n      lt\n      tag_102\n      jumpi\n      0x0100\n      dup1\n      dup4\n      sload\n      div\n      mul\n      dup4\n      mstore\n      swap2\n      0x20\n      add\n      swap2\n      jump(tag_101)\n    tag_102:\n      dup3\n      add\n      swap2\n      swap1\n      0x00\n      mstore\n      keccak256(0x00, 0x20)\n      swap1\n    tag_103:\n      dup2\n      sload\n      dup2\n      mstore\n      swap1\n      0x01\n      add\n      swap1\n      0x20\n      add\n      dup1\n      dup4\n      gt\n      tag_103\n      jumpi\n      dup3\n      swap1\n      sub\n      0x1f\n      and\n      dup3\n      add\n      swap2\n    tag_101:\n      pop\n      pop\n      pop\n      pop\n      pop\n      swap1\n      pop\n        /* \"contracts/FCODE_flattened.sol\":12679:12768  function name() public view virtual returns (string memory) {... */\n      swap1\n      jump\t// out\n        /* \"contracts/FCODE_flattened.sol\":14898:15084  function approve(address spender, uint256 value) public virtual returns (bool) {... */\n    tag_33:\n        /* \"contracts/FCODE_flattened.sol\":14971:14975  bool */\n      0x00\n        /* \"contracts/FCODE_flattened.sol\":14987:15000  address owner */\n      0x00\n        /* \"contracts/FCODE_flattened.sol\":15003:15015  _msgSender() */\n      tag_105\n        /* \"contracts/FCODE_flattened.sol\":15003:15013  _msgSender */\n      tag_106\n        /* \"contracts/FCODE_flattened.sol\":15003:15015  _msgSender() */\n      jump\t// in\n    tag_105:\n        /* \"contracts/FCODE_flattened.sol\":14987:15015  address owner = _msgSender() */\n      swap1\n      pop\n        /* \"contracts/FCODE_flattened.sol\":15025:15056  _approve(owner, spender, value) */\n      tag_107\n        /* \"contracts/FCODE_flattened.sol\":15034:15039  owner */\n      dup2\n        /* \"contracts/FCODE_flattened.sol\":15041:15048  spender */\n      dup6\n        /* \"contracts/FCODE_flattened.sol\":15050:15055  value */\n      dup6\n        /* \"contracts/FCODE_flattened.sol\":15025:15033  _approve */\n      tag_108\n        /* \"contracts/FCODE_flattened.sol\":15025:15056  _approve(owner, spender, value) */\n      jump\t// in\n    tag_107:\n        /* \"contracts/FCODE_flattened.sol\":15073:15077  true */\n      0x01\n        /* \"contracts/FCODE_flattened.sol\":15066:15077  return true */\n      swap2\n      pop\n      pop\n        /* \"contracts/FCODE_flattened.sol\":14898:15084  function approve(address spender, uint256 value) public virtual returns (bool) {... */\n      swap3\n      swap2\n      pop\n      pop\n      jump\t// out\n        /* \"contracts/FCODE_flattened.sol\":13749:13846  function totalSupply() public view virtual returns (uint256) {... */\n    tag_37:\n        /* \"contracts/FCODE_flattened.sol\":13801:13808  uint256 */\n      0x00\n        /* \"contracts/FCODE_flattened.sol\":13827:13839  _totalSupply */\n      sload(0x02)\n        /* \"contracts/FCODE_flattened.sol\":13820:13839  return _totalSupply */\n      swap1\n      pop\n        /* \"contracts/FCODE_flattened.sol\":13749:13846  function totalSupply() public view virtual returns (uint256) {... */\n      swap1\n      jump\t// out\n        /* \"contracts/FCODE_flattened.sol\":15676:15920  function transferFrom(address from, address to, uint256 value) public virtual returns (bool) {... */\n    tag_43:\n        /* \"contracts/FCODE_flattened.sol\":15763:15767  bool */\n      0x00\n        /* \"contracts/FCODE_flattened.sol\":15779:15794  address spender */\n      0x00\n        /* \"contracts/FCODE_flattened.sol\":15797:15809  _msgSender() */\n      tag_111\n        /* \"contracts/FCODE_flattened.sol\":15797:15807  _msgSender */\n      tag_106\n        /* \"contracts/FCODE_flattened.sol\":15797:15809  _msgSender() */\n      jump\t// in\n    tag_111:\n        /* \"contracts/FCODE_flattened.sol\":15779:15809  address spender = _msgSender() */\n      swap1\n      pop\n        /* \"contracts/FCODE_flattened.sol\":15819:15856  _spendAllowance(from, spender, value) */\n      tag_112\n        /* \"contracts/FCODE_flattened.sol\":15835:15839  from */\n      dup6\n        /* \"contracts/FCODE_flattened.sol\":15841:15848  spender */\n      dup3\n        /* \"contracts/FCODE_flattened.sol\":15850:15855  value */\n      dup6\n        /* \"contracts/FCODE_flattened.sol\":15819:15834  _spendAllowance */\n      tag_113\n        /* \"contracts/FCODE_flattened.sol\":15819:15856  _spendAllowance(from, spender, value) */\n      jump\t// in\n    tag_112:\n        /* \"contracts/FCODE_flattened.sol\":15866:15892  _transfer(from, to, value) */\n      tag_114\n        /* \"contracts/FCODE_flattened.sol\":15876:15880  from */\n      dup6\n        /* \"contracts/FCODE_flattened.sol\":15882:15884  to */\n      dup6\n        /* \"contracts/FCODE_flattened.sol\":15886:15891  value */\n      dup6\n        /* \"contracts/FCODE_flattened.sol\":15866:15875  _transfer */\n      tag_115\n        /* \"contracts/FCODE_flattened.sol\":15866:15892  _transfer(from, to, value) */\n      jump\t// in\n    tag_114:\n        /* \"contracts/FCODE_flattened.sol\":15909:15913  true */\n      0x01\n        /* \"contracts/FCODE_flattened.sol\":15902:15913  return true */\n      swap2\n      pop\n      pop\n        /* \"contracts/FCODE_flattened.sol\":15676:15920  function transferFrom(address from, address to, uint256 value) public virtual returns (bool) {... */\n      swap4\n      swap3\n      pop\n      pop\n      pop\n      jump\t// out\n        /* \"contracts/FCODE_flattened.sol\":13607:13689  function decimals() public view virtual returns (uint8) {... */\n    tag_46:\n        /* \"contracts/FCODE_flattened.sol\":13656:13661  uint8 */\n      0x00\n        /* \"contracts/FCODE_flattened.sol\":13680:13682  18 */\n      0x12\n        /* \"contracts/FCODE_flattened.sol\":13673:13682  return 18 */\n      swap1\n      pop\n        /* \"contracts/FCODE_flattened.sol\":13607:13689  function decimals() public view virtual returns (uint8) {... */\n      swap1\n      jump\t// out\n        /* \"contracts/FCODE_flattened.sol\":25157:25250  function mint(address to, uint256 amount) public onlyOwner {... */\n    tag_51:\n        /* \"contracts/FCODE_flattened.sol\":23302:23315  _checkOwner() */\n      tag_118\n        /* \"contracts/FCODE_flattened.sol\":23302:23313  _checkOwner */\n      tag_119\n        /* \"contracts/FCODE_flattened.sol\":23302:23315  _checkOwner() */\n      jump\t// in\n    tag_118:\n        /* \"contracts/FCODE_flattened.sol\":25226:25243  _mint(to, amount) */\n      tag_121\n        /* \"contracts/FCODE_flattened.sol\":25232:25234  to */\n      dup3\n        /* \"contracts/FCODE_flattened.sol\":25236:25242  amount */\n      dup3\n        /* \"contracts/FCODE_flattened.sol\":25226:25231  _mint */\n      tag_122\n        /* \"contracts/FCODE_flattened.sol\":25226:25243  _mint(to, amount) */\n      jump\t// in\n    tag_121:\n        /* \"contracts/FCODE_flattened.sol\":25157:25250  function mint(address to, uint256 amount) public onlyOwner {... */\n      pop\n      pop\n      jump\t// out\n        /* \"contracts/FCODE_flattened.sol\":25260:25339  function burn(uint256 amount) public {... */\n    tag_55:\n        /* \"contracts/FCODE_flattened.sol\":25307:25332  _burn(msg.sender, amount) */\n      tag_124\n        /* \"contracts/FCODE_flattened.sol\":25313:25323  msg.sender */\n      caller\n        /* \"contracts/FCODE_flattened.sol\":25325:25331  amount */\n      dup3\n        /* \"contracts/FCODE_flattened.sol\":25307:25312  _burn */\n      tag_125\n        /* \"contracts/FCODE_flattened.sol\":25307:25332  _burn(msg.sender, amount) */\n      jump\t// in\n    tag_124:\n        /* \"contracts/FCODE_flattened.sol\":25260:25339  function burn(uint256 amount) public {... */\n      pop\n      jump\t// out\n        /* \"contracts/FCODE_flattened.sol\":13904:14020  function balanceOf(address account) public view virtual returns (uint256) {... */\n    tag_59:\n        /* \"contracts/FCODE_flattened.sol\":13969:13976  uint256 */\n      0x00\n        /* \"contracts/FCODE_flattened.sol\":13995:14004  _balances */\n      0x00\n        /* \"contracts/FCODE_flattened.sol\":13995:14013  _balances[account] */\n      0x00\n        /* \"contracts/FCODE_flattened.sol\":14005:14012  account */\n      dup4\n        /* \"contracts/FCODE_flattened.sol\":13995:14013  _balances[account] */\n      0xffffffffffffffffffffffffffffffffffffffff\n      and\n      0xffffffffffffffffffffffffffffffffffffffff\n      and\n      dup2\n      mstore\n      0x20\n      add\n      swap1\n      dup2\n      mstore\n      0x20\n      add\n      0x00\n      keccak256\n      sload\n        /* \"contracts/FCODE_flattened.sol\":13988:14013  return _balances[account] */\n      swap1\n      pop\n        /* \"contracts/FCODE_flattened.sol\":13904:14020  function balanceOf(address account) public view virtual returns (uint256) {... */\n      swap2\n      swap1\n      pop\n      jump\t// out\n        /* \"contracts/FCODE_flattened.sol\":24064:24165  function renounceOwnership() public virtual onlyOwner {... */\n    tag_62:\n        /* \"contracts/FCODE_flattened.sol\":23302:23315  _checkOwner() */\n      tag_128\n        /* \"contracts/FCODE_flattened.sol\":23302:23313  _checkOwner */\n      tag_119\n        /* \"contracts/FCODE_flattened.sol\":23302:23315  _checkOwner() */\n      jump\t// in\n    tag_128:\n        /* \"contracts/FCODE_flattened.sol\":24128:24158  _transferOwnership(address(0)) */\n      tag_130\n        /* \"contracts/FCODE_flattened.sol\":24155:24156  0 */\n      0x00\n        /* \"contracts/FCODE_flattened.sol\":24128:24146  _transferOwnership */\n      tag_131\n        /* \"contracts/FCODE_flattened.sol\":24128:24158  _transferOwnership(address(0)) */\n      jump\t// in\n    tag_130:\n        /* \"contracts/FCODE_flattened.sol\":24064:24165  function renounceOwnership() public virtual onlyOwner {... */\n      jump\t// out\n        /* \"contracts/FCODE_flattened.sol\":23409:23494  function owner() public view virtual returns (address) {... */\n    tag_64:\n        /* \"contracts/FCODE_flattened.sol\":23455:23462  address */\n      0x00\n        /* \"contracts/FCODE_flattened.sol\":23481:23487  _owner */\n      0x05\n      0x00\n      swap1\n      sload\n      swap1\n      0x0100\n      exp\n      swap1\n      div\n      0xffffffffffffffffffffffffffffffffffffffff\n      and\n        /* \"contracts/FCODE_flattened.sol\":23474:23487  return _owner */\n      swap1\n      pop\n        /* \"contracts/FCODE_flattened.sol\":23409:23494  function owner() public view virtual returns (address) {... */\n      swap1\n      jump\t// out\n        /* \"contracts/FCODE_flattened.sol\":12881:12974  function symbol() public view virtual returns (string memory) {... */\n    tag_68:\n        /* \"contracts/FCODE_flattened.sol\":12928:12941  string memory */\n      0x60\n        /* \"contracts/FCODE_flattened.sol\":12960:12967  _symbol */\n      0x04\n        /* \"contracts/FCODE_flattened.sol\":12953:12967  return _symbol */\n      dup1\n      sload\n      tag_134\n      swap1\n      tag_99\n      jump\t// in\n    tag_134:\n      dup1\n      0x1f\n      add\n      0x20\n      dup1\n      swap2\n      div\n      mul\n      0x20\n      add\n      mload(0x40)\n      swap1\n      dup2\n      add\n      0x40\n      mstore\n      dup1\n      swap3\n      swap2\n      swap1\n      dup2\n      dup2\n      mstore\n      0x20\n      add\n      dup3\n      dup1\n      sload\n      tag_135\n      swap1\n      tag_99\n      jump\t// in\n    tag_135:\n      dup1\n      iszero\n      tag_136\n      jumpi\n      dup1\n      0x1f\n      lt\n      tag_137\n      jumpi\n      0x0100\n      dup1\n      dup4\n      sload\n      div\n      mul\n      dup4\n      mstore\n      swap2\n      0x20\n      add\n      swap2\n      jump(tag_136)\n    tag_137:\n      dup3\n      add\n      swap2\n      swap1\n      0x00\n      mstore\n      keccak256(0x00, 0x20)\n      swap1\n    tag_138:\n      dup2\n      sload\n      dup2\n      mstore\n      swap1\n      0x01\n      add\n      swap1\n      0x20\n      add\n      dup1\n      dup4\n      gt\n      tag_138\n      jumpi\n      dup3\n      swap1\n      sub\n      0x1f\n      and\n      dup3\n      add\n      swap2\n    tag_136:\n      pop\n      pop\n      pop\n      pop\n      pop\n      swap1\n      pop\n        /* \"contracts/FCODE_flattened.sol\":12881:12974  function symbol() public view virtual returns (string memory) {... */\n      swap1\n      jump\t// out\n        /* \"contracts/FCODE_flattened.sol\":14215:14393  function transfer(address to, uint256 value) public virtual returns (bool) {... */\n    tag_72:\n        /* \"contracts/FCODE_flattened.sol\":14284:14288  bool */\n      0x00\n        /* \"contracts/FCODE_flattened.sol\":14300:14313  address owner */\n      0x00\n        /* \"contracts/FCODE_flattened.sol\":14316:14328  _msgSender() */\n      tag_140\n        /* \"contracts/FCODE_flattened.sol\":14316:14326  _msgSender */\n      tag_106\n        /* \"contracts/FCODE_flattened.sol\":14316:14328  _msgSender() */\n      jump\t// in\n    tag_140:\n        /* \"contracts/FCODE_flattened.sol\":14300:14328  address owner = _msgSender() */\n      swap1\n      pop\n        /* \"contracts/FCODE_flattened.sol\":14338:14365  _transfer(owner, to, value) */\n      tag_141\n        /* \"contracts/FCODE_flattened.sol\":14348:14353  owner */\n      dup2\n        /* \"contracts/FCODE_flattened.sol\":14355:14357  to */\n      dup6\n        /* \"contracts/FCODE_flattened.sol\":14359:14364  value */\n      dup6\n        /* \"contracts/FCODE_flattened.sol\":14338:14347  _transfer */\n      tag_115\n        /* \"contracts/FCODE_flattened.sol\":14338:14365  _transfer(owner, to, value) */\n      jump\t// in\n    tag_141:\n        /* \"contracts/FCODE_flattened.sol\":14382:14386  true */\n      0x01\n        /* \"contracts/FCODE_flattened.sol\":14375:14386  return true */\n      swap2\n      pop\n      pop\n        /* \"contracts/FCODE_flattened.sol\":14215:14393  function transfer(address to, uint256 value) public virtual returns (bool) {... */\n      swap3\n      swap2\n      pop\n      pop\n      jump\t// out\n        /* \"contracts/FCODE_flattened.sol\":24971:24993  uint256 public balance */\n    tag_75:\n      sload(0x06)\n      dup2\n      jump\t// out\n        /* \"contracts/FCODE_flattened.sol\":14451:14591  function allowance(address owner, address spender) public view virtual returns (uint256) {... */\n    tag_80:\n        /* \"contracts/FCODE_flattened.sol\":14531:14538  uint256 */\n      0x00\n        /* \"contracts/FCODE_flattened.sol\":14557:14568  _allowances */\n      0x01\n        /* \"contracts/FCODE_flattened.sol\":14557:14575  _allowances[owner] */\n      0x00\n        /* \"contracts/FCODE_flattened.sol\":14569:14574  owner */\n      dup5\n        /* \"contracts/FCODE_flattened.sol\":14557:14575  _allowances[owner] */\n      0xffffffffffffffffffffffffffffffffffffffff\n      and\n      0xffffffffffffffffffffffffffffffffffffffff\n      and\n      dup2\n      mstore\n      0x20\n      add\n      swap1\n      dup2\n      mstore\n      0x20\n      add\n      0x00\n      keccak256\n        /* \"contracts/FCODE_flattened.sol\":14557:14584  _allowances[owner][spender] */\n      0x00\n        /* \"contracts/FCODE_flattened.sol\":14576:14583  spender */\n      dup4\n        /* \"contracts/FCODE_flattened.sol\":14557:14584  _allowances[owner][spender] */\n      0xffffffffffffffffffffffffffffffffffffffff\n      and\n      0xffffffffffffffffffffffffffffffffffffffff\n      and\n      dup2\n      mstore\n      0x20\n      add\n      swap1\n      dup2\n      mstore\n      0x20\n      add\n      0x00\n      keccak256\n      sload\n        /* \"contracts/FCODE_flattened.sol\":14550:14584  return _allowances[owner][spender] */\n      swap1\n      pop\n        /* \"contracts/FCODE_flattened.sol\":14451:14591  function allowance(address owner, address spender) public view virtual returns (uint256) {... */\n      swap3\n      swap2\n      pop\n      pop\n      jump\t// out\n        /* \"contracts/FCODE_flattened.sol\":24314:24529  function transferOwnership(address newOwner) public virtual onlyOwner {... */\n    tag_84:\n        /* \"contracts/FCODE_flattened.sol\":23302:23315  _checkOwner() */\n      tag_144\n        /* \"contracts/FCODE_flattened.sol\":23302:23313  _checkOwner */\n      tag_119\n        /* \"contracts/FCODE_flattened.sol\":23302:23315  _checkOwner() */\n      jump\t// in\n    tag_144:\n        /* \"contracts/FCODE_flattened.sol\":24418:24419  0 */\n      0x00\n        /* \"contracts/FCODE_flattened.sol\":24398:24420  newOwner == address(0) */\n      0xffffffffffffffffffffffffffffffffffffffff\n      and\n        /* \"contracts/FCODE_flattened.sol\":24398:24406  newOwner */\n      dup2\n        /* \"contracts/FCODE_flattened.sol\":24398:24420  newOwner == address(0) */\n      0xffffffffffffffffffffffffffffffffffffffff\n      and\n      sub\n        /* \"contracts/FCODE_flattened.sol\":24394:24485  if (newOwner == address(0)) {... */\n      tag_146\n      jumpi\n        /* \"contracts/FCODE_flattened.sol\":24471:24472  0 */\n      0x00\n        /* \"contracts/FCODE_flattened.sol\":24443:24474  OwnableInvalidOwner(address(0)) */\n      mload(0x40)\n      0x1e4fbdf700000000000000000000000000000000000000000000000000000000\n      dup2\n      mstore\n      0x04\n      add\n      tag_147\n      swap2\n      swap1\n      tag_66\n      jump\t// in\n    tag_147:\n      mload(0x40)\n      dup1\n      swap2\n      sub\n      swap1\n      revert\n        /* \"contracts/FCODE_flattened.sol\":24394:24485  if (newOwner == address(0)) {... */\n    tag_146:\n        /* \"contracts/FCODE_flattened.sol\":24494:24522  _transferOwnership(newOwner) */\n      tag_148\n        /* \"contracts/FCODE_flattened.sol\":24513:24521  newOwner */\n      dup2\n        /* \"contracts/FCODE_flattened.sol\":24494:24512  _transferOwnership */\n      tag_131\n        /* \"contracts/FCODE_flattened.sol\":24494:24522  _transferOwnership(newOwner) */\n      jump\t// in\n    tag_148:\n        /* \"contracts/FCODE_flattened.sol\":24314:24529  function transferOwnership(address newOwner) public virtual onlyOwner {... */\n      pop\n      jump\t// out\n        /* \"contracts/FCODE_flattened.sol\":4208:4304  function _msgSender() internal view virtual returns (address) {... */\n    tag_106:\n        /* \"contracts/FCODE_flattened.sol\":4261:4268  address */\n      0x00\n        /* \"contracts/FCODE_flattened.sol\":4287:4297  msg.sender */\n      caller\n        /* \"contracts/FCODE_flattened.sol\":4280:4297  return msg.sender */\n      swap1\n      pop\n        /* \"contracts/FCODE_flattened.sol\":4208:4304  function _msgSender() internal view virtual returns (address) {... */\n      swap1\n      jump\t// out\n        /* \"contracts/FCODE_flattened.sol\":19626:19754  function _approve(address owner, address spender, uint256 value) internal {... */\n    tag_108:\n        /* \"contracts/FCODE_flattened.sol\":19710:19747  _approve(owner, spender, value, true) */\n      tag_151\n        /* \"contracts/FCODE_flattened.sol\":19719:19724  owner */\n      dup4\n        /* \"contracts/FCODE_flattened.sol\":19726:19733  spender */\n      dup4\n        /* \"contracts/FCODE_flattened.sol\":19735:19740  value */\n      dup4\n        /* \"contracts/FCODE_flattened.sol\":19742:19746  true */\n      0x01\n        /* \"contracts/FCODE_flattened.sol\":19710:19718  _approve */\n      tag_152\n        /* \"contracts/FCODE_flattened.sol\":19710:19747  _approve(owner, spender, value, true) */\n      jump\t// in\n    tag_151:\n        /* \"contracts/FCODE_flattened.sol\":19626:19754  function _approve(address owner, address spender, uint256 value) internal {... */\n      pop\n      pop\n      pop\n      jump\t// out\n        /* \"contracts/FCODE_flattened.sol\":21315:21791  function _spendAllowance(address owner, address spender, uint256 value) internal virtual {... */\n    tag_113:\n        /* \"contracts/FCODE_flattened.sol\":21414:21438  uint256 currentAllowance */\n      0x00\n        /* \"contracts/FCODE_flattened.sol\":21441:21466  allowance(owner, spender) */\n      tag_154\n        /* \"contracts/FCODE_flattened.sol\":21451:21456  owner */\n      dup5\n        /* \"contracts/FCODE_flattened.sol\":21458:21465  spender */\n      dup5\n        /* \"contracts/FCODE_flattened.sol\":21441:21450  allowance */\n      tag_80\n        /* \"contracts/FCODE_flattened.sol\":21441:21466  allowance(owner, spender) */\n      jump\t// in\n    tag_154:\n        /* \"contracts/FCODE_flattened.sol\":21414:21466  uint256 currentAllowance = allowance(owner, spender) */\n      swap1\n      pop\n        /* \"contracts/FCODE_flattened.sol\":21499:21516  type(uint256).max */\n      0xffffffffffffffffffffffffffffffffffffffffffffffffffffffffffffffff\n        /* \"contracts/FCODE_flattened.sol\":21480:21496  currentAllowance */\n      dup2\n        /* \"contracts/FCODE_flattened.sol\":21480:21516  currentAllowance < type(uint256).max */\n      lt\n        /* \"contracts/FCODE_flattened.sol\":21476:21785  if (currentAllowance < type(uint256).max) {... */\n      iszero\n      tag_155\n      jumpi\n        /* \"contracts/FCODE_flattened.sol\":21555:21560  value */\n      dup2\n        /* \"contracts/FCODE_flattened.sol\":21536:21552  currentAllowance */\n      dup2\n        /* \"contracts/FCODE_flattened.sol\":21536:21560  currentAllowance < value */\n      lt\n        /* \"contracts/FCODE_flattened.sol\":21532:21662  if (currentAllowance < value) {... */\n      iszero\n      tag_156\n      jumpi\n        /* \"contracts/FCODE_flattened.sol\":21614:21621  spender */\n      dup3\n        /* \"contracts/FCODE_flattened.sol\":21623:21639  currentAllowance */\n      dup2\n        /* \"contracts/FCODE_flattened.sol\":21641:21646  value */\n      dup4\n        /* \"contracts/FCODE_flattened.sol\":21587:21647  ERC20InsufficientAllowance(spender, currentAllowance, value) */\n      mload(0x40)\n      0xfb8f41b200000000000000000000000000000000000000000000000000000000\n      dup2\n      mstore\n      0x04\n      add\n      tag_157\n      swap4\n      swap3\n      swap2\n      swap1\n      tag_158\n      jump\t// in\n    tag_157:\n      mload(0x40)\n      dup1\n      swap2\n      sub\n      swap1\n      revert\n        /* \"contracts/FCODE_flattened.sol\":21532:21662  if (currentAllowance < value) {... */\n    tag_156:\n        /* \"contracts/FCODE_flattened.sol\":21703:21760  _approve(owner, spender, currentAllowance - value, false) */\n      tag_159\n        /* \"contracts/FCODE_flattened.sol\":21712:21717  owner */\n      dup5\n        /* \"contracts/FCODE_flattened.sol\":21719:21726  spender */\n      dup5\n        /* \"contracts/FCODE_flattened.sol\":21747:21752  value */\n      dup5\n        /* \"contracts/FCODE_flattened.sol\":21728:21744  currentAllowance */\n      dup5\n        /* \"contracts/FCODE_flattened.sol\":21728:21752  currentAllowance - value */\n      sub\n        /* \"contracts/FCODE_flattened.sol\":21754:21759  false */\n      0x00\n        /* \"contracts/FCODE_flattened.sol\":21703:21711  _approve */\n      tag_152\n        /* \"contracts/FCODE_flattened.sol\":21703:21760  _approve(owner, spender, currentAllowance - value, false) */\n      jump\t// in\n    tag_159:\n        /* \"contracts/FCODE_flattened.sol\":21476:21785  if (currentAllowance < type(uint256).max) {... */\n    tag_155:\n        /* \"contracts/FCODE_flattened.sol\":21404:21791  {... */\n      pop\n        /* \"contracts/FCODE_flattened.sol\":21315:21791  function _spendAllowance(address owner, address spender, uint256 value) internal virtual {... */\n      pop\n      pop\n      pop\n      jump\t// out\n        /* \"contracts/FCODE_flattened.sol\":16293:16593  function _transfer(address from, address to, uint256 value) internal {... */\n    tag_115:\n        /* \"contracts/FCODE_flattened.sol\":16392:16393  0 */\n      0x00\n        /* \"contracts/FCODE_flattened.sol\":16376:16394  from == address(0) */\n      0xffffffffffffffffffffffffffffffffffffffff\n      and\n        /* \"contracts/FCODE_flattened.sol\":16376:16380  from */\n      dup4\n        /* \"contracts/FCODE_flattened.sol\":16376:16394  from == address(0) */\n      0xffffffffffffffffffffffffffffffffffffffff\n      and\n      sub\n        /* \"contracts/FCODE_flattened.sol\":16372:16458  if (from == address(0)) {... */\n      tag_161\n      jumpi\n        /* \"contracts/FCODE_flattened.sol\":16444:16445  0 */\n      0x00\n        /* \"contracts/FCODE_flattened.sol\":16417:16447  ERC20InvalidSender(address(0)) */\n      mload(0x40)\n      0x96c6fd1e00000000000000000000000000000000000000000000000000000000\n      dup2\n      mstore\n      0x04\n      add\n      tag_162\n      swap2\n      swap1\n      tag_66\n      jump\t// in\n    tag_162:\n      mload(0x40)\n      dup1\n      swap2\n      sub\n      swap1\n      revert\n        /* \"contracts/FCODE_flattened.sol\":16372:16458  if (from == address(0)) {... */\n    tag_161:\n        /* \"contracts/FCODE_flattened.sol\":16485:16486  0 */\n      0x00\n        /* \"contracts/FCODE_flattened.sol\":16471:16487  to == address(0) */\n      0xffffffffffffffffffffffffffffffffffffffff\n      and\n        /* \"contracts/FCODE_flattened.sol\":16471:16473  to */\n      dup3\n        /* \"contracts/FCODE_flattened.sol\":16471:16487  to == address(0) */\n      0xffffffffffffffffffffffffffffffffffffffff\n      and\n      sub\n        /* \"contracts/FCODE_flattened.sol\":16467:16553  if (to == address(0)) {... */\n      tag_163\n      jumpi\n        /* \"contracts/FCODE_flattened.sol\":16539:16540  0 */\n      0x00\n        /* \"contracts/FCODE_flattened.sol\":16510:16542  ERC20InvalidReceiver(address(0)) */\n      mload(0x40)\n      0xec442f0500000000000000000000000000000000000000000000000000000000\n      dup2\n      mstore\n      0x04\n      add\n      tag_164\n      swap2\n      swap1\n      tag_66\n      jump\t// in\n    tag_164:\n      mload(0x40)\n      dup1\n      swap2\n      sub\n      swap1\n      revert\n        /* \"contracts/FCODE_flattened.sol\":16467:16553  if (to == address(0)) {... */\n    tag_163:\n        /* \"contracts/FCODE_flattened.sol\":16562:16586  _update(from, to, value) */\n      tag_165\n        /* \"contracts/FCODE_flattened.sol\":16570:16574  from */\n      dup4\n        /* \"contracts/FCODE_flattened.sol\":16576:16578  to */\n      dup4\n        /* \"contracts/FCODE_flattened.sol\":16580:16585  value */\n      dup4\n        /* \"contracts/FCODE_flattened.sol\":16562:16569  _update */\n      tag_166\n        /* \"contracts/FCODE_flattened.sol\":16562:16586  _update(from, to, value) */\n      jump\t// in\n    tag_165:\n        /* \"contracts/FCODE_flattened.sol\":16293:16593  function _transfer(address from, address to, uint256 value) internal {... */\n      pop\n      pop\n      pop\n      jump\t// out\n        /* \"contracts/FCODE_flattened.sol\":23567:23729  function _checkOwner() internal view virtual {... */\n    tag_119:\n        /* \"contracts/FCODE_flattened.sol\":23637:23649  _msgSender() */\n      tag_168\n        /* \"contracts/FCODE_flattened.sol\":23637:23647  _msgSender */\n      tag_106\n        /* \"contracts/FCODE_flattened.sol\":23637:23649  _msgSender() */\n      jump\t// in\n    tag_168:\n        /* \"contracts/FCODE_flattened.sol\":23626:23649  owner() != _msgSender() */\n      0xffffffffffffffffffffffffffffffffffffffff\n      and\n        /* \"contracts/FCODE_flattened.sol\":23626:23633  owner() */\n      tag_169\n        /* \"contracts/FCODE_flattened.sol\":23626:23631  owner */\n      tag_64\n        /* \"contracts/FCODE_flattened.sol\":23626:23633  owner() */\n      jump\t// in\n    tag_169:\n        /* \"contracts/FCODE_flattened.sol\":23626:23649  owner() != _msgSender() */\n      0xffffffffffffffffffffffffffffffffffffffff\n      and\n      eq\n        /* \"contracts/FCODE_flattened.sol\":23622:23723  if (owner() != _msgSender()) {... */\n      tag_170\n      jumpi\n        /* \"contracts/FCODE_flattened.sol\":23699:23711  _msgSender() */\n      tag_171\n        /* \"contracts/FCODE_flattened.sol\":23699:23709  _msgSender */\n      tag_106\n        /* \"contracts/FCODE_flattened.sol\":23699:23711  _msgSender() */\n      jump\t// in\n    tag_171:\n        /* \"contracts/FCODE_flattened.sol\":23672:23712  OwnableUnauthorizedAccount(_msgSender()) */\n      mload(0x40)\n      0x118cdaa700000000000000000000000000000000000000000000000000000000\n      dup2\n      mstore\n      0x04\n      add\n      tag_172\n      swap2\n      swap1\n      tag_66\n      jump\t// in\n    tag_172:\n      mload(0x40)\n      dup1\n      swap2\n      sub\n      swap1\n      revert\n        /* \"contracts/FCODE_flattened.sol\":23622:23723  if (owner() != _msgSender()) {... */\n    tag_170:\n        /* \"contracts/FCODE_flattened.sol\":23567:23729  function _checkOwner() internal view virtual {... */\n      jump\t// out\n        /* \"contracts/FCODE_flattened.sol\":18358:18566  function _mint(address account, uint256 value) internal {... */\n    tag_122:\n        /* \"contracts/FCODE_flattened.sol\":18447:18448  0 */\n      0x00\n        /* \"contracts/FCODE_flattened.sol\":18428:18449  account == address(0) */\n      0xffffffffffffffffffffffffffffffffffffffff\n      and\n        /* \"contracts/FCODE_flattened.sol\":18428:18435  account */\n      dup3\n        /* \"contracts/FCODE_flattened.sol\":18428:18449  account == address(0) */\n      0xffffffffffffffffffffffffffffffffffffffff\n      and\n      sub\n        /* \"contracts/FCODE_flattened.sol\":18424:18515  if (account == address(0)) {... */\n      tag_174\n      jumpi\n        /* \"contracts/FCODE_flattened.sol\":18501:18502  0 */\n      0x00\n        /* \"contracts/FCODE_flattened.sol\":18472:18504  ERC20InvalidReceiver(address(0)) */\n      mload(0x40)\n      0xec442f0500000000000000000000000000000000000000000000000000000000\n      dup2\n      mstore\n      0x04\n      add\n      tag_175\n      swap2\n      swap1\n      tag_66\n      jump\t// in\n    tag_175:\n      mload(0x40)\n      dup1\n      swap2\n      sub\n      swap1\n      revert\n        /* \"contracts/FCODE_flattened.sol\":18424:18515  if (account == address(0)) {... */\n    tag_174:\n        /* \"contracts/FCODE_flattened.sol\":18524:18559  _update(address(0), account, value) */\n      tag_176\n        /* \"contracts/FCODE_flattened.sol\":18540:18541  0 */\n      0x00\n        /* \"contracts/FCODE_flattened.sol\":18544:18551  account */\n      dup4\n        /* \"contracts/FCODE_flattened.sol\":18553:18558  value */\n      dup4\n        /* \"contracts/FCODE_flattened.sol\":18524:18531  _update */\n      tag_166\n        /* \"contracts/FCODE_flattened.sol\":18524:18559  _update(address(0), account, value) */\n      jump\t// in\n    tag_176:\n        /* \"contracts/FCODE_flattened.sol\":18358:18566  function _mint(address account, uint256 value) internal {... */\n      pop\n      pop\n      jump\t// out\n        /* \"contracts/FCODE_flattened.sol\":18884:19090  function _burn(address account, uint256 value) internal {... */\n    tag_125:\n        /* \"contracts/FCODE_flattened.sol\":18973:18974  0 */\n      0x00\n        /* \"contracts/FCODE_flattened.sol\":18954:18975  account == address(0) */\n      0xffffffffffffffffffffffffffffffffffffffff\n      and\n        /* \"contracts/FCODE_flattened.sol\":18954:18961  account */\n      dup3\n        /* \"contracts/FCODE_flattened.sol\":18954:18975  account == address(0) */\n      0xffffffffffffffffffffffffffffffffffffffff\n      and\n      sub\n        /* \"contracts/FCODE_flattened.sol\":18950:19039  if (account == address(0)) {... */\n      tag_178\n      jumpi\n        /* \"contracts/FCODE_flattened.sol\":19025:19026  0 */\n      0x00\n        /* \"contracts/FCODE_flattened.sol\":18998:19028  ERC20InvalidSender(address(0)) */\n      mload(0x40)\n      0x96c6fd1e00000000000000000000000000000000000000000000000000000000\n      dup2\n      mstore\n      0x04\n      add\n      tag_179\n      swap2\n      swap1\n      tag_66\n      jump\t// in\n    tag_179:\n      mload(0x40)\n      dup1\n      swap2\n      sub\n      swap1\n      revert\n        /* \"contracts/FCODE_flattened.sol\":18950:19039  if (account == address(0)) {... */\n    tag_178:\n        /* \"contracts/FCODE_flattened.sol\":19048:19083  _update(account, address(0), value) */\n      tag_180\n        /* \"contracts/FCODE_flattened.sol\":19056:19063  account */\n      dup3\n        /* \"contracts/FCODE_flattened.sol\":19073:19074  0 */\n      0x00\n        /* \"contracts/FCODE_flattened.sol\":19077:19082  value */\n      dup4\n        /* \"contracts/FCODE_flattened.sol\":19048:19055  _update */\n      tag_166\n        /* \"contracts/FCODE_flattened.sol\":19048:19083  _update(account, address(0), value) */\n      jump\t// in\n    tag_180:\n        /* \"contracts/FCODE_flattened.sol\":18884:19090  function _burn(address account, uint256 value) internal {... */\n      pop\n      pop\n      jump\t// out\n        /* \"contracts/FCODE_flattened.sol\":24683:24870  function _transferOwnership(address newOwner) internal virtual {... */\n    tag_131:\n        /* \"contracts/FCODE_flattened.sol\":24756:24772  address oldOwner */\n      0x00\n        /* \"contracts/FCODE_flattened.sol\":24775:24781  _owner */\n      0x05\n      0x00\n      swap1\n      sload\n      swap1\n      0x0100\n      exp\n      swap1\n      div\n      0xffffffffffffffffffffffffffffffffffffffff\n      and\n        /* \"contracts/FCODE_flattened.sol\":24756:24781  address oldOwner = _owner */\n      swap1\n      pop\n        /* \"contracts/FCODE_flattened.sol\":24800:24808  newOwner */\n      dup2\n        /* \"contracts/FCODE_flattened.sol\":24791:24797  _owner */\n      0x05\n      0x00\n        /* \"contracts/FCODE_flattened.sol\":24791:24808  _owner = newOwner */\n      0x0100\n      exp\n      dup2\n      sload\n      dup2\n      0xffffffffffffffffffffffffffffffffffffffff\n      mul\n      not\n      and\n      swap1\n      dup4\n      0xffffffffffffffffffffffffffffffffffffffff\n      and\n      mul\n      or\n      swap1\n      sstore\n      pop\n        /* \"contracts/FCODE_flattened.sol\":24854:24862  newOwner */\n      dup2\n        /* \"contracts/FCODE_flattened.sol\":24823:24863  OwnershipTransferred(oldOwner, newOwner) */\n      0xffffffffffffffffffffffffffffffffffffffff\n      and\n        /* \"contracts/FCODE_flattened.sol\":24844:24852  oldOwner */\n      dup2\n        /* \"contracts/FCODE_flattened.sol\":24823:24863  OwnershipTransferred(oldOwner, newOwner) */\n      0xffffffffffffffffffffffffffffffffffffffff\n      and\n      0x8be0079c531659141344cd1fd0a4f28419497f9722a3daafe3b4186f6b6457e0\n      mload(0x40)\n      mload(0x40)\n      dup1\n      swap2\n      sub\n      swap1\n      log3\n        /* \"contracts/FCODE_flattened.sol\":24746:24870  {... */\n      pop\n        /* \"contracts/FCODE_flattened.sol\":24683:24870  function _transferOwnership(address newOwner) internal virtual {... */\n      pop\n      jump\t// out\n        /* \"contracts/FCODE_flattened.sol\":20601:21033  function _approve(address owner, address spender, uint256 value, bool emitEvent) internal virtual {... */\n    tag_152:\n        /* \"contracts/FCODE_flattened.sol\":20730:20731  0 */\n      0x00\n        /* \"contracts/FCODE_flattened.sol\":20713:20732  owner == address(0) */\n      0xffffffffffffffffffffffffffffffffffffffff\n      and\n        /* \"contracts/FCODE_flattened.sol\":20713:20718  owner */\n      dup5\n        /* \"contracts/FCODE_flattened.sol\":20713:20732  owner == address(0) */\n      0xffffffffffffffffffffffffffffffffffffffff\n      and\n      sub\n        /* \"contracts/FCODE_flattened.sol\":20709:20798  if (owner == address(0)) {... */\n      tag_183\n      jumpi\n        /* \"contracts/FCODE_flattened.sol\":20784:20785  0 */\n      0x00\n        /* \"contracts/FCODE_flattened.sol\":20755:20787  ERC20InvalidApprover(address(0)) */\n      mload(0x40)\n      0xe602df0500000000000000000000000000000000000000000000000000000000\n      dup2\n      mstore\n      0x04\n      add\n      tag_184\n      swap2\n      swap1\n      tag_66\n      jump\t// in\n    tag_184:\n      mload(0x40)\n      dup1\n      swap2\n      sub\n      swap1\n      revert\n        /* \"contracts/FCODE_flattened.sol\":20709:20798  if (owner == address(0)) {... */\n    tag_183:\n        /* \"contracts/FCODE_flattened.sol\":20830:20831  0 */\n      0x00\n        /* \"contracts/FCODE_flattened.sol\":20811:20832  spender == address(0) */\n      0xffffffffffffffffffffffffffffffffffffffff\n      and\n        /* \"contracts/FCODE_flattened.sol\":20811:20818  spender */\n      dup4\n        /* \"contracts/FCODE_flattened.sol\":20811:20832  spender == address(0) */\n      0xffffffffffffffffffffffffffffffffffffffff\n      and\n      sub\n        /* \"contracts/FCODE_flattened.sol\":20807:20897  if (spender == address(0)) {... */\n      tag_185\n      jumpi\n        /* \"contracts/FCODE_flattened.sol\":20883:20884  0 */\n      0x00\n        /* \"contracts/FCODE_flattened.sol\":20855:20886  ERC20InvalidSpender(address(0)) */\n      mload(0x40)\n      0x94280d6200000000000000000000000000000000000000000000000000000000\n      dup2\n      mstore\n      0x04\n      add\n      tag_186\n      swap2\n      swap1\n      tag_66\n      jump\t// in\n    tag_186:\n      mload(0x40)\n      dup1\n      swap2\n      sub\n      swap1\n      revert\n        /* \"contracts/FCODE_flattened.sol\":20807:20897  if (spender == address(0)) {... */\n    tag_185:\n        /* \"contracts/FCODE_flattened.sol\":20936:20941  value */\n      dup2\n        /* \"contracts/FCODE_flattened.sol\":20906:20917  _allowances */\n      0x01\n        /* \"contracts/FCODE_flattened.sol\":20906:20924  _allowances[owner] */\n      0x00\n        /* \"contracts/FCODE_flattened.sol\":20918:20923  owner */\n      dup7\n        /* \"contracts/FCODE_flattened.sol\":20906:20924  _allowances[owner] */\n      0xffffffffffffffffffffffffffffffffffffffff\n      and\n      0xffffffffffffffffffffffffffffffffffffffff\n      and\n      dup2\n      mstore\n      0x20\n      add\n      swap1\n      dup2\n      mstore\n      0x20\n      add\n      0x00\n      keccak256\n        /* \"contracts/FCODE_flattened.sol\":20906:20933  _allowances[owner][spender] */\n      0x00\n        /* \"contracts/FCODE_flattened.sol\":20925:20932  spender */\n      dup6\n        /* \"contracts/FCODE_flattened.sol\":20906:20933  _allowances[owner][spender] */\n      0xffffffffffffffffffffffffffffffffffffffff\n      and\n      0xffffffffffffffffffffffffffffffffffffffff\n      and\n      dup2\n      mstore\n      0x20\n      add\n      swap1\n      dup2\n      mstore\n      0x20\n      add\n      0x00\n      keccak256\n        /* \"contracts/FCODE_flattened.sol\":20906:20941  _allowances[owner][spender] = value */\n      dup2\n      swap1\n      sstore\n      pop\n        /* \"contracts/FCODE_flattened.sol\":20955:20964  emitEvent */\n      dup1\n        /* \"contracts/FCODE_flattened.sol\":20951:21027  if (emitEvent) {... */\n      iszero\n      tag_187\n      jumpi\n        /* \"contracts/FCODE_flattened.sol\":21001:21008  spender */\n      dup3\n        /* \"contracts/FCODE_flattened.sol\":20985:21016  Approval(owner, spender, value) */\n      0xffffffffffffffffffffffffffffffffffffffff\n      and\n        /* \"contracts/FCODE_flattened.sol\":20994:20999  owner */\n      dup5\n        /* \"contracts/FCODE_flattened.sol\":20985:21016  Approval(owner, spender, value) */\n      0xffffffffffffffffffffffffffffffffffffffff\n      and\n      0x8c5be1e5ebec7d5bd14f71427d1e84f3dd0314c0f7b2291e5b200ac8c7c3b925\n        /* \"contracts/FCODE_flattened.sol\":21010:21015  value */\n      dup5\n        /* \"contracts/FCODE_flattened.sol\":20985:21016  Approval(owner, spender, value) */\n      mload(0x40)\n      tag_188\n      swap2\n      swap1\n      tag_39\n      jump\t// in\n    tag_188:\n      mload(0x40)\n      dup1\n      swap2\n      sub\n      swap1\n      log3\n        /* \"contracts/FCODE_flattened.sol\":20951:21027  if (emitEvent) {... */\n    tag_187:\n        /* \"contracts/FCODE_flattened.sol\":20601:21033  function _approve(address owner, address spender, uint256 value, bool emitEvent) internal virtual {... */\n      pop\n      pop\n      pop\n      pop\n      jump\t// out\n        /* \"contracts/FCODE_flattened.sol\":16908:18015  function _update(address from, address to, uint256 value) internal virtual {... */\n    tag_166:\n        /* \"contracts/FCODE_flattened.sol\":17013:17014  0 */\n      0x00\n        /* \"contracts/FCODE_flattened.sol\":16997:17015  from == address(0) */\n      0xffffffffffffffffffffffffffffffffffffffff\n      and\n        /* \"contracts/FCODE_flattened.sol\":16997:17001  from */\n      dup4\n        /* \"contracts/FCODE_flattened.sol\":16997:17015  from == address(0) */\n      0xffffffffffffffffffffffffffffffffffffffff\n      and\n      sub\n        /* \"contracts/FCODE_flattened.sol\":16993:17533  if (from == address(0)) {... */\n      tag_190\n      jumpi\n        /* \"contracts/FCODE_flattened.sol\":17149:17154  value */\n      dup1\n        /* \"contracts/FCODE_flattened.sol\":17133:17145  _totalSupply */\n      0x02\n      0x00\n        /* \"contracts/FCODE_flattened.sol\":17133:17154  _totalSupply += value */\n      dup3\n      dup3\n      sload\n      tag_191\n      swap2\n      swap1\n      tag_192\n      jump\t// in\n    tag_191:\n      swap3\n      pop\n      pop\n      dup2\n      swap1\n      sstore\n      pop\n        /* \"contracts/FCODE_flattened.sol\":16993:17533  if (from == address(0)) {... */\n      jump(tag_193)\n    tag_190:\n        /* \"contracts/FCODE_flattened.sol\":17185:17204  uint256 fromBalance */\n      0x00\n        /* \"contracts/FCODE_flattened.sol\":17207:17216  _balances */\n      0x00\n        /* \"contracts/FCODE_flattened.sol\":17207:17222  _balances[from] */\n      0x00\n        /* \"contracts/FCODE_flattened.sol\":17217:17221  from */\n      dup6\n        /* \"contracts/FCODE_flattened.sol\":17207:17222  _balances[from] */\n      0xffffffffffffffffffffffffffffffffffffffff\n      and\n      0xffffffffffffffffffffffffffffffffffffffff\n      and\n      dup2\n      mstore\n      0x20\n      add\n      swap1\n      dup2\n      mstore\n      0x20\n      add\n      0x00\n      keccak256\n      sload\n        /* \"contracts/FCODE_flattened.sol\":17185:17222  uint256 fromBalance = _balances[from] */\n      swap1\n      pop\n        /* \"contracts/FCODE_flattened.sol\":17254:17259  value */\n      dup2\n        /* \"contracts/FCODE_flattened.sol\":17240:17251  fromBalance */\n      dup2\n        /* \"contracts/FCODE_flattened.sol\":17240:17259  fromBalance < value */\n      lt\n        /* \"contracts/FCODE_flattened.sol\":17236:17351  if (fromBalance < value) {... */\n      iszero\n      tag_194\n      jumpi\n        /* \"contracts/FCODE_flattened.sol\":17311:17315  from */\n      dup4\n        /* \"contracts/FCODE_flattened.sol\":17317:17328  fromBalance */\n      dup2\n        /* \"contracts/FCODE_flattened.sol\":17330:17335  value */\n      dup4\n        /* \"contracts/FCODE_flattened.sol\":17286:17336  ERC20InsufficientBalance(from, fromBalance, value) */\n      mload(0x40)\n      0xe450d38c00000000000000000000000000000000000000000000000000000000\n      dup2\n      mstore\n      0x04\n      add\n      tag_195\n      swap4\n      swap3\n      swap2\n      swap1\n      tag_158\n      jump\t// in\n    tag_195:\n      mload(0x40)\n      dup1\n      swap2\n      sub\n      swap1\n      revert\n        /* \"contracts/FCODE_flattened.sol\":17236:17351  if (fromBalance < value) {... */\n    tag_194:\n        /* \"contracts/FCODE_flattened.sol\":17503:17508  value */\n      dup2\n        /* \"contracts/FCODE_flattened.sol\":17489:17500  fromBalance */\n      dup2\n        /* \"contracts/FCODE_flattened.sol\":17489:17508  fromBalance - value */\n      sub\n        /* \"contracts/FCODE_flattened.sol\":17471:17480  _balances */\n      0x00\n        /* \"contracts/FCODE_flattened.sol\":17471:17486  _balances[from] */\n      0x00\n        /* \"contracts/FCODE_flattened.sol\":17481:17485  from */\n      dup7\n        /* \"contracts/FCODE_flattened.sol\":17471:17486  _balances[from] */\n      0xffffffffffffffffffffffffffffffffffffffff\n      and\n      0xffffffffffffffffffffffffffffffffffffffff\n      and\n      dup2\n      mstore\n      0x20\n      add\n      swap1\n      dup2\n      mstore\n      0x20\n      add\n      0x00\n      keccak256\n        /* \"contracts/FCODE_flattened.sol\":17471:17508  _balances[from] = fromBalance - value */\n      dup2\n      swap1\n      sstore\n      pop\n        /* \"contracts/FCODE_flattened.sol\":17171:17533  {... */\n      pop\n        /* \"contracts/FCODE_flattened.sol\":16993:17533  if (from == address(0)) {... */\n    tag_193:\n        /* \"contracts/FCODE_flattened.sol\":17561:17562  0 */\n      0x00\n        /* \"contracts/FCODE_flattened.sol\":17547:17563  to == address(0) */\n      0xffffffffffffffffffffffffffffffffffffffff\n      and\n        /* \"contracts/FCODE_flattened.sol\":17547:17549  to */\n      dup3\n        /* \"contracts/FCODE_flattened.sol\":17547:17563  to == address(0) */\n      0xffffffffffffffffffffffffffffffffffffffff\n      and\n      sub\n        /* \"contracts/FCODE_flattened.sol\":17543:17968  if (to == address(0)) {... */\n      tag_196\n      jumpi\n        /* \"contracts/FCODE_flattened.sol\":17726:17731  value */\n      dup1\n        /* \"contracts/FCODE_flattened.sol\":17710:17722  _totalSupply */\n      0x02\n      0x00\n        /* \"contracts/FCODE_flattened.sol\":17710:17731  _totalSupply -= value */\n      dup3\n      dup3\n      sload\n      sub\n      swap3\n      pop\n      pop\n      dup2\n      swap1\n      sstore\n      pop\n        /* \"contracts/FCODE_flattened.sol\":17543:17968  if (to == address(0)) {... */\n      jump(tag_197)\n    tag_196:\n        /* \"contracts/FCODE_flattened.sol\":17938:17943  value */\n      dup1\n        /* \"contracts/FCODE_flattened.sol\":17921:17930  _balances */\n      0x00\n        /* \"contracts/FCODE_flattened.sol\":17921:17934  _balances[to] */\n      0x00\n        /* \"contracts/FCODE_flattened.sol\":17931:17933  to */\n      dup5\n        /* \"contracts/FCODE_flattened.sol\":17921:17934  _balances[to] */\n      0xffffffffffffffffffffffffffffffffffffffff\n      and\n      0xffffffffffffffffffffffffffffffffffffffff\n      and\n      dup2\n      mstore\n      0x20\n      add\n      swap1\n      dup2\n      mstore\n      0x20\n      add\n      0x00\n      keccak256\n      0x00\n        /* \"contracts/FCODE_flattened.sol\":17921:17943  _balances[to] += value */\n      dup3\n      dup3\n      sload\n      add\n      swap3\n      pop\n      pop\n      dup2\n      swap1\n      sstore\n      pop\n        /* \"contracts/FCODE_flattened.sol\":17543:17968  if (to == address(0)) {... */\n    tag_197:\n        /* \"contracts/FCODE_flattened.sol\":17998:18000  to */\n      dup2\n        /* \"contracts/FCODE_flattened.sol\":17983:18008  Transfer(from, to, value) */\n      0xffffffffffffffffffffffffffffffffffffffff\n      and\n        /* \"contracts/FCODE_flattened.sol\":17992:17996  from */\n      dup4\n        /* \"contracts/FCODE_flattened.sol\":17983:18008  Transfer(from, to, value) */\n      0xffffffffffffffffffffffffffffffffffffffff\n      and\n      0xddf252ad1be2c89b69c2b068fc378daa952ba7f163c4a11628f55a4df523b3ef\n        /* \"contracts/FCODE_flattened.sol\":18002:18007  value */\n      dup4\n        /* \"contracts/FCODE_flattened.sol\":17983:18008  Transfer(from, to, value) */\n      mload(0x40)\n      tag_198\n      swap2\n      swap1\n      tag_39\n      jump\t// in\n    tag_198:\n      mload(0x40)\n      dup1\n      swap2\n      sub\n      swap1\n      log3\n        /* \"contracts/FCODE_flattened.sol\":16908:18015  function _update(address from, address to, uint256 value) internal virtual {... */\n      pop\n      pop\n      pop\n      jump\t// out\n        /* \"#utility.yul\":88:205   */\n    tag_200:\n        /* \"#utility.yul\":197:198   */\n      0x00\n        /* \"#utility.yul\":194:195   */\n      0x00\n        /* \"#utility.yul\":187:199   */\n      revert\n        /* \"#utility.yul\":334:411   */\n    tag_202:\n        /* \"#utility.yul\":371:378   */\n      0x00\n        /* \"#utility.yul\":400:405   */\n      dup2\n        /* \"#utility.yul\":389:405   */\n      swap1\n      pop\n        /* \"#utility.yul\":334:411   */\n      swap2\n      swap1\n      pop\n      jump\t// out\n        /* \"#utility.yul\":417:539   */\n    tag_203:\n        /* \"#utility.yul\":490:514   */\n      tag_235\n        /* \"#utility.yul\":508:513   */\n      dup2\n        /* \"#utility.yul\":490:514   */\n      tag_202\n      jump\t// in\n    tag_235:\n        /* \"#utility.yul\":483:488   */\n      dup2\n        /* \"#utility.yul\":480:515   */\n      eq\n        /* \"#utility.yul\":470:533   */\n      tag_236\n      jumpi\n        /* \"#utility.yul\":529:530   */\n      0x00\n        /* \"#utility.yul\":526:527   */\n      0x00\n        /* \"#utility.yul\":519:531   */\n      revert\n        /* \"#utility.yul\":470:533   */\n    tag_236:\n        /* \"#utility.yul\":417:539   */\n      pop\n      jump\t// out\n        /* \"#utility.yul\":545:684   */\n    tag_204:\n        /* \"#utility.yul\":591:596   */\n      0x00\n        /* \"#utility.yul\":629:635   */\n      dup2\n        /* \"#utility.yul\":616:636   */\n      calldataload\n        /* \"#utility.yul\":607:636   */\n      swap1\n      pop\n        /* \"#utility.yul\":645:678   */\n      tag_238\n        /* \"#utility.yul\":672:677   */\n      dup2\n        /* \"#utility.yul\":645:678   */\n      tag_203\n      jump\t// in\n    tag_238:\n        /* \"#utility.yul\":545:684   */\n      swap3\n      swap2\n      pop\n      pop\n      jump\t// out\n        /* \"#utility.yul\":690:816   */\n    tag_205:\n        /* \"#utility.yul\":727:734   */\n      0x00\n        /* \"#utility.yul\":767:809   */\n      0xffffffffffffffffffffffffffffffffffffffff\n        /* \"#utility.yul\":760:765   */\n      dup3\n        /* \"#utility.yul\":756:810   */\n      and\n        /* \"#utility.yul\":745:810   */\n      swap1\n      pop\n        /* \"#utility.yul\":690:816   */\n      swap2\n      swap1\n      pop\n      jump\t// out\n        /* \"#utility.yul\":822:926   */\n    tag_206:\n        /* \"#utility.yul\":867:874   */\n      0x00\n        /* \"#utility.yul\":896:920   */\n      tag_241\n        /* \"#utility.yul\":914:919   */\n      dup3\n        /* \"#utility.yul\":896:920   */\n      tag_205\n      jump\t// in\n    tag_241:\n        /* \"#utility.yul\":885:920   */\n      swap1\n      pop\n        /* \"#utility.yul\":822:926   */\n      swap2\n      swap1\n      pop\n      jump\t// out\n        /* \"#utility.yul\":932:1070   */\n    tag_207:\n        /* \"#utility.yul\":1013:1045   */\n      tag_243\n        /* \"#utility.yul\":1039:1044   */\n      dup2\n        /* \"#utility.yul\":1013:1045   */\n      tag_206\n      jump\t// in\n    tag_243:\n        /* \"#utility.yul\":1006:1011   */\n      dup2\n        /* \"#utility.yul\":1003:1046   */\n      eq\n        /* \"#utility.yul\":993:1064   */\n      tag_244\n      jumpi\n        /* \"#utility.yul\":1060:1061   */\n      0x00\n        /* \"#utility.yul\":1057:1058   */\n      0x00\n        /* \"#utility.yul\":1050:1062   */\n      revert\n        /* \"#utility.yul\":993:1064   */\n    tag_244:\n        /* \"#utility.yul\":932:1070   */\n      pop\n      jump\t// out\n        /* \"#utility.yul\":1076:1231   */\n    tag_208:\n        /* \"#utility.yul\":1130:1135   */\n      0x00\n        /* \"#utility.yul\":1168:1174   */\n      dup2\n        /* \"#utility.yul\":1155:1175   */\n      calldataload\n        /* \"#utility.yul\":1146:1175   */\n      swap1\n      pop\n        /* \"#utility.yul\":1184:1225   */\n      tag_246\n        /* \"#utility.yul\":1219:1224   */\n      dup2\n        /* \"#utility.yul\":1184:1225   */\n      tag_207\n      jump\t// in\n    tag_246:\n        /* \"#utility.yul\":1076:1231   */\n      swap3\n      swap2\n      pop\n      pop\n      jump\t// out\n        /* \"#utility.yul\":1237:1727   */\n    tag_24:\n        /* \"#utility.yul\":1313:1319   */\n      0x00\n        /* \"#utility.yul\":1321:1327   */\n      0x00\n        /* \"#utility.yul\":1370:1372   */\n      0x40\n        /* \"#utility.yul\":1358:1367   */\n      dup4\n        /* \"#utility.yul\":1349:1356   */\n      dup6\n        /* \"#utility.yul\":1345:1368   */\n      sub\n        /* \"#utility.yul\":1341:1373   */\n      slt\n        /* \"#utility.yul\":1338:1457   */\n      iszero\n      tag_248\n      jumpi\n        /* \"#utility.yul\":1376:1455   */\n      tag_249\n      tag_200\n      jump\t// in\n    tag_249:\n        /* \"#utility.yul\":1338:1457   */\n    tag_248:\n        /* \"#utility.yul\":1496:1497   */\n      0x00\n        /* \"#utility.yul\":1521:1574   */\n      tag_250\n        /* \"#utility.yul\":1566:1573   */\n      dup6\n        /* \"#utility.yul\":1557:1563   */\n      dup3\n        /* \"#utility.yul\":1546:1555   */\n      dup7\n        /* \"#utility.yul\":1542:1564   */\n      add\n        /* \"#utility.yul\":1521:1574   */\n      tag_204\n      jump\t// in\n    tag_250:\n        /* \"#utility.yul\":1511:1574   */\n      swap3\n      pop\n        /* \"#utility.yul\":1467:1584   */\n      pop\n        /* \"#utility.yul\":1623:1625   */\n      0x20\n        /* \"#utility.yul\":1649:1710   */\n      tag_251\n        /* \"#utility.yul\":1702:1709   */\n      dup6\n        /* \"#utility.yul\":1693:1699   */\n      dup3\n        /* \"#utility.yul\":1682:1691   */\n      dup7\n        /* \"#utility.yul\":1678:1700   */\n      add\n        /* \"#utility.yul\":1649:1710   */\n      tag_208\n      jump\t// in\n    tag_251:\n        /* \"#utility.yul\":1639:1710   */\n      swap2\n      pop\n        /* \"#utility.yul\":1594:1720   */\n      pop\n        /* \"#utility.yul\":1237:1727   */\n      swap3\n      pop\n      swap3\n      swap1\n      pop\n      jump\t// out\n        /* \"#utility.yul\":1733:1832   */\n    tag_209:\n        /* \"#utility.yul\":1785:1791   */\n      0x00\n        /* \"#utility.yul\":1819:1824   */\n      dup2\n        /* \"#utility.yul\":1813:1825   */\n      mload\n        /* \"#utility.yul\":1803:1825   */\n      swap1\n      pop\n        /* \"#utility.yul\":1733:1832   */\n      swap2\n      swap1\n      pop\n      jump\t// out\n        /* \"#utility.yul\":1838:2007   */\n    tag_210:\n        /* \"#utility.yul\":1922:1933   */\n      0x00\n        /* \"#utility.yul\":1956:1962   */\n      dup3\n        /* \"#utility.yul\":1951:1954   */\n      dup3\n        /* \"#utility.yul\":1944:1963   */\n      mstore\n        /* \"#utility.yul\":1996:2000   */\n      0x20\n        /* \"#utility.yul\":1991:1994   */\n      dup3\n        /* \"#utility.yul\":1987:2001   */\n      add\n        /* \"#utility.yul\":1972:2001   */\n      swap1\n      pop\n        /* \"#utility.yul\":1838:2007   */\n      swap3\n      swap2\n      pop\n      pop\n      jump\t// out\n        /* \"#utility.yul\":2013:2152   */\n    tag_211:\n        /* \"#utility.yul\":2102:2108   */\n      dup3\n        /* \"#utility.yul\":2097:2100   */\n      dup2\n        /* \"#utility.yul\":2092:2095   */\n      dup4\n        /* \"#utility.yul\":2086:2109   */\n      mcopy\n        /* \"#utility.yul\":2143:2144   */\n      0x00\n        /* \"#utility.yul\":2134:2140   */\n      dup4\n        /* \"#utility.yul\":2129:2132   */\n      dup4\n        /* \"#utility.yul\":2125:2141   */\n      add\n        /* \"#utility.yul\":2118:2145   */\n      mstore\n        /* \"#utility.yul\":2013:2152   */\n      pop\n      pop\n      pop\n      jump\t// out\n        /* \"#utility.yul\":2158:2260   */\n    tag_212:\n        /* \"#utility.yul\":2199:2205   */\n      0x00\n        /* \"#utility.yul\":2250:2252   */\n      0x1f\n        /* \"#utility.yul\":2246:2253   */\n      not\n        /* \"#utility.yul\":2241:2243   */\n      0x1f\n        /* \"#utility.yul\":2234:2239   */\n      dup4\n        /* \"#utility.yul\":2230:2244   */\n      add\n        /* \"#utility.yul\":2226:2254   */\n      and\n        /* \"#utility.yul\":2216:2254   */\n      swap1\n      pop\n        /* \"#utility.yul\":2158:2260   */\n      swap2\n      swap1\n      pop\n      jump\t// out\n        /* \"#utility.yul\":2266:2643   */\n    tag_213:\n        /* \"#utility.yul\":2354:2357   */\n      0x00\n        /* \"#utility.yul\":2382:2421   */\n      tag_257\n        /* \"#utility.yul\":2415:2420   */\n      dup3\n        /* \"#utility.yul\":2382:2421   */\n      tag_209\n      jump\t// in\n    tag_257:\n        /* \"#utility.yul\":2437:2508   */\n      tag_258\n        /* \"#utility.yul\":2501:2507   */\n      dup2\n        /* \"#utility.yul\":2496:2499   */\n      dup6\n        /* \"#utility.yul\":2437:2508   */\n      tag_210\n      jump\t// in\n    tag_258:\n        /* \"#utility.yul\":2430:2508   */\n      swap4\n      pop\n        /* \"#utility.yul\":2517:2582   */\n      tag_259\n        /* \"#utility.yul\":2575:2581   */\n      dup2\n        /* \"#utility.yul\":2570:2573   */\n      dup6\n        /* \"#utility.yul\":2563:2567   */\n      0x20\n        /* \"#utility.yul\":2556:2561   */\n      dup7\n        /* \"#utility.yul\":2552:2568   */\n      add\n        /* \"#utility.yul\":2517:2582   */\n      tag_211\n      jump\t// in\n    tag_259:\n        /* \"#utility.yul\":2607:2636   */\n      tag_260\n        /* \"#utility.yul\":2629:2635   */\n      dup2\n        /* \"#utility.yul\":2607:2636   */\n      tag_212\n      jump\t// in\n    tag_260:\n        /* \"#utility.yul\":2602:2605   */\n      dup5\n        /* \"#utility.yul\":2598:2637   */\n      add\n        /* \"#utility.yul\":2591:2637   */\n      swap2\n      pop\n        /* \"#utility.yul\":2358:2643   */\n      pop\n        /* \"#utility.yul\":2266:2643   */\n      swap3\n      swap2\n      pop\n      pop\n      jump\t// out\n        /* \"#utility.yul\":2649:2962   */\n    tag_29:\n        /* \"#utility.yul\":2762:2766   */\n      0x00\n        /* \"#utility.yul\":2800:2802   */\n      0x20\n        /* \"#utility.yul\":2789:2798   */\n      dup3\n        /* \"#utility.yul\":2785:2803   */\n      add\n        /* \"#utility.yul\":2777:2803   */\n      swap1\n      pop\n        /* \"#utility.yul\":2849:2858   */\n      dup2\n        /* \"#utility.yul\":2843:2847   */\n      dup2\n        /* \"#utility.yul\":2839:2859   */\n      sub\n        /* \"#utility.yul\":2835:2836   */\n      0x00\n        /* \"#utility.yul\":2824:2833   */\n      dup4\n        /* \"#utility.yul\":2820:2837   */\n      add\n        /* \"#utility.yul\":2813:2860   */\n      mstore\n        /* \"#utility.yul\":2877:2955   */\n      tag_262\n        /* \"#utility.yul\":2950:2954   */\n      dup2\n        /* \"#utility.yul\":2941:2947   */\n      dup5\n        /* \"#utility.yul\":2877:2955   */\n      tag_213\n      jump\t// in\n    tag_262:\n        /* \"#utility.yul\":2869:2955   */\n      swap1\n      pop\n        /* \"#utility.yul\":2649:2962   */\n      swap3\n      swap2\n      pop\n      pop\n      jump\t// out\n        /* \"#utility.yul\":2968:3064   */\n    tag_214:\n        /* \"#utility.yul\":3005:3012   */\n      0x00\n        /* \"#utility.yul\":3034:3058   */\n      tag_264\n        /* \"#utility.yul\":3052:3057   */\n      dup3\n        /* \"#utility.yul\":3034:3058   */\n      tag_205\n      jump\t// in\n    tag_264:\n        /* \"#utility.yul\":3023:3058   */\n      swap1\n      pop\n        /* \"#utility.yul\":2968:3064   */\n      swap2\n      swap1\n      pop\n      jump\t// out\n        /* \"#utility.yul\":3070:3192   */\n    tag_215:\n        /* \"#utility.yul\":3143:3167   */\n      tag_266\n        /* \"#utility.yul\":3161:3166   */\n      dup2\n        /* \"#utility.yul\":3143:3167   */\n      tag_214\n      jump\t// in\n    tag_266:\n        /* \"#utility.yul\":3136:3141   */\n      dup2\n        /* \"#utility.yul\":3133:3168   */\n      eq\n        /* \"#utility.yul\":3123:3186   */\n      tag_267\n      jumpi\n        /* \"#utility.yul\":3182:3183   */\n      0x00\n        /* \"#utility.yul\":3179:3180   */\n      0x00\n        /* \"#utility.yul\":3172:3184   */\n      revert\n        /* \"#utility.yul\":3123:3186   */\n    tag_267:\n        /* \"#utility.yul\":3070:3192   */\n      pop\n      jump\t// out\n        /* \"#utility.yul\":3198:3337   */\n    tag_216:\n        /* \"#utility.yul\":3244:3249   */\n      0x00\n        /* \"#utility.yul\":3282:3288   */\n      dup2\n        /* \"#utility.yul\":3269:3289   */\n      calldataload\n        /* \"#utility.yul\":3260:3289   */\n      swap1\n      pop\n        /* \"#utility.yul\":3298:3331   */\n      tag_269\n        /* \"#utility.yul\":3325:3330   */\n      dup2\n        /* \"#utility.yul\":3298:3331   */\n      tag_215\n      jump\t// in\n    tag_269:\n        /* \"#utility.yul\":3198:3337   */\n      swap3\n      swap2\n      pop\n      pop\n      jump\t// out\n        /* \"#utility.yul\":3343:3817   */\n    tag_32:\n        /* \"#utility.yul\":3411:3417   */\n      0x00\n        /* \"#utility.yul\":3419:3425   */\n      0x00\n        /* \"#utility.yul\":3468:3470   */\n      0x40\n        /* \"#utility.yul\":3456:3465   */\n      dup4\n        /* \"#utility.yul\":3447:3454   */\n      dup6\n        /* \"#utility.yul\":3443:3466   */\n      sub\n        /* \"#utility.yul\":3439:3471   */\n      slt\n        /* \"#utility.yul\":3436:3555   */\n      iszero\n      tag_271\n      jumpi\n        /* \"#utility.yul\":3474:3553   */\n      tag_272\n      tag_200\n      jump\t// in\n    tag_272:\n        /* \"#utility.yul\":3436:3555   */\n    tag_271:\n        /* \"#utility.yul\":3594:3595   */\n      0x00\n        /* \"#utility.yul\":3619:3672   */\n      tag_273\n        /* \"#utility.yul\":3664:3671   */\n      dup6\n        /* \"#utility.yul\":3655:3661   */\n      dup3\n        /* \"#utility.yul\":3644:3653   */\n      dup7\n        /* \"#utility.yul\":3640:3662   */\n      add\n        /* \"#utility.yul\":3619:3672   */\n      tag_216\n      jump\t// in\n    tag_273:\n        /* \"#utility.yul\":3609:3672   */\n      swap3\n      pop\n        /* \"#utility.yul\":3565:3682   */\n      pop\n        /* \"#utility.yul\":3721:3723   */\n      0x20\n        /* \"#utility.yul\":3747:3800   */\n      tag_274\n        /* \"#utility.yul\":3792:3799   */\n      dup6\n        /* \"#utility.yul\":3783:3789   */\n      dup3\n        /* \"#utility.yul\":3772:3781   */\n      dup7\n        /* \"#utility.yul\":3768:3790   */\n      add\n        /* \"#utility.yul\":3747:3800   */\n      tag_204\n      jump\t// in\n    tag_274:\n        /* \"#utility.yul\":3737:3800   */\n      swap2\n      pop\n        /* \"#utility.yul\":3692:3810   */\n      pop\n        /* \"#utility.yul\":3343:3817   */\n      swap3\n      pop\n      swap3\n      swap1\n      pop\n      jump\t// out\n        /* \"#utility.yul\":3823:3913   */\n    tag_217:\n        /* \"#utility.yul\":3857:3864   */\n      0x00\n        /* \"#utility.yul\":3900:3905   */\n      dup2\n        /* \"#utility.yul\":3893:3906   */\n      iszero\n        /* \"#utility.yul\":3886:3907   */\n      iszero\n        /* \"#utility.yul\":3875:3907   */\n      swap1\n      pop\n        /* \"#utility.yul\":3823:3913   */\n      swap2\n      swap1\n      pop\n      jump\t// out\n        /* \"#utility.yul\":3919:4028   */\n    tag_218:\n        /* \"#utility.yul\":4000:4021   */\n      tag_277\n        /* \"#utility.yul\":4015:4020   */\n      dup2\n        /* \"#utility.yul\":4000:4021   */\n      tag_217\n      jump\t// in\n    tag_277:\n        /* \"#utility.yul\":3995:3998   */\n      dup3\n        /* \"#utility.yul\":3988:4022   */\n      mstore\n        /* \"#utility.yul\":3919:4028   */\n      pop\n      pop\n      jump\t// out\n        /* \"#utility.yul\":4034:4244   */\n    tag_35:\n        /* \"#utility.yul\":4121:4125   */\n      0x00\n        /* \"#utility.yul\":4159:4161   */\n      0x20\n        /* \"#utility.yul\":4148:4157   */\n      dup3\n        /* \"#utility.yul\":4144:4162   */\n      add\n        /* \"#utility.yul\":4136:4162   */\n      swap1\n      pop\n        /* \"#utility.yul\":4172:4237   */\n      tag_279\n        /* \"#utility.yul\":4234:4235   */\n      0x00\n        /* \"#utility.yul\":4223:4232   */\n      dup4\n        /* \"#utility.yul\":4219:4236   */\n      add\n        /* \"#utility.yul\":4210:4216   */\n      dup5\n        /* \"#utility.yul\":4172:4237   */\n      tag_218\n      jump\t// in\n    tag_279:\n        /* \"#utility.yul\":4034:4244   */\n      swap3\n      swap2\n      pop\n      pop\n      jump\t// out\n        /* \"#utility.yul\":4250:4368   */\n    tag_219:\n        /* \"#utility.yul\":4337:4361   */\n      tag_281\n        /* \"#utility.yul\":4355:4360   */\n      dup2\n        /* \"#utility.yul\":4337:4361   */\n      tag_202\n      jump\t// in\n    tag_281:\n        /* \"#utility.yul\":4332:4335   */\n      dup3\n        /* \"#utility.yul\":4325:4362   */\n      mstore\n        /* \"#utility.yul\":4250:4368   */\n      pop\n      pop\n      jump\t// out\n        /* \"#utility.yul\":4374:4596   */\n    tag_39:\n        /* \"#utility.yul\":4467:4471   */\n      0x00\n        /* \"#utility.yul\":4505:4507   */\n      0x20\n        /* \"#utility.yul\":4494:4503   */\n      dup3\n        /* \"#utility.yul\":4490:4508   */\n      add\n        /* \"#utility.yul\":4482:4508   */\n      swap1\n      pop\n        /* \"#utility.yul\":4518:4589   */\n      tag_283\n        /* \"#utility.yul\":4586:4587   */\n      0x00\n        /* \"#utility.yul\":4575:4584   */\n      dup4\n        /* \"#utility.yul\":4571:4588   */\n      add\n        /* \"#utility.yul\":4562:4568   */\n      dup5\n        /* \"#utility.yul\":4518:4589   */\n      tag_219\n      jump\t// in\n    tag_283:\n        /* \"#utility.yul\":4374:4596   */\n      swap3\n      swap2\n      pop\n      pop\n      jump\t// out\n        /* \"#utility.yul\":4602:5221   */\n    tag_42:\n        /* \"#utility.yul\":4679:4685   */\n      0x00\n        /* \"#utility.yul\":4687:4693   */\n      0x00\n        /* \"#utility.yul\":4695:4701   */\n      0x00\n        /* \"#utility.yul\":4744:4746   */\n      0x60\n        /* \"#utility.yul\":4732:4741   */\n      dup5\n        /* \"#utility.yul\":4723:4730   */\n      dup7\n        /* \"#utility.yul\":4719:4742   */\n      sub\n        /* \"#utility.yul\":4715:4747   */\n      slt\n        /* \"#utility.yul\":4712:4831   */\n      iszero\n      tag_285\n      jumpi\n        /* \"#utility.yul\":4750:4829   */\n      tag_286\n      tag_200\n      jump\t// in\n    tag_286:\n        /* \"#utility.yul\":4712:4831   */\n    tag_285:\n        /* \"#utility.yul\":4870:4871   */\n      0x00\n        /* \"#utility.yul\":4895:4948   */\n      tag_287\n        /* \"#utility.yul\":4940:4947   */\n      dup7\n        /* \"#utility.yul\":4931:4937   */\n      dup3\n        /* \"#utility.yul\":4920:4929   */\n      dup8\n        /* \"#utility.yul\":4916:4938   */\n      add\n        /* \"#utility.yul\":4895:4948   */\n      tag_216\n      jump\t// in\n    tag_287:\n        /* \"#utility.yul\":4885:4948   */\n      swap4\n      pop\n        /* \"#utility.yul\":4841:4958   */\n      pop\n        /* \"#utility.yul\":4997:4999   */\n      0x20\n        /* \"#utility.yul\":5023:5076   */\n      tag_288\n        /* \"#utility.yul\":5068:5075   */\n      dup7\n        /* \"#utility.yul\":5059:5065   */\n      dup3\n        /* \"#utility.yul\":5048:5057   */\n      dup8\n        /* \"#utility.yul\":5044:5066   */\n      add\n        /* \"#utility.yul\":5023:5076   */\n      tag_216\n      jump\t// in\n    tag_288:\n        /* \"#utility.yul\":5013:5076   */\n      swap3\n      pop\n        /* \"#utility.yul\":4968:5086   */\n      pop\n        /* \"#utility.yul\":5125:5127   */\n      0x40\n        /* \"#utility.yul\":5151:5204   */\n      tag_289\n        /* \"#utility.yul\":5196:5203   */\n      dup7\n        /* \"#utility.yul\":5187:5193   */\n      dup3\n        /* \"#utility.yul\":5176:5185   */\n      dup8\n        /* \"#utility.yul\":5172:5194   */\n      add\n        /* \"#utility.yul\":5151:5204   */\n      tag_204\n      jump\t// in\n    tag_289:\n        /* \"#utility.yul\":5141:5204   */\n      swap2\n      pop\n        /* \"#utility.yul\":5096:5214   */\n      pop\n        /* \"#utility.yul\":4602:5221   */\n      swap3\n      pop\n      swap3\n      pop\n      swap3\n      jump\t// out\n        /* \"#utility.yul\":5227:5313   */\n    tag_220:\n        /* \"#utility.yul\":5262:5269   */\n      0x00\n        /* \"#utility.yul\":5302:5306   */\n      0xff\n        /* \"#utility.yul\":5295:5300   */\n      dup3\n        /* \"#utility.yul\":5291:5307   */\n      and\n        /* \"#utility.yul\":5280:5307   */\n      swap1\n      pop\n        /* \"#utility.yul\":5227:5313   */\n      swap2\n      swap1\n      pop\n      jump\t// out\n        /* \"#utility.yul\":5319:5431   */\n    tag_221:\n        /* \"#utility.yul\":5402:5424   */\n      tag_292\n        /* \"#utility.yul\":5418:5423   */\n      dup2\n        /* \"#utility.yul\":5402:5424   */\n      tag_220\n      jump\t// in\n    tag_292:\n        /* \"#utility.yul\":5397:5400   */\n      dup3\n        /* \"#utility.yul\":5390:5425   */\n      mstore\n        /* \"#utility.yul\":5319:5431   */\n      pop\n      pop\n      jump\t// out\n        /* \"#utility.yul\":5437:5651   */\n    tag_48:\n        /* \"#utility.yul\":5526:5530   */\n      0x00\n        /* \"#utility.yul\":5564:5566   */\n      0x20\n        /* \"#utility.yul\":5553:5562   */\n      dup3\n        /* \"#utility.yul\":5549:5567   */\n      add\n        /* \"#utility.yul\":5541:5567   */\n      swap1\n      pop\n        /* \"#utility.yul\":5577:5644   */\n      tag_294\n        /* \"#utility.yul\":5641:5642   */\n      0x00\n        /* \"#utility.yul\":5630:5639   */\n      dup4\n        /* \"#utility.yul\":5626:5643   */\n      add\n        /* \"#utility.yul\":5617:5623   */\n      dup5\n        /* \"#utility.yul\":5577:5644   */\n      tag_221\n      jump\t// in\n    tag_294:\n        /* \"#utility.yul\":5437:5651   */\n      swap3\n      swap2\n      pop\n      pop\n      jump\t// out\n        /* \"#utility.yul\":5657:5986   */\n    tag_54:\n        /* \"#utility.yul\":5716:5722   */\n      0x00\n        /* \"#utility.yul\":5765:5767   */\n      0x20\n        /* \"#utility.yul\":5753:5762   */\n      dup3\n        /* \"#utility.yul\":5744:5751   */\n      dup5\n        /* \"#utility.yul\":5740:5763   */\n      sub\n        /* \"#utility.yul\":5736:5768   */\n      slt\n        /* \"#utility.yul\":5733:5852   */\n      iszero\n      tag_296\n      jumpi\n        /* \"#utility.yul\":5771:5850   */\n      tag_297\n      tag_200\n      jump\t// in\n    tag_297:\n        /* \"#utility.yul\":5733:5852   */\n    tag_296:\n        /* \"#utility.yul\":5891:5892   */\n      0x00\n        /* \"#utility.yul\":5916:5969   */\n      tag_298\n        /* \"#utility.yul\":5961:5968   */\n      dup5\n        /* \"#utility.yul\":5952:5958   */\n      dup3\n        /* \"#utility.yul\":5941:5950   */\n      dup6\n        /* \"#utility.yul\":5937:5959   */\n      add\n        /* \"#utility.yul\":5916:5969   */\n      tag_204\n      jump\t// in\n    tag_298:\n        /* \"#utility.yul\":5906:5969   */\n      swap2\n      pop\n        /* \"#utility.yul\":5862:5979   */\n      pop\n        /* \"#utility.yul\":5657:5986   */\n      swap3\n      swap2\n      pop\n      pop\n      jump\t// out\n        /* \"#utility.yul\":5992:6321   */\n    tag_58:\n        /* \"#utility.yul\":6051:6057   */\n      0x00\n        /* \"#utility.yul\":6100:6102   */\n      0x20\n        /* \"#utility.yul\":6088:6097   */\n      dup3\n        /* \"#utility.yul\":6079:6086   */\n      dup5\n        /* \"#utility.yul\":6075:6098   */\n      sub\n        /* \"#utility.yul\":6071:6103   */\n      slt\n        /* \"#utility.yul\":6068:6187   */\n      iszero\n      tag_300\n      jumpi\n        /* \"#utility.yul\":6106:6185   */\n      tag_301\n      tag_200\n      jump\t// in\n    tag_301:\n        /* \"#utility.yul\":6068:6187   */\n    tag_300:\n        /* \"#utility.yul\":6226:6227   */\n      0x00\n        /* \"#utility.yul\":6251:6304   */\n      tag_302\n        /* \"#utility.yul\":6296:6303   */\n      dup5\n        /* \"#utility.yul\":6287:6293   */\n      dup3\n        /* \"#utility.yul\":6276:6285   */\n      dup6\n        /* \"#utility.yul\":6272:6294   */\n      add\n        /* \"#utility.yul\":6251:6304   */\n      tag_216\n      jump\t// in\n    tag_302:\n        /* \"#utility.yul\":6241:6304   */\n      swap2\n      pop\n        /* \"#utility.yul\":6197:6314   */\n      pop\n        /* \"#utility.yul\":5992:6321   */\n      swap3\n      swap2\n      pop\n      pop\n      jump\t// out\n        /* \"#utility.yul\":6327:6445   */\n    tag_222:\n        /* \"#utility.yul\":6414:6438   */\n      tag_304\n        /* \"#utility.yul\":6432:6437   */\n      dup2\n        /* \"#utility.yul\":6414:6438   */\n      tag_214\n      jump\t// in\n    tag_304:\n        /* \"#utility.yul\":6409:6412   */\n      dup3\n        /* \"#utility.yul\":6402:6439   */\n      mstore\n        /* \"#utility.yul\":6327:6445   */\n      pop\n      pop\n      jump\t// out\n        /* \"#utility.yul\":6451:6673   */\n    tag_66:\n        /* \"#utility.yul\":6544:6548   */\n      0x00\n        /* \"#utility.yul\":6582:6584   */\n      0x20\n        /* \"#utility.yul\":6571:6580   */\n      dup3\n        /* \"#utility.yul\":6567:6585   */\n      add\n        /* \"#utility.yul\":6559:6585   */\n      swap1\n      pop\n        /* \"#utility.yul\":6595:6666   */\n      tag_306\n        /* \"#utility.yul\":6663:6664   */\n      0x00\n        /* \"#utility.yul\":6652:6661   */\n      dup4\n        /* \"#utility.yul\":6648:6665   */\n      add\n        /* \"#utility.yul\":6639:6645   */\n      dup5\n        /* \"#utility.yul\":6595:6666   */\n      tag_222\n      jump\t// in\n    tag_306:\n        /* \"#utility.yul\":6451:6673   */\n      swap3\n      swap2\n      pop\n      pop\n      jump\t// out\n        /* \"#utility.yul\":6679:7153   */\n    tag_79:\n        /* \"#utility.yul\":6747:6753   */\n      0x00\n        /* \"#utility.yul\":6755:6761   */\n      0x00\n        /* \"#utility.yul\":6804:6806   */\n      0x40\n        /* \"#utility.yul\":6792:6801   */\n      dup4\n        /* \"#utility.yul\":6783:6790   */\n      dup6\n        /* \"#utility.yul\":6779:6802   */\n      sub\n        /* \"#utility.yul\":6775:6807   */\n      slt\n        /* \"#utility.yul\":6772:6891   */\n      iszero\n      tag_308\n      jumpi\n        /* \"#utility.yul\":6810:6889   */\n      tag_309\n      tag_200\n      jump\t// in\n    tag_309:\n        /* \"#utility.yul\":6772:6891   */\n    tag_308:\n        /* \"#utility.yul\":6930:6931   */\n      0x00\n        /* \"#utility.yul\":6955:7008   */\n      tag_310\n        /* \"#utility.yul\":7000:7007   */\n      dup6\n        /* \"#utility.yul\":6991:6997   */\n      dup3\n        /* \"#utility.yul\":6980:6989   */\n      dup7\n        /* \"#utility.yul\":6976:6998   */\n      add\n        /* \"#utility.yul\":6955:7008   */\n      tag_216\n      jump\t// in\n    tag_310:\n        /* \"#utility.yul\":6945:7008   */\n      swap3\n      pop\n        /* \"#utility.yul\":6901:7018   */\n      pop\n        /* \"#utility.yul\":7057:7059   */\n      0x20\n        /* \"#utility.yul\":7083:7136   */\n      tag_311\n        /* \"#utility.yul\":7128:7135   */\n      dup6\n        /* \"#utility.yul\":7119:7125   */\n      dup3\n        /* \"#utility.yul\":7108:7117   */\n      dup7\n        /* \"#utility.yul\":7104:7126   */\n      add\n        /* \"#utility.yul\":7083:7136   */\n      tag_216\n      jump\t// in\n    tag_311:\n        /* \"#utility.yul\":7073:7136   */\n      swap2\n      pop\n        /* \"#utility.yul\":7028:7146   */\n      pop\n        /* \"#utility.yul\":6679:7153   */\n      swap3\n      pop\n      swap3\n      swap1\n      pop\n      jump\t// out\n        /* \"#utility.yul\":7159:7333   */\n    tag_223:\n        /* \"#utility.yul\":7299:7325   */\n      0x4f6e6c79206f776e65722063616e2077697468647261772e0000000000000000\n        /* \"#utility.yul\":7295:7296   */\n      0x00\n        /* \"#utility.yul\":7287:7293   */\n      dup3\n        /* \"#utility.yul\":7283:7297   */\n      add\n        /* \"#utility.yul\":7276:7326   */\n      mstore\n        /* \"#utility.yul\":7159:7333   */\n      pop\n      jump\t// out\n        /* \"#utility.yul\":7339:7705   */\n    tag_224:\n        /* \"#utility.yul\":7481:7484   */\n      0x00\n        /* \"#utility.yul\":7502:7569   */\n      tag_314\n        /* \"#utility.yul\":7566:7568   */\n      0x18\n        /* \"#utility.yul\":7561:7564   */\n      dup4\n        /* \"#utility.yul\":7502:7569   */\n      tag_210\n      jump\t// in\n    tag_314:\n        /* \"#utility.yul\":7495:7569   */\n      swap2\n      pop\n        /* \"#utility.yul\":7578:7671   */\n      tag_315\n        /* \"#utility.yul\":7667:7670   */\n      dup3\n        /* \"#utility.yul\":7578:7671   */\n      tag_223\n      jump\t// in\n    tag_315:\n        /* \"#utility.yul\":7696:7698   */\n      0x20\n        /* \"#utility.yul\":7691:7694   */\n      dup3\n        /* \"#utility.yul\":7687:7699   */\n      add\n        /* \"#utility.yul\":7680:7699   */\n      swap1\n      pop\n        /* \"#utility.yul\":7339:7705   */\n      swap2\n      swap1\n      pop\n      jump\t// out\n        /* \"#utility.yul\":7711:8130   */\n    tag_89:\n        /* \"#utility.yul\":7877:7881   */\n      0x00\n        /* \"#utility.yul\":7915:7917   */\n      0x20\n        /* \"#utility.yul\":7904:7913   */\n      dup3\n        /* \"#utility.yul\":7900:7918   */\n      add\n        /* \"#utility.yul\":7892:7918   */\n      swap1\n      pop\n        /* \"#utility.yul\":7964:7973   */\n      dup2\n        /* \"#utility.yul\":7958:7962   */\n      dup2\n        /* \"#utility.yul\":7954:7974   */\n      sub\n        /* \"#utility.yul\":7950:7951   */\n      0x00\n        /* \"#utility.yul\":7939:7948   */\n      dup4\n        /* \"#utility.yul\":7935:7952   */\n      add\n        /* \"#utility.yul\":7928:7975   */\n      mstore\n        /* \"#utility.yul\":7992:8123   */\n      tag_317\n        /* \"#utility.yul\":8118:8122   */\n      dup2\n        /* \"#utility.yul\":7992:8123   */\n      tag_224\n      jump\t// in\n    tag_317:\n        /* \"#utility.yul\":7984:8123   */\n      swap1\n      pop\n        /* \"#utility.yul\":7711:8130   */\n      swap2\n      swap1\n      pop\n      jump\t// out\n        /* \"#utility.yul\":8136:8305   */\n    tag_225:\n        /* \"#utility.yul\":8276:8297   */\n      0x496e73756666696369656e742066756e64732e00000000000000000000000000\n        /* \"#utility.yul\":8272:8273   */\n      0x00\n        /* \"#utility.yul\":8264:8270   */\n      dup3\n        /* \"#utility.yul\":8260:8274   */\n      add\n        /* \"#utility.yul\":8253:8298   */\n      mstore\n        /* \"#utility.yul\":8136:8305   */\n      pop\n      jump\t// out\n        /* \"#utility.yul\":8311:8677   */\n    tag_226:\n        /* \"#utility.yul\":8453:8456   */\n      0x00\n        /* \"#utility.yul\":8474:8541   */\n      tag_320\n        /* \"#utility.yul\":8538:8540   */\n      0x13\n        /* \"#utility.yul\":8533:8536   */\n      dup4\n        /* \"#utility.yul\":8474:8541   */\n      tag_210\n      jump\t// in\n    tag_320:\n        /* \"#utility.yul\":8467:8541   */\n      swap2\n      pop\n        /* \"#utility.yul\":8550:8643   */\n      tag_321\n        /* \"#utility.yul\":8639:8642   */\n      dup3\n        /* \"#utility.yul\":8550:8643   */\n      tag_225\n      jump\t// in\n    tag_321:\n        /* \"#utility.yul\":8668:8670   */\n      0x20\n        /* \"#utility.yul\":8663:8666   */\n      dup3\n        /* \"#utility.yul\":8659:8671   */\n      add\n        /* \"#utility.yul\":8652:8671   */\n      swap1\n      pop\n        /* \"#utility.yul\":8311:8677   */\n      swap2\n      swap1\n      pop\n      jump\t// out\n        /* \"#utility.yul\":8683:9102   */\n    tag_92:\n        /* \"#utility.yul\":8849:8853   */\n      0x00\n        /* \"#utility.yul\":8887:8889   */\n      0x20\n        /* \"#utility.yul\":8876:8885   */\n      dup3\n        /* \"#utility.yul\":8872:8890   */\n      add\n        /* \"#utility.yul\":8864:8890   */\n      swap1\n      pop\n        /* \"#utility.yul\":8936:8945   */\n      dup2\n        /* \"#utility.yul\":8930:8934   */\n      dup2\n        /* \"#utility.yul\":8926:8946   */\n      sub\n        /* \"#utility.yul\":8922:8923   */\n      0x00\n        /* \"#utility.yul\":8911:8920   */\n      dup4\n        /* \"#utility.yul\":8907:8924   */\n      add\n        /* \"#utility.yul\":8900:8947   */\n      mstore\n        /* \"#utility.yul\":8964:9095   */\n      tag_323\n        /* \"#utility.yul\":9090:9094   */\n      dup2\n        /* \"#utility.yul\":8964:9095   */\n      tag_226\n      jump\t// in\n    tag_323:\n        /* \"#utility.yul\":8956:9095   */\n      swap1\n      pop\n        /* \"#utility.yul\":8683:9102   */\n      swap2\n      swap1\n      pop\n      jump\t// out\n        /* \"#utility.yul\":9108:9288   */\n    tag_227:\n        /* \"#utility.yul\":9156:9233   */\n      0x4e487b7100000000000000000000000000000000000000000000000000000000\n        /* \"#utility.yul\":9153:9154   */\n      0x00\n        /* \"#utility.yul\":9146:9234   */\n      mstore\n        /* \"#utility.yul\":9253:9257   */\n      0x11\n        /* \"#utility.yul\":9250:9251   */\n      0x04\n        /* \"#utility.yul\":9243:9258   */\n      mstore\n        /* \"#utility.yul\":9277:9281   */\n      0x24\n        /* \"#utility.yul\":9274:9275   */\n      0x00\n        /* \"#utility.yul\":9267:9282   */\n      revert\n        /* \"#utility.yul\":9294:9488   */\n    tag_96:\n        /* \"#utility.yul\":9334:9338   */\n      0x00\n        /* \"#utility.yul\":9354:9374   */\n      tag_326\n        /* \"#utility.yul\":9372:9373   */\n      dup3\n        /* \"#utility.yul\":9354:9374   */\n      tag_202\n      jump\t// in\n    tag_326:\n        /* \"#utility.yul\":9349:9374   */\n      swap2\n      pop\n        /* \"#utility.yul\":9388:9408   */\n      tag_327\n        /* \"#utility.yul\":9406:9407   */\n      dup4\n        /* \"#utility.yul\":9388:9408   */\n      tag_202\n      jump\t// in\n    tag_327:\n        /* \"#utility.yul\":9383:9408   */\n      swap3\n      pop\n        /* \"#utility.yul\":9432:9433   */\n      dup3\n        /* \"#utility.yul\":9429:9430   */\n      dup3\n        /* \"#utility.yul\":9425:9434   */\n      sub\n        /* \"#utility.yul\":9417:9434   */\n      swap1\n      pop\n        /* \"#utility.yul\":9456:9457   */\n      dup2\n        /* \"#utility.yul\":9450:9454   */\n      dup2\n        /* \"#utility.yul\":9447:9458   */\n      gt\n        /* \"#utility.yul\":9444:9481   */\n      iszero\n      tag_328\n      jumpi\n        /* \"#utility.yul\":9461:9479   */\n      tag_329\n      tag_227\n      jump\t// in\n    tag_329:\n        /* \"#utility.yul\":9444:9481   */\n    tag_328:\n        /* \"#utility.yul\":9294:9488   */\n      swap3\n      swap2\n      pop\n      pop\n      jump\t// out\n        /* \"#utility.yul\":9494:9674   */\n    tag_228:\n        /* \"#utility.yul\":9542:9619   */\n      0x4e487b7100000000000000000000000000000000000000000000000000000000\n        /* \"#utility.yul\":9539:9540   */\n      0x00\n        /* \"#utility.yul\":9532:9620   */\n      mstore\n        /* \"#utility.yul\":9639:9643   */\n      0x22\n        /* \"#utility.yul\":9636:9637   */\n      0x04\n        /* \"#utility.yul\":9629:9644   */\n      mstore\n        /* \"#utility.yul\":9663:9667   */\n      0x24\n        /* \"#utility.yul\":9660:9661   */\n      0x00\n        /* \"#utility.yul\":9653:9668   */\n      revert\n        /* \"#utility.yul\":9680:10000   */\n    tag_99:\n        /* \"#utility.yul\":9724:9730   */\n      0x00\n        /* \"#utility.yul\":9761:9762   */\n      0x02\n        /* \"#utility.yul\":9755:9759   */\n      dup3\n        /* \"#utility.yul\":9751:9763   */\n      div\n        /* \"#utility.yul\":9741:9763   */\n      swap1\n      pop\n        /* \"#utility.yul\":9808:9809   */\n      0x01\n        /* \"#utility.yul\":9802:9806   */\n      dup3\n        /* \"#utility.yul\":9798:9810   */\n      and\n        /* \"#utility.yul\":9829:9847   */\n      dup1\n        /* \"#utility.yul\":9819:9900   */\n      tag_332\n      jumpi\n        /* \"#utility.yul\":9885:9889   */\n      0x7f\n        /* \"#utility.yul\":9877:9883   */\n      dup3\n        /* \"#utility.yul\":9873:9890   */\n      and\n        /* \"#utility.yul\":9863:9890   */\n      swap2\n      pop\n        /* \"#utility.yul\":9819:9900   */\n    tag_332:\n        /* \"#utility.yul\":9947:9949   */\n      0x20\n        /* \"#utility.yul\":9939:9945   */\n      dup3\n        /* \"#utility.yul\":9936:9950   */\n      lt\n        /* \"#utility.yul\":9916:9934   */\n      dup2\n        /* \"#utility.yul\":9913:9951   */\n      sub\n        /* \"#utility.yul\":9910:9994   */\n      tag_333\n      jumpi\n        /* \"#utility.yul\":9966:9984   */\n      tag_334\n      tag_228\n      jump\t// in\n    tag_334:\n        /* \"#utility.yul\":9910:9994   */\n    tag_333:\n        /* \"#utility.yul\":9731:10000   */\n      pop\n        /* \"#utility.yul\":9680:10000   */\n      swap2\n      swap1\n      pop\n      jump\t// out\n        /* \"#utility.yul\":10006:10448   */\n    tag_158:\n        /* \"#utility.yul\":10155:10159   */\n      0x00\n        /* \"#utility.yul\":10193:10195   */\n      0x60\n        /* \"#utility.yul\":10182:10191   */\n      dup3\n        /* \"#utility.yul\":10178:10196   */\n      add\n        /* \"#utility.yul\":10170:10196   */\n      swap1\n      pop\n        /* \"#utility.yul\":10206:10277   */\n      tag_336\n        /* \"#utility.yul\":10274:10275   */\n      0x00\n        /* \"#utility.yul\":10263:10272   */\n      dup4\n        /* \"#utility.yul\":10259:10276   */\n      add\n        /* \"#utility.yul\":10250:10256   */\n      dup7\n        /* \"#utility.yul\":10206:10277   */\n      tag_222\n      jump\t// in\n    tag_336:\n        /* \"#utility.yul\":10287:10359   */\n      tag_337\n        /* \"#utility.yul\":10355:10357   */\n      0x20\n        /* \"#utility.yul\":10344:10353   */\n      dup4\n        /* \"#utility.yul\":10340:10358   */\n      add\n        /* \"#utility.yul\":10331:10337   */\n      dup6\n        /* \"#utility.yul\":10287:10359   */\n      tag_219\n      jump\t// in\n    tag_337:\n        /* \"#utility.yul\":10369:10441   */\n      tag_338\n        /* \"#utility.yul\":10437:10439   */\n      0x40\n        /* \"#utility.yul\":10426:10435   */\n      dup4\n        /* \"#utility.yul\":10422:10440   */\n      add\n        /* \"#utility.yul\":10413:10419   */\n      dup5\n        /* \"#utility.yul\":10369:10441   */\n      tag_219\n      jump\t// in\n    tag_338:\n        /* \"#utility.yul\":10006:10448   */\n      swap5\n      swap4\n      pop\n      pop\n      pop\n      pop\n      jump\t// out\n        /* \"#utility.yul\":10454:10645   */\n    tag_192:\n        /* \"#utility.yul\":10494:10497   */\n      0x00\n        /* \"#utility.yul\":10513:10533   */\n      tag_340\n        /* \"#utility.yul\":10531:10532   */\n      dup3\n        /* \"#utility.yul\":10513:10533   */\n      tag_202\n      jump\t// in\n    tag_340:\n        /* \"#utility.yul\":10508:10533   */\n      swap2\n      pop\n        /* \"#utility.yul\":10547:10567   */\n      tag_341\n        /* \"#utility.yul\":10565:10566   */\n      dup4\n        /* \"#utility.yul\":10547:10567   */\n      tag_202\n      jump\t// in\n    tag_341:\n        /* \"#utility.yul\":10542:10567   */\n      swap3\n      pop\n        /* \"#utility.yul\":10590:10591   */\n      dup3\n        /* \"#utility.yul\":10587:10588   */\n      dup3\n        /* \"#utility.yul\":10583:10592   */\n      add\n        /* \"#utility.yul\":10576:10592   */\n      swap1\n      pop\n        /* \"#utility.yul\":10611:10614   */\n      dup1\n        /* \"#utility.yul\":10608:10609   */\n      dup3\n        /* \"#utility.yul\":10605:10615   */\n      gt\n        /* \"#utility.yul\":10602:10638   */\n      iszero\n      tag_342\n      jumpi\n        /* \"#utility.yul\":10618:10636   */\n      tag_343\n      tag_227\n      jump\t// in\n    tag_343:\n        /* \"#utility.yul\":10602:10638   */\n    tag_342:\n        /* \"#utility.yul\":10454:10645   */\n      swap3\n      swap2\n      pop\n      pop\n      jump\t// out\n\n    auxdata: 0xa26469706673582212204ae2b8f2f4082fd9c3a4c99dfac43b43db676a32e4f46c3a481c3ed53c9b1fa864736f6c634300081c0033\n}\n",
				"bytecode": {
					"linkReferences": {},
					"object": "608060405234801561000f575f5ffd5b506040516120253803806120258339818101604052810190610031919061051a565b336040518060400160405280600581526020017f46434f44450000000000000000000000000000000000000000000000000000008152506040518060400160405280600581526020017f46434f444500000000000000000000000000000000000000000000000000000081525081600390816100ad9190610779565b5080600490816100bd9190610779565b5050505f73ffffffffffffffffffffffffffffffffffffffff168173ffffffffffffffffffffffffffffffffffffffff1603610130575f6040517f1e4fbdf70000000000000000000000000000000000000000000000000000000081526004016101279190610887565b60405180910390fd5b61013f8161017a60201b60201c565b506101743361015261023d60201b60201c565b600a61015e9190610a08565b836101699190610a52565b61024560201b60201c565b50610b23565b5f60055f9054906101000a900473ffffffffffffffffffffffffffffffffffffffff1690508160055f6101000a81548173ffffffffffffffffffffffffffffffffffffffff021916908373ffffffffffffffffffffffffffffffffffffffff1602179055508173ffffffffffffffffffffffffffffffffffffffff168173ffffffffffffffffffffffffffffffffffffffff167f8be0079c531659141344cd1fd0a4f28419497f9722a3daafe3b4186f6b6457e060405160405180910390a35050565b5f6012905090565b5f73ffffffffffffffffffffffffffffffffffffffff168273ffffffffffffffffffffffffffffffffffffffff16036102b5575f6040517fec442f050000000000000000000000000000000000000000000000000000000081526004016102ac9190610887565b60405180910390fd5b6102c65f83836102ca60201b60201c565b5050565b5f73ffffffffffffffffffffffffffffffffffffffff168373ffffffffffffffffffffffffffffffffffffffff160361031a578060025f82825461030e9190610a93565b925050819055506103e8565b5f5f5f8573ffffffffffffffffffffffffffffffffffffffff1673ffffffffffffffffffffffffffffffffffffffff1681526020019081526020015f20549050818110156103a3578381836040517fe450d38c00000000000000000000000000000000000000000000000000000000815260040161039a93929190610ad5565b60405180910390fd5b8181035f5f8673ffffffffffffffffffffffffffffffffffffffff1673ffffffffffffffffffffffffffffffffffffffff1681526020019081526020015f2081905550505b5f73ffffffffffffffffffffffffffffffffffffffff168273ffffffffffffffffffffffffffffffffffffffff160361042f578060025f8282540392505081905550610479565b805f5f8473ffffffffffffffffffffffffffffffffffffffff1673ffffffffffffffffffffffffffffffffffffffff1681526020019081526020015f205f82825401925050819055505b8173ffffffffffffffffffffffffffffffffffffffff168373ffffffffffffffffffffffffffffffffffffffff167fddf252ad1be2c89b69c2b068fc378daa952ba7f163c4a11628f55a4df523b3ef836040516104d69190610b0a565b60405180910390a3505050565b5f5ffd5b5f819050919050565b6104f9816104e7565b8114610503575f5ffd5b50565b5f81519050610514816104f0565b92915050565b5f6020828403121561052f5761052e6104e3565b5b5f61053c84828501610506565b91505092915050565b5f81519050919050565b7f4e487b71000000000000000000000000000000000000000000000000000000005f52604160045260245ffd5b7f4e487b71000000000000000000000000000000000000000000000000000000005f52602260045260245ffd5b5f60028204905060018216806105c057607f821691505b6020821081036105d3576105d261057c565b5b50919050565b5f819050815f5260205f209050919050565b5f6020601f8301049050919050565b5f82821b905092915050565b5f600883026106357fffffffffffffffffffffffffffffffffffffffffffffffffffffffffffffffff826105fa565b61063f86836105fa565b95508019841693508086168417925050509392505050565b5f819050919050565b5f61067a610675610670846104e7565b610657565b6104e7565b9050919050565b5f819050919050565b61069383610660565b6106a761069f82610681565b848454610606565b825550505050565b5f5f905090565b6106be6106af565b6106c981848461068a565b505050565b5b818110156106ec576106e15f826106b6565b6001810190506106cf565b5050565b601f82111561073157610702816105d9565b61070b846105eb565b8101602085101561071a578190505b61072e610726856105eb565b8301826106ce565b50505b505050565b5f82821c905092915050565b5f6107515f1984600802610736565b1980831691505092915050565b5f6107698383610742565b9150826002028217905092915050565b61078282610545565b67ffffffffffffffff81111561079b5761079a61054f565b5b6107a582546105a9565b6107b08282856106f0565b5f60209050601f8311600181146107e1575f84156107cf578287015190505b6107d9858261075e565b865550610840565b601f1984166107ef866105d9565b5f5b82811015610816578489015182556001820191506020850194506020810190506107f1565b86831015610833578489015161082f601f891682610742565b8355505b6001600288020188555050505b505050505050565b5f73ffffffffffffffffffffffffffffffffffffffff82169050919050565b5f61087182610848565b9050919050565b61088181610867565b82525050565b5f60208201905061089a5f830184610878565b92915050565b7f4e487b71000000000000000000000000000000000000000000000000000000005f52601160045260245ffd5b5f8160011c9050919050565b5f5f8291508390505b6001851115610922578086048111156108fe576108fd6108a0565b5b600185161561090d5780820291505b808102905061091b856108cd565b94506108e2565b94509492505050565b5f8261093a57600190506109f5565b81610947575f90506109f5565b816001811461095d576002811461096757610996565b60019150506109f5565b60ff841115610979576109786108a0565b5b8360020a9150848211156109905761098f6108a0565b5b506109f5565b5060208310610133831016604e8410600b84101617156109cb5782820a9050838111156109c6576109c56108a0565b5b6109f5565b6109d884848460016108d9565b925090508184048111156109ef576109ee6108a0565b5b81810290505b9392505050565b5f60ff82169050919050565b5f610a12826104e7565b9150610a1d836109fc565b9250610a4a7fffffffffffffffffffffffffffffffffffffffffffffffffffffffffffffffff848461092b565b905092915050565b5f610a5c826104e7565b9150610a67836104e7565b9250828202610a75816104e7565b91508282048414831517610a8c57610a8b6108a0565b5b5092915050565b5f610a9d826104e7565b9150610aa8836104e7565b9250828201905080821115610ac057610abf6108a0565b5b92915050565b610acf816104e7565b82525050565b5f606082019050610ae85f830186610878565b610af56020830185610ac6565b610b026040830184610ac6565b949350505050565b5f602082019050610b1d5f830184610ac6565b92915050565b6114f580610b305f395ff3fe608060405234801561000f575f5ffd5b50600436106100fd575f3560e01c806370a0823111610095578063a9059cbb11610064578063a9059cbb14610285578063b69ef8a8146102b5578063dd62ed3e146102d3578063f2fde38b14610303576100fd565b806370a082311461020f578063715018a61461023f5780638da5cb5b1461024957806395d89b4114610267576100fd565b806323b872dd116100d157806323b872dd14610189578063313ce567146101b957806340c10f19146101d757806342966c68146101f3576100fd565b8062f714ce1461010157806306fdde031461011d578063095ea7b31461013b57806318160ddd1461016b575b5f5ffd5b61011b60048036038101906101169190610fe8565b61031f565b005b610125610439565b6040516101329190611096565b60405180910390f35b610155600480360381019061015091906110f1565b6104c9565b6040516101629190611149565b60405180910390f35b6101736104eb565b6040516101809190611171565b60405180910390f35b6101a3600480360381019061019e919061118a565b6104f4565b6040516101b09190611149565b60405180910390f35b6101c1610522565b6040516101ce91906111f5565b60405180910390f35b6101f160048036038101906101ec91906110f1565b61052a565b005b61020d6004803603810190610208919061120e565b610540565b005b61022960048036038101906102249190611239565b61054d565b6040516102369190611171565b60405180910390f35b610247610592565b005b6102516105a5565b60405161025e9190611273565b60405180910390f35b61026f6105cd565b60405161027c9190611096565b60405180910390f35b61029f600480360381019061029a91906110f1565b61065d565b6040516102ac9190611149565b60405180910390f35b6102bd61067f565b6040516102ca9190611171565b60405180910390f35b6102ed60048036038101906102e8919061128c565b610685565b6040516102fa9190611171565b60405180910390f35b61031d60048036038101906103189190611239565b610707565b005b6103276105a5565b73ffffffffffffffffffffffffffffffffffffffff163373ffffffffffffffffffffffffffffffffffffffff1614610394576040517f08c379a000000000000000000000000000000000000000000000000000000000815260040161038b90611314565b60405180910390fd5b6006548211156103d9576040517f08c379a00000000000000000000000000000000000000000000000000000000081526004016103d09061137c565b60405180910390fd5b8073ffffffffffffffffffffffffffffffffffffffff166108fc8390811502906040515f60405180830381858888f1935050505015801561041c573d5f5f3e3d5ffd5b508160065f82825461042e91906113c7565b925050819055505050565b60606003805461044890611427565b80601f016020809104026020016040519081016040528092919081815260200182805461047490611427565b80156104bf5780601f10610496576101008083540402835291602001916104bf565b820191905f5260205f20905b8154815290600101906020018083116104a257829003601f168201915b5050505050905090565b5f5f6104d361078b565b90506104e0818585610792565b600191505092915050565b5f600254905090565b5f5f6104fe61078b565b905061050b8582856107a4565b610516858585610837565b60019150509392505050565b5f6012905090565b610532610927565b61053c82826109ae565b5050565b61054a3382610a2d565b50565b5f5f5f8373ffffffffffffffffffffffffffffffffffffffff1673ffffffffffffffffffffffffffffffffffffffff1681526020019081526020015f20549050919050565b61059a610927565b6105a35f610aac565b565b5f60055f9054906101000a900473ffffffffffffffffffffffffffffffffffffffff16905090565b6060600480546105dc90611427565b80601f016020809104026020016040519081016040528092919081815260200182805461060890611427565b80156106535780601f1061062a57610100808354040283529160200191610653565b820191905f5260205f20905b81548152906001019060200180831161063657829003601f168201915b5050505050905090565b5f5f61066761078b565b9050610674818585610837565b600191505092915050565b60065481565b5f60015f8473ffffffffffffffffffffffffffffffffffffffff1673ffffffffffffffffffffffffffffffffffffffff1681526020019081526020015f205f8373ffffffffffffffffffffffffffffffffffffffff1673ffffffffffffffffffffffffffffffffffffffff1681526020019081526020015f2054905092915050565b61070f610927565b5f73ffffffffffffffffffffffffffffffffffffffff168173ffffffffffffffffffffffffffffffffffffffff160361077f575f6040517f1e4fbdf70000000000000000000000000000000000000000000000000000000081526004016107769190611273565b60405180910390fd5b61078881610aac565b50565b5f33905090565b61079f8383836001610b6f565b505050565b5f6107af8484610685565b90507fffffffffffffffffffffffffffffffffffffffffffffffffffffffffffffffff8110156108315781811015610822578281836040517ffb8f41b200000000000000000000000000000000000000000000000000000000815260040161081993929190611457565b60405180910390fd5b61083084848484035f610b6f565b5b50505050565b5f73ffffffffffffffffffffffffffffffffffffffff168373ffffffffffffffffffffffffffffffffffffffff16036108a7575f6040517f96c6fd1e00000000000000000000000000000000000000000000000000000000815260040161089e9190611273565b60405180910390fd5b5f73ffffffffffffffffffffffffffffffffffffffff168273ffffffffffffffffffffffffffffffffffffffff1603610917575f6040517fec442f0500000000000000000000000000000000000000000000000000000000815260040161090e9190611273565b60405180910390fd5b610922838383610d3e565b505050565b61092f61078b565b73ffffffffffffffffffffffffffffffffffffffff1661094d6105a5565b73ffffffffffffffffffffffffffffffffffffffff16146109ac5761097061078b565b6040517f118cdaa70000000000000000000000000000000000000000000000000000000081526004016109a39190611273565b60405180910390fd5b565b5f73ffffffffffffffffffffffffffffffffffffffff168273ffffffffffffffffffffffffffffffffffffffff1603610a1e575f6040517fec442f05000000000000000000000000000000000000000000000000000000008152600401610a159190611273565b60405180910390fd5b610a295f8383610d3e565b5050565b5f73ffffffffffffffffffffffffffffffffffffffff168273ffffffffffffffffffffffffffffffffffffffff1603610a9d575f6040517f96c6fd1e000000000000000000000000000000000000000000000000000000008152600401610a949190611273565b60405180910390fd5b610aa8825f83610d3e565b5050565b5f60055f9054906101000a900473ffffffffffffffffffffffffffffffffffffffff1690508160055f6101000a81548173ffffffffffffffffffffffffffffffffffffffff021916908373ffffffffffffffffffffffffffffffffffffffff1602179055508173ffffffffffffffffffffffffffffffffffffffff168173ffffffffffffffffffffffffffffffffffffffff167f8be0079c531659141344cd1fd0a4f28419497f9722a3daafe3b4186f6b6457e060405160405180910390a35050565b5f73ffffffffffffffffffffffffffffffffffffffff168473ffffffffffffffffffffffffffffffffffffffff1603610bdf575f6040517fe602df05000000000000000000000000000000000000000000000000000000008152600401610bd69190611273565b60405180910390fd5b5f73ffffffffffffffffffffffffffffffffffffffff168373ffffffffffffffffffffffffffffffffffffffff1603610c4f575f6040517f94280d62000000000000000000000000000000000000000000000000000000008152600401610c469190611273565b60405180910390fd5b8160015f8673ffffffffffffffffffffffffffffffffffffffff1673ffffffffffffffffffffffffffffffffffffffff1681526020019081526020015f205f8573ffffffffffffffffffffffffffffffffffffffff1673ffffffffffffffffffffffffffffffffffffffff1681526020019081526020015f20819055508015610d38578273ffffffffffffffffffffffffffffffffffffffff168473ffffffffffffffffffffffffffffffffffffffff167f8c5be1e5ebec7d5bd14f71427d1e84f3dd0314c0f7b2291e5b200ac8c7c3b92584604051610d2f9190611171565b60405180910390a35b50505050565b5f73ffffffffffffffffffffffffffffffffffffffff168373ffffffffffffffffffffffffffffffffffffffff1603610d8e578060025f828254610d82919061148c565b92505081905550610e5c565b5f5f5f8573ffffffffffffffffffffffffffffffffffffffff1673ffffffffffffffffffffffffffffffffffffffff1681526020019081526020015f2054905081811015610e17578381836040517fe450d38c000000000000000000000000000000000000000000000000000000008152600401610e0e93929190611457565b60405180910390fd5b8181035f5f8673ffffffffffffffffffffffffffffffffffffffff1673ffffffffffffffffffffffffffffffffffffffff1681526020019081526020015f2081905550505b5f73ffffffffffffffffffffffffffffffffffffffff168273ffffffffffffffffffffffffffffffffffffffff1603610ea3578060025f8282540392505081905550610eed565b805f5f8473ffffffffffffffffffffffffffffffffffffffff1673ffffffffffffffffffffffffffffffffffffffff1681526020019081526020015f205f82825401925050819055505b8173ffffffffffffffffffffffffffffffffffffffff168373ffffffffffffffffffffffffffffffffffffffff167fddf252ad1be2c89b69c2b068fc378daa952ba7f163c4a11628f55a4df523b3ef83604051610f4a9190611171565b60405180910390a3505050565b5f5ffd5b5f819050919050565b610f6d81610f5b565b8114610f77575f5ffd5b50565b5f81359050610f8881610f64565b92915050565b5f73ffffffffffffffffffffffffffffffffffffffff82169050919050565b5f610fb782610f8e565b9050919050565b610fc781610fad565b8114610fd1575f5ffd5b50565b5f81359050610fe281610fbe565b92915050565b5f5f60408385031215610ffe57610ffd610f57565b5b5f61100b85828601610f7a565b925050602061101c85828601610fd4565b9150509250929050565b5f81519050919050565b5f82825260208201905092915050565b8281835e5f83830152505050565b5f601f19601f8301169050919050565b5f61106882611026565b6110728185611030565b9350611082818560208601611040565b61108b8161104e565b840191505092915050565b5f6020820190508181035f8301526110ae818461105e565b905092915050565b5f6110c082610f8e565b9050919050565b6110d0816110b6565b81146110da575f5ffd5b50565b5f813590506110eb816110c7565b92915050565b5f5f6040838503121561110757611106610f57565b5b5f611114858286016110dd565b925050602061112585828601610f7a565b9150509250929050565b5f8115159050919050565b6111438161112f565b82525050565b5f60208201905061115c5f83018461113a565b92915050565b61116b81610f5b565b82525050565b5f6020820190506111845f830184611162565b92915050565b5f5f5f606084860312156111a1576111a0610f57565b5b5f6111ae868287016110dd565b93505060206111bf868287016110dd565b92505060406111d086828701610f7a565b9150509250925092565b5f60ff82169050919050565b6111ef816111da565b82525050565b5f6020820190506112085f8301846111e6565b92915050565b5f6020828403121561122357611222610f57565b5b5f61123084828501610f7a565b91505092915050565b5f6020828403121561124e5761124d610f57565b5b5f61125b848285016110dd565b91505092915050565b61126d816110b6565b82525050565b5f6020820190506112865f830184611264565b92915050565b5f5f604083850312156112a2576112a1610f57565b5b5f6112af858286016110dd565b92505060206112c0858286016110dd565b9150509250929050565b7f4f6e6c79206f776e65722063616e2077697468647261772e00000000000000005f82015250565b5f6112fe601883611030565b9150611309826112ca565b602082019050919050565b5f6020820190508181035f83015261132b816112f2565b9050919050565b7f496e73756666696369656e742066756e64732e000000000000000000000000005f82015250565b5f611366601383611030565b915061137182611332565b602082019050919050565b5f6020820190508181035f8301526113938161135a565b9050919050565b7f4e487b71000000000000000000000000000000000000000000000000000000005f52601160045260245ffd5b5f6113d182610f5b565b91506113dc83610f5b565b92508282039050818111156113f4576113f361139a565b5b92915050565b7f4e487b71000000000000000000000000000000000000000000000000000000005f52602260045260245ffd5b5f600282049050600182168061143e57607f821691505b602082108103611451576114506113fa565b5b50919050565b5f60608201905061146a5f830186611264565b6114776020830185611162565b6114846040830184611162565b949350505050565b5f61149682610f5b565b91506114a183610f5b565b92508282019050808211156114b9576114b861139a565b5b9291505056fea26469706673582212204ae2b8f2f4082fd9c3a4c99dfac43b43db676a32e4f46c3a481c3ed53c9b1fa864736f6c634300081c0033",
					"opcodes": "PUSH1 0x80 PUSH1 0x40 MSTORE CALLVALUE DUP1 ISZERO PUSH2 0xF JUMPI PUSH0 PUSH0 REVERT JUMPDEST POP PUSH1 0x40 MLOAD PUSH2 0x2025 CODESIZE SUB DUP1 PUSH2 0x2025 DUP4 CODECOPY DUP2 DUP2 ADD PUSH1 0x40 MSTORE DUP2 ADD SWAP1 PUSH2 0x31 SWAP2 SWAP1 PUSH2 0x51A JUMP JUMPDEST CALLER PUSH1 0x40 MLOAD DUP1 PUSH1 0x40 ADD PUSH1 0x40 MSTORE DUP1 PUSH1 0x5 DUP2 MSTORE PUSH1 0x20 ADD PUSH32 0x46434F4445000000000000000000000000000000000000000000000000000000 DUP2 MSTORE POP PUSH1 0x40 MLOAD DUP1 PUSH1 0x40 ADD PUSH1 0x40 MSTORE DUP1 PUSH1 0x5 DUP2 MSTORE PUSH1 0x20 ADD PUSH32 0x46434F4445000000000000000000000000000000000000000000000000000000 DUP2 MSTORE POP DUP2 PUSH1 0x3 SWAP1 DUP2 PUSH2 0xAD SWAP2 SWAP1 PUSH2 0x779 JUMP JUMPDEST POP DUP1 PUSH1 0x4 SWAP1 DUP2 PUSH2 0xBD SWAP2 SWAP1 PUSH2 0x779 JUMP JUMPDEST POP POP POP PUSH0 PUSH20 0xFFFFFFFFFFFFFFFFFFFFFFFFFFFFFFFFFFFFFFFF AND DUP2 PUSH20 0xFFFFFFFFFFFFFFFFFFFFFFFFFFFFFFFFFFFFFFFF AND SUB PUSH2 0x130 JUMPI PUSH0 PUSH1 0x40 MLOAD PUSH32 0x1E4FBDF700000000000000000000000000000000000000000000000000000000 DUP2 MSTORE PUSH1 0x4 ADD PUSH2 0x127 SWAP2 SWAP1 PUSH2 0x887 JUMP JUMPDEST PUSH1 0x40 MLOAD DUP1 SWAP2 SUB SWAP1 REVERT JUMPDEST PUSH2 0x13F DUP2 PUSH2 0x17A PUSH1 0x20 SHL PUSH1 0x20 SHR JUMP JUMPDEST POP PUSH2 0x174 CALLER PUSH2 0x152 PUSH2 0x23D PUSH1 0x20 SHL PUSH1 0x20 SHR JUMP JUMPDEST PUSH1 0xA PUSH2 0x15E SWAP2 SWAP1 PUSH2 0xA08 JUMP JUMPDEST DUP4 PUSH2 0x169 SWAP2 SWAP1 PUSH2 0xA52 JUMP JUMPDEST PUSH2 0x245 PUSH1 0x20 SHL PUSH1 0x20 SHR JUMP JUMPDEST POP PUSH2 0xB23 JUMP JUMPDEST PUSH0 PUSH1 0x5 PUSH0 SWAP1 SLOAD SWAP1 PUSH2 0x100 EXP SWAP1 DIV PUSH20 0xFFFFFFFFFFFFFFFFFFFFFFFFFFFFFFFFFFFFFFFF AND SWAP1 POP DUP2 PUSH1 0x5 PUSH0 PUSH2 0x100 EXP DUP2 SLOAD DUP2 PUSH20 0xFFFFFFFFFFFFFFFFFFFFFFFFFFFFFFFFFFFFFFFF MUL NOT AND SWAP1 DUP4 PUSH20 0xFFFFFFFFFFFFFFFFFFFFFFFFFFFFFFFFFFFFFFFF AND MUL OR SWAP1 SSTORE POP DUP2 PUSH20 0xFFFFFFFFFFFFFFFFFFFFFFFFFFFFFFFFFFFFFFFF AND DUP2 PUSH20 0xFFFFFFFFFFFFFFFFFFFFFFFFFFFFFFFFFFFFFFFF AND PUSH32 0x8BE0079C531659141344CD1FD0A4F28419497F9722A3DAAFE3B4186F6B6457E0 PUSH1 0x40 MLOAD PUSH1 0x40 MLOAD DUP1 SWAP2 SUB SWAP1 LOG3 POP POP JUMP JUMPDEST PUSH0 PUSH1 0x12 SWAP1 POP SWAP1 JUMP JUMPDEST PUSH0 PUSH20 0xFFFFFFFFFFFFFFFFFFFFFFFFFFFFFFFFFFFFFFFF AND DUP3 PUSH20 0xFFFFFFFFFFFFFFFFFFFFFFFFFFFFFFFFFFFFFFFF AND SUB PUSH2 0x2B5 JUMPI PUSH0 PUSH1 0x40 MLOAD PUSH32 0xEC442F0500000000000000000000000000000000000000000000000000000000 DUP2 MSTORE PUSH1 0x4 ADD PUSH2 0x2AC SWAP2 SWAP1 PUSH2 0x887 JUMP JUMPDEST PUSH1 0x40 MLOAD DUP1 SWAP2 SUB SWAP1 REVERT JUMPDEST PUSH2 0x2C6 PUSH0 DUP4 DUP4 PUSH2 0x2CA PUSH1 0x20 SHL PUSH1 0x20 SHR JUMP JUMPDEST POP POP JUMP JUMPDEST PUSH0 PUSH20 0xFFFFFFFFFFFFFFFFFFFFFFFFFFFFFFFFFFFFFFFF AND DUP4 PUSH20 0xFFFFFFFFFFFFFFFFFFFFFFFFFFFFFFFFFFFFFFFF AND SUB PUSH2 0x31A JUMPI DUP1 PUSH1 0x2 PUSH0 DUP3 DUP3 SLOAD PUSH2 0x30E SWAP2 SWAP1 PUSH2 0xA93 JUMP JUMPDEST SWAP3 POP POP DUP2 SWAP1 SSTORE POP PUSH2 0x3E8 JUMP JUMPDEST PUSH0 PUSH0 PUSH0 DUP6 PUSH20 0xFFFFFFFFFFFFFFFFFFFFFFFFFFFFFFFFFFFFFFFF AND PUSH20 0xFFFFFFFFFFFFFFFFFFFFFFFFFFFFFFFFFFFFFFFF AND DUP2 MSTORE PUSH1 0x20 ADD SWAP1 DUP2 MSTORE PUSH1 0x20 ADD PUSH0 KECCAK256 SLOAD SWAP1 POP DUP2 DUP2 LT ISZERO PUSH2 0x3A3 JUMPI DUP4 DUP2 DUP4 PUSH1 0x40 MLOAD PUSH32 0xE450D38C00000000000000000000000000000000000000000000000000000000 DUP2 MSTORE PUSH1 0x4 ADD PUSH2 0x39A SWAP4 SWAP3 SWAP2 SWAP1 PUSH2 0xAD5 JUMP JUMPDEST PUSH1 0x40 MLOAD DUP1 SWAP2 SUB SWAP1 REVERT JUMPDEST DUP2 DUP2 SUB PUSH0 PUSH0 DUP7 PUSH20 0xFFFFFFFFFFFFFFFFFFFFFFFFFFFFFFFFFFFFFFFF AND PUSH20 0xFFFFFFFFFFFFFFFFFFFFFFFFFFFFFFFFFFFFFFFF AND DUP2 MSTORE PUSH1 0x20 ADD SWAP1 DUP2 MSTORE PUSH1 0x20 ADD PUSH0 KECCAK256 DUP2 SWAP1 SSTORE POP POP JUMPDEST PUSH0 PUSH20 0xFFFFFFFFFFFFFFFFFFFFFFFFFFFFFFFFFFFFFFFF AND DUP3 PUSH20 0xFFFFFFFFFFFFFFFFFFFFFFFFFFFFFFFFFFFFFFFF AND SUB PUSH2 0x42F JUMPI DUP1 PUSH1 0x2 PUSH0 DUP3 DUP3 SLOAD SUB SWAP3 POP POP DUP2 SWAP1 SSTORE POP PUSH2 0x479 JUMP JUMPDEST DUP1 PUSH0 PUSH0 DUP5 PUSH20 0xFFFFFFFFFFFFFFFFFFFFFFFFFFFFFFFFFFFFFFFF AND PUSH20 0xFFFFFFFFFFFFFFFFFFFFFFFFFFFFFFFFFFFFFFFF AND DUP2 MSTORE PUSH1 0x20 ADD SWAP1 DUP2 MSTORE PUSH1 0x20 ADD PUSH0 KECCAK256 PUSH0 DUP3 DUP3 SLOAD ADD SWAP3 POP POP DUP2 SWAP1 SSTORE POP JUMPDEST DUP2 PUSH20 0xFFFFFFFFFFFFFFFFFFFFFFFFFFFFFFFFFFFFFFFF AND DUP4 PUSH20 0xFFFFFFFFFFFFFFFFFFFFFFFFFFFFFFFFFFFFFFFF AND PUSH32 0xDDF252AD1BE2C89B69C2B068FC378DAA952BA7F163C4A11628F55A4DF523B3EF DUP4 PUSH1 0x40 MLOAD PUSH2 0x4D6 SWAP2 SWAP1 PUSH2 0xB0A JUMP JUMPDEST PUSH1 0x40 MLOAD DUP1 SWAP2 SUB SWAP1 LOG3 POP POP POP JUMP JUMPDEST PUSH0 PUSH0 REVERT JUMPDEST PUSH0 DUP2 SWAP1 POP SWAP2 SWAP1 POP JUMP JUMPDEST PUSH2 0x4F9 DUP2 PUSH2 0x4E7 JUMP JUMPDEST DUP2 EQ PUSH2 0x503 JUMPI PUSH0 PUSH0 REVERT JUMPDEST POP JUMP JUMPDEST PUSH0 DUP2 MLOAD SWAP1 POP PUSH2 0x514 DUP2 PUSH2 0x4F0 JUMP JUMPDEST SWAP3 SWAP2 POP POP JUMP JUMPDEST PUSH0 PUSH1 0x20 DUP3 DUP5 SUB SLT ISZERO PUSH2 0x52F JUMPI PUSH2 0x52E PUSH2 0x4E3 JUMP JUMPDEST JUMPDEST PUSH0 PUSH2 0x53C DUP5 DUP3 DUP6 ADD PUSH2 0x506 JUMP JUMPDEST SWAP2 POP POP SWAP3 SWAP2 POP POP JUMP JUMPDEST PUSH0 DUP2 MLOAD SWAP1 POP SWAP2 SWAP1 POP JUMP JUMPDEST PUSH32 0x4E487B7100000000000000000000000000000000000000000000000000000000 PUSH0 MSTORE PUSH1 0x41 PUSH1 0x4 MSTORE PUSH1 0x24 PUSH0 REVERT JUMPDEST PUSH32 0x4E487B7100000000000000000000000000000000000000000000000000000000 PUSH0 MSTORE PUSH1 0x22 PUSH1 0x4 MSTORE PUSH1 0x24 PUSH0 REVERT JUMPDEST PUSH0 PUSH1 0x2 DUP3 DIV SWAP1 POP PUSH1 0x1 DUP3 AND DUP1 PUSH2 0x5C0 JUMPI PUSH1 0x7F DUP3 AND SWAP2 POP JUMPDEST PUSH1 0x20 DUP3 LT DUP2 SUB PUSH2 0x5D3 JUMPI PUSH2 0x5D2 PUSH2 0x57C JUMP JUMPDEST JUMPDEST POP SWAP2 SWAP1 POP JUMP JUMPDEST PUSH0 DUP2 SWAP1 POP DUP2 PUSH0 MSTORE PUSH1 0x20 PUSH0 KECCAK256 SWAP1 POP SWAP2 SWAP1 POP JUMP JUMPDEST PUSH0 PUSH1 0x20 PUSH1 0x1F DUP4 ADD DIV SWAP1 POP SWAP2 SWAP1 POP JUMP JUMPDEST PUSH0 DUP3 DUP3 SHL SWAP1 POP SWAP3 SWAP2 POP POP JUMP JUMPDEST PUSH0 PUSH1 0x8 DUP4 MUL PUSH2 0x635 PUSH32 0xFFFFFFFFFFFFFFFFFFFFFFFFFFFFFFFFFFFFFFFFFFFFFFFFFFFFFFFFFFFFFFFF DUP3 PUSH2 0x5FA JUMP JUMPDEST PUSH2 0x63F DUP7 DUP4 PUSH2 0x5FA JUMP JUMPDEST SWAP6 POP DUP1 NOT DUP5 AND SWAP4 POP DUP1 DUP7 AND DUP5 OR SWAP3 POP POP POP SWAP4 SWAP3 POP POP POP JUMP JUMPDEST PUSH0 DUP2 SWAP1 POP SWAP2 SWAP1 POP JUMP JUMPDEST PUSH0 PUSH2 0x67A PUSH2 0x675 PUSH2 0x670 DUP5 PUSH2 0x4E7 JUMP JUMPDEST PUSH2 0x657 JUMP JUMPDEST PUSH2 0x4E7 JUMP JUMPDEST SWAP1 POP SWAP2 SWAP1 POP JUMP JUMPDEST PUSH0 DUP2 SWAP1 POP SWAP2 SWAP1 POP JUMP JUMPDEST PUSH2 0x693 DUP4 PUSH2 0x660 JUMP JUMPDEST PUSH2 0x6A7 PUSH2 0x69F DUP3 PUSH2 0x681 JUMP JUMPDEST DUP5 DUP5 SLOAD PUSH2 0x606 JUMP JUMPDEST DUP3 SSTORE POP POP POP POP JUMP JUMPDEST PUSH0 PUSH0 SWAP1 POP SWAP1 JUMP JUMPDEST PUSH2 0x6BE PUSH2 0x6AF JUMP JUMPDEST PUSH2 0x6C9 DUP2 DUP5 DUP5 PUSH2 0x68A JUMP JUMPDEST POP POP POP JUMP JUMPDEST JUMPDEST DUP2 DUP2 LT ISZERO PUSH2 0x6EC JUMPI PUSH2 0x6E1 PUSH0 DUP3 PUSH2 0x6B6 JUMP JUMPDEST PUSH1 0x1 DUP2 ADD SWAP1 POP PUSH2 0x6CF JUMP JUMPDEST POP POP JUMP JUMPDEST PUSH1 0x1F DUP3 GT ISZERO PUSH2 0x731 JUMPI PUSH2 0x702 DUP2 PUSH2 0x5D9 JUMP JUMPDEST PUSH2 0x70B DUP5 PUSH2 0x5EB JUMP JUMPDEST DUP2 ADD PUSH1 0x20 DUP6 LT ISZERO PUSH2 0x71A JUMPI DUP2 SWAP1 POP JUMPDEST PUSH2 0x72E PUSH2 0x726 DUP6 PUSH2 0x5EB JUMP JUMPDEST DUP4 ADD DUP3 PUSH2 0x6CE JUMP JUMPDEST POP POP JUMPDEST POP POP POP JUMP JUMPDEST PUSH0 DUP3 DUP3 SHR SWAP1 POP SWAP3 SWAP2 POP POP JUMP JUMPDEST PUSH0 PUSH2 0x751 PUSH0 NOT DUP5 PUSH1 0x8 MUL PUSH2 0x736 JUMP JUMPDEST NOT DUP1 DUP4 AND SWAP2 POP POP SWAP3 SWAP2 POP POP JUMP JUMPDEST PUSH0 PUSH2 0x769 DUP4 DUP4 PUSH2 0x742 JUMP JUMPDEST SWAP2 POP DUP3 PUSH1 0x2 MUL DUP3 OR SWAP1 POP SWAP3 SWAP2 POP POP JUMP JUMPDEST PUSH2 0x782 DUP3 PUSH2 0x545 JUMP JUMPDEST PUSH8 0xFFFFFFFFFFFFFFFF DUP2 GT ISZERO PUSH2 0x79B JUMPI PUSH2 0x79A PUSH2 0x54F JUMP JUMPDEST JUMPDEST PUSH2 0x7A5 DUP3 SLOAD PUSH2 0x5A9 JUMP JUMPDEST PUSH2 0x7B0 DUP3 DUP3 DUP6 PUSH2 0x6F0 JUMP JUMPDEST PUSH0 PUSH1 0x20 SWAP1 POP PUSH1 0x1F DUP4 GT PUSH1 0x1 DUP2 EQ PUSH2 0x7E1 JUMPI PUSH0 DUP5 ISZERO PUSH2 0x7CF JUMPI DUP3 DUP8 ADD MLOAD SWAP1 POP JUMPDEST PUSH2 0x7D9 DUP6 DUP3 PUSH2 0x75E JUMP JUMPDEST DUP7 SSTORE POP PUSH2 0x840 JUMP JUMPDEST PUSH1 0x1F NOT DUP5 AND PUSH2 0x7EF DUP7 PUSH2 0x5D9 JUMP JUMPDEST PUSH0 JUMPDEST DUP3 DUP2 LT ISZERO PUSH2 0x816 JUMPI DUP5 DUP10 ADD MLOAD DUP3 SSTORE PUSH1 0x1 DUP3 ADD SWAP2 POP PUSH1 0x20 DUP6 ADD SWAP5 POP PUSH1 0x20 DUP2 ADD SWAP1 POP PUSH2 0x7F1 JUMP JUMPDEST DUP7 DUP4 LT ISZERO PUSH2 0x833 JUMPI DUP5 DUP10 ADD MLOAD PUSH2 0x82F PUSH1 0x1F DUP10 AND DUP3 PUSH2 0x742 JUMP JUMPDEST DUP4 SSTORE POP JUMPDEST PUSH1 0x1 PUSH1 0x2 DUP9 MUL ADD DUP9 SSTORE POP POP POP JUMPDEST POP POP POP POP POP POP JUMP JUMPDEST PUSH0 PUSH20 0xFFFFFFFFFFFFFFFFFFFFFFFFFFFFFFFFFFFFFFFF DUP3 AND SWAP1 POP SWAP2 SWAP1 POP JUMP JUMPDEST PUSH0 PUSH2 0x871 DUP3 PUSH2 0x848 JUMP JUMPDEST SWAP1 POP SWAP2 SWAP1 POP JUMP JUMPDEST PUSH2 0x881 DUP2 PUSH2 0x867 JUMP JUMPDEST DUP3 MSTORE POP POP JUMP JUMPDEST PUSH0 PUSH1 0x20 DUP3 ADD SWAP1 POP PUSH2 0x89A PUSH0 DUP4 ADD DUP5 PUSH2 0x878 JUMP JUMPDEST SWAP3 SWAP2 POP POP JUMP JUMPDEST PUSH32 0x4E487B7100000000000000000000000000000000000000000000000000000000 PUSH0 MSTORE PUSH1 0x11 PUSH1 0x4 MSTORE PUSH1 0x24 PUSH0 REVERT JUMPDEST PUSH0 DUP2 PUSH1 0x1 SHR SWAP1 POP SWAP2 SWAP1 POP JUMP JUMPDEST PUSH0 PUSH0 DUP3 SWAP2 POP DUP4 SWAP1 POP JUMPDEST PUSH1 0x1 DUP6 GT ISZERO PUSH2 0x922 JUMPI DUP1 DUP7 DIV DUP2 GT ISZERO PUSH2 0x8FE JUMPI PUSH2 0x8FD PUSH2 0x8A0 JUMP JUMPDEST JUMPDEST PUSH1 0x1 DUP6 AND ISZERO PUSH2 0x90D JUMPI DUP1 DUP3 MUL SWAP2 POP JUMPDEST DUP1 DUP2 MUL SWAP1 POP PUSH2 0x91B DUP6 PUSH2 0x8CD JUMP JUMPDEST SWAP5 POP PUSH2 0x8E2 JUMP JUMPDEST SWAP5 POP SWAP5 SWAP3 POP POP POP JUMP JUMPDEST PUSH0 DUP3 PUSH2 0x93A JUMPI PUSH1 0x1 SWAP1 POP PUSH2 0x9F5 JUMP JUMPDEST DUP2 PUSH2 0x947 JUMPI PUSH0 SWAP1 POP PUSH2 0x9F5 JUMP JUMPDEST DUP2 PUSH1 0x1 DUP2 EQ PUSH2 0x95D JUMPI PUSH1 0x2 DUP2 EQ PUSH2 0x967 JUMPI PUSH2 0x996 JUMP JUMPDEST PUSH1 0x1 SWAP2 POP POP PUSH2 0x9F5 JUMP JUMPDEST PUSH1 0xFF DUP5 GT ISZERO PUSH2 0x979 JUMPI PUSH2 0x978 PUSH2 0x8A0 JUMP JUMPDEST JUMPDEST DUP4 PUSH1 0x2 EXP SWAP2 POP DUP5 DUP3 GT ISZERO PUSH2 0x990 JUMPI PUSH2 0x98F PUSH2 0x8A0 JUMP JUMPDEST JUMPDEST POP PUSH2 0x9F5 JUMP JUMPDEST POP PUSH1 0x20 DUP4 LT PUSH2 0x133 DUP4 LT AND PUSH1 0x4E DUP5 LT PUSH1 0xB DUP5 LT AND OR ISZERO PUSH2 0x9CB JUMPI DUP3 DUP3 EXP SWAP1 POP DUP4 DUP2 GT ISZERO PUSH2 0x9C6 JUMPI PUSH2 0x9C5 PUSH2 0x8A0 JUMP JUMPDEST JUMPDEST PUSH2 0x9F5 JUMP JUMPDEST PUSH2 0x9D8 DUP5 DUP5 DUP5 PUSH1 0x1 PUSH2 0x8D9 JUMP JUMPDEST SWAP3 POP SWAP1 POP DUP2 DUP5 DIV DUP2 GT ISZERO PUSH2 0x9EF JUMPI PUSH2 0x9EE PUSH2 0x8A0 JUMP JUMPDEST JUMPDEST DUP2 DUP2 MUL SWAP1 POP JUMPDEST SWAP4 SWAP3 POP POP POP JUMP JUMPDEST PUSH0 PUSH1 0xFF DUP3 AND SWAP1 POP SWAP2 SWAP1 POP JUMP JUMPDEST PUSH0 PUSH2 0xA12 DUP3 PUSH2 0x4E7 JUMP JUMPDEST SWAP2 POP PUSH2 0xA1D DUP4 PUSH2 0x9FC JUMP JUMPDEST SWAP3 POP PUSH2 0xA4A PUSH32 0xFFFFFFFFFFFFFFFFFFFFFFFFFFFFFFFFFFFFFFFFFFFFFFFFFFFFFFFFFFFFFFFF DUP5 DUP5 PUSH2 0x92B JUMP JUMPDEST SWAP1 POP SWAP3 SWAP2 POP POP JUMP JUMPDEST PUSH0 PUSH2 0xA5C DUP3 PUSH2 0x4E7 JUMP JUMPDEST SWAP2 POP PUSH2 0xA67 DUP4 PUSH2 0x4E7 JUMP JUMPDEST SWAP3 POP DUP3 DUP3 MUL PUSH2 0xA75 DUP2 PUSH2 0x4E7 JUMP JUMPDEST SWAP2 POP DUP3 DUP3 DIV DUP5 EQ DUP4 ISZERO OR PUSH2 0xA8C JUMPI PUSH2 0xA8B PUSH2 0x8A0 JUMP JUMPDEST JUMPDEST POP SWAP3 SWAP2 POP POP JUMP JUMPDEST PUSH0 PUSH2 0xA9D DUP3 PUSH2 0x4E7 JUMP JUMPDEST SWAP2 POP PUSH2 0xAA8 DUP4 PUSH2 0x4E7 JUMP JUMPDEST SWAP3 POP DUP3 DUP3 ADD SWAP1 POP DUP1 DUP3 GT ISZERO PUSH2 0xAC0 JUMPI PUSH2 0xABF PUSH2 0x8A0 JUMP JUMPDEST JUMPDEST SWAP3 SWAP2 POP POP JUMP JUMPDEST PUSH2 0xACF DUP2 PUSH2 0x4E7 JUMP JUMPDEST DUP3 MSTORE POP POP JUMP JUMPDEST PUSH0 PUSH1 0x60 DUP3 ADD SWAP1 POP PUSH2 0xAE8 PUSH0 DUP4 ADD DUP7 PUSH2 0x878 JUMP JUMPDEST PUSH2 0xAF5 PUSH1 0x20 DUP4 ADD DUP6 PUSH2 0xAC6 JUMP JUMPDEST PUSH2 0xB02 PUSH1 0x40 DUP4 ADD DUP5 PUSH2 0xAC6 JUMP JUMPDEST SWAP5 SWAP4 POP POP POP POP JUMP JUMPDEST PUSH0 PUSH1 0x20 DUP3 ADD SWAP1 POP PUSH2 0xB1D PUSH0 DUP4 ADD DUP5 PUSH2 0xAC6 JUMP JUMPDEST SWAP3 SWAP2 POP POP JUMP JUMPDEST PUSH2 0x14F5 DUP1 PUSH2 0xB30 PUSH0 CODECOPY PUSH0 RETURN INVALID PUSH1 0x80 PUSH1 0x40 MSTORE CALLVALUE DUP1 ISZERO PUSH2 0xF JUMPI PUSH0 PUSH0 REVERT JUMPDEST POP PUSH1 0x4 CALLDATASIZE LT PUSH2 0xFD JUMPI PUSH0 CALLDATALOAD PUSH1 0xE0 SHR DUP1 PUSH4 0x70A08231 GT PUSH2 0x95 JUMPI DUP1 PUSH4 0xA9059CBB GT PUSH2 0x64 JUMPI DUP1 PUSH4 0xA9059CBB EQ PUSH2 0x285 JUMPI DUP1 PUSH4 0xB69EF8A8 EQ PUSH2 0x2B5 JUMPI DUP1 PUSH4 0xDD62ED3E EQ PUSH2 0x2D3 JUMPI DUP1 PUSH4 0xF2FDE38B EQ PUSH2 0x303 JUMPI PUSH2 0xFD JUMP JUMPDEST DUP1 PUSH4 0x70A08231 EQ PUSH2 0x20F JUMPI DUP1 PUSH4 0x715018A6 EQ PUSH2 0x23F JUMPI DUP1 PUSH4 0x8DA5CB5B EQ PUSH2 0x249 JUMPI DUP1 PUSH4 0x95D89B41 EQ PUSH2 0x267 JUMPI PUSH2 0xFD JUMP JUMPDEST DUP1 PUSH4 0x23B872DD GT PUSH2 0xD1 JUMPI DUP1 PUSH4 0x23B872DD EQ PUSH2 0x189 JUMPI DUP1 PUSH4 0x313CE567 EQ PUSH2 0x1B9 JUMPI DUP1 PUSH4 0x40C10F19 EQ PUSH2 0x1D7 JUMPI DUP1 PUSH4 0x42966C68 EQ PUSH2 0x1F3 JUMPI PUSH2 0xFD JUMP JUMPDEST DUP1 PUSH3 0xF714CE EQ PUSH2 0x101 JUMPI DUP1 PUSH4 0x6FDDE03 EQ PUSH2 0x11D JUMPI DUP1 PUSH4 0x95EA7B3 EQ PUSH2 0x13B JUMPI DUP1 PUSH4 0x18160DDD EQ PUSH2 0x16B JUMPI JUMPDEST PUSH0 PUSH0 REVERT JUMPDEST PUSH2 0x11B PUSH1 0x4 DUP1 CALLDATASIZE SUB DUP2 ADD SWAP1 PUSH2 0x116 SWAP2 SWAP1 PUSH2 0xFE8 JUMP JUMPDEST PUSH2 0x31F JUMP JUMPDEST STOP JUMPDEST PUSH2 0x125 PUSH2 0x439 JUMP JUMPDEST PUSH1 0x40 MLOAD PUSH2 0x132 SWAP2 SWAP1 PUSH2 0x1096 JUMP JUMPDEST PUSH1 0x40 MLOAD DUP1 SWAP2 SUB SWAP1 RETURN JUMPDEST PUSH2 0x155 PUSH1 0x4 DUP1 CALLDATASIZE SUB DUP2 ADD SWAP1 PUSH2 0x150 SWAP2 SWAP1 PUSH2 0x10F1 JUMP JUMPDEST PUSH2 0x4C9 JUMP JUMPDEST PUSH1 0x40 MLOAD PUSH2 0x162 SWAP2 SWAP1 PUSH2 0x1149 JUMP JUMPDEST PUSH1 0x40 MLOAD DUP1 SWAP2 SUB SWAP1 RETURN JUMPDEST PUSH2 0x173 PUSH2 0x4EB JUMP JUMPDEST PUSH1 0x40 MLOAD PUSH2 0x180 SWAP2 SWAP1 PUSH2 0x1171 JUMP JUMPDEST PUSH1 0x40 MLOAD DUP1 SWAP2 SUB SWAP1 RETURN JUMPDEST PUSH2 0x1A3 PUSH1 0x4 DUP1 CALLDATASIZE SUB DUP2 ADD SWAP1 PUSH2 0x19E SWAP2 SWAP1 PUSH2 0x118A JUMP JUMPDEST PUSH2 0x4F4 JUMP JUMPDEST PUSH1 0x40 MLOAD PUSH2 0x1B0 SWAP2 SWAP1 PUSH2 0x1149 JUMP JUMPDEST PUSH1 0x40 MLOAD DUP1 SWAP2 SUB SWAP1 RETURN JUMPDEST PUSH2 0x1C1 PUSH2 0x522 JUMP JUMPDEST PUSH1 0x40 MLOAD PUSH2 0x1CE SWAP2 SWAP1 PUSH2 0x11F5 JUMP JUMPDEST PUSH1 0x40 MLOAD DUP1 SWAP2 SUB SWAP1 RETURN JUMPDEST PUSH2 0x1F1 PUSH1 0x4 DUP1 CALLDATASIZE SUB DUP2 ADD SWAP1 PUSH2 0x1EC SWAP2 SWAP1 PUSH2 0x10F1 JUMP JUMPDEST PUSH2 0x52A JUMP JUMPDEST STOP JUMPDEST PUSH2 0x20D PUSH1 0x4 DUP1 CALLDATASIZE SUB DUP2 ADD SWAP1 PUSH2 0x208 SWAP2 SWAP1 PUSH2 0x120E JUMP JUMPDEST PUSH2 0x540 JUMP JUMPDEST STOP JUMPDEST PUSH2 0x229 PUSH1 0x4 DUP1 CALLDATASIZE SUB DUP2 ADD SWAP1 PUSH2 0x224 SWAP2 SWAP1 PUSH2 0x1239 JUMP JUMPDEST PUSH2 0x54D JUMP JUMPDEST PUSH1 0x40 MLOAD PUSH2 0x236 SWAP2 SWAP1 PUSH2 0x1171 JUMP JUMPDEST PUSH1 0x40 MLOAD DUP1 SWAP2 SUB SWAP1 RETURN JUMPDEST PUSH2 0x247 PUSH2 0x592 JUMP JUMPDEST STOP JUMPDEST PUSH2 0x251 PUSH2 0x5A5 JUMP JUMPDEST PUSH1 0x40 MLOAD PUSH2 0x25E SWAP2 SWAP1 PUSH2 0x1273 JUMP JUMPDEST PUSH1 0x40 MLOAD DUP1 SWAP2 SUB SWAP1 RETURN JUMPDEST PUSH2 0x26F PUSH2 0x5CD JUMP JUMPDEST PUSH1 0x40 MLOAD PUSH2 0x27C SWAP2 SWAP1 PUSH2 0x1096 JUMP JUMPDEST PUSH1 0x40 MLOAD DUP1 SWAP2 SUB SWAP1 RETURN JUMPDEST PUSH2 0x29F PUSH1 0x4 DUP1 CALLDATASIZE SUB DUP2 ADD SWAP1 PUSH2 0x29A SWAP2 SWAP1 PUSH2 0x10F1 JUMP JUMPDEST PUSH2 0x65D JUMP JUMPDEST PUSH1 0x40 MLOAD PUSH2 0x2AC SWAP2 SWAP1 PUSH2 0x1149 JUMP JUMPDEST PUSH1 0x40 MLOAD DUP1 SWAP2 SUB SWAP1 RETURN JUMPDEST PUSH2 0x2BD PUSH2 0x67F JUMP JUMPDEST PUSH1 0x40 MLOAD PUSH2 0x2CA SWAP2 SWAP1 PUSH2 0x1171 JUMP JUMPDEST PUSH1 0x40 MLOAD DUP1 SWAP2 SUB SWAP1 RETURN JUMPDEST PUSH2 0x2ED PUSH1 0x4 DUP1 CALLDATASIZE SUB DUP2 ADD SWAP1 PUSH2 0x2E8 SWAP2 SWAP1 PUSH2 0x128C JUMP JUMPDEST PUSH2 0x685 JUMP JUMPDEST PUSH1 0x40 MLOAD PUSH2 0x2FA SWAP2 SWAP1 PUSH2 0x1171 JUMP JUMPDEST PUSH1 0x40 MLOAD DUP1 SWAP2 SUB SWAP1 RETURN JUMPDEST PUSH2 0x31D PUSH1 0x4 DUP1 CALLDATASIZE SUB DUP2 ADD SWAP1 PUSH2 0x318 SWAP2 SWAP1 PUSH2 0x1239 JUMP JUMPDEST PUSH2 0x707 JUMP JUMPDEST STOP JUMPDEST PUSH2 0x327 PUSH2 0x5A5 JUMP JUMPDEST PUSH20 0xFFFFFFFFFFFFFFFFFFFFFFFFFFFFFFFFFFFFFFFF AND CALLER PUSH20 0xFFFFFFFFFFFFFFFFFFFFFFFFFFFFFFFFFFFFFFFF AND EQ PUSH2 0x394 JUMPI PUSH1 0x40 MLOAD PUSH32 0x8C379A000000000000000000000000000000000000000000000000000000000 DUP2 MSTORE PUSH1 0x4 ADD PUSH2 0x38B SWAP1 PUSH2 0x1314 JUMP JUMPDEST PUSH1 0x40 MLOAD DUP1 SWAP2 SUB SWAP1 REVERT JUMPDEST PUSH1 0x6 SLOAD DUP3 GT ISZERO PUSH2 0x3D9 JUMPI PUSH1 0x40 MLOAD PUSH32 0x8C379A000000000000000000000000000000000000000000000000000000000 DUP2 MSTORE PUSH1 0x4 ADD PUSH2 0x3D0 SWAP1 PUSH2 0x137C JUMP JUMPDEST PUSH1 0x40 MLOAD DUP1 SWAP2 SUB SWAP1 REVERT JUMPDEST DUP1 PUSH20 0xFFFFFFFFFFFFFFFFFFFFFFFFFFFFFFFFFFFFFFFF AND PUSH2 0x8FC DUP4 SWAP1 DUP2 ISZERO MUL SWAP1 PUSH1 0x40 MLOAD PUSH0 PUSH1 0x40 MLOAD DUP1 DUP4 SUB DUP2 DUP6 DUP9 DUP9 CALL SWAP4 POP POP POP POP ISZERO DUP1 ISZERO PUSH2 0x41C JUMPI RETURNDATASIZE PUSH0 PUSH0 RETURNDATACOPY RETURNDATASIZE PUSH0 REVERT JUMPDEST POP DUP2 PUSH1 0x6 PUSH0 DUP3 DUP3 SLOAD PUSH2 0x42E SWAP2 SWAP1 PUSH2 0x13C7 JUMP JUMPDEST SWAP3 POP POP DUP2 SWAP1 SSTORE POP POP POP JUMP JUMPDEST PUSH1 0x60 PUSH1 0x3 DUP1 SLOAD PUSH2 0x448 SWAP1 PUSH2 0x1427 JUMP JUMPDEST DUP1 PUSH1 0x1F ADD PUSH1 0x20 DUP1 SWAP2 DIV MUL PUSH1 0x20 ADD PUSH1 0x40 MLOAD SWAP1 DUP2 ADD PUSH1 0x40 MSTORE DUP1 SWAP3 SWAP2 SWAP1 DUP2 DUP2 MSTORE PUSH1 0x20 ADD DUP3 DUP1 SLOAD PUSH2 0x474 SWAP1 PUSH2 0x1427 JUMP JUMPDEST DUP1 ISZERO PUSH2 0x4BF JUMPI DUP1 PUSH1 0x1F LT PUSH2 0x496 JUMPI PUSH2 0x100 DUP1 DUP4 SLOAD DIV MUL DUP4 MSTORE SWAP2 PUSH1 0x20 ADD SWAP2 PUSH2 0x4BF JUMP JUMPDEST DUP3 ADD SWAP2 SWAP1 PUSH0 MSTORE PUSH1 0x20 PUSH0 KECCAK256 SWAP1 JUMPDEST DUP2 SLOAD DUP2 MSTORE SWAP1 PUSH1 0x1 ADD SWAP1 PUSH1 0x20 ADD DUP1 DUP4 GT PUSH2 0x4A2 JUMPI DUP3 SWAP1 SUB PUSH1 0x1F AND DUP3 ADD SWAP2 JUMPDEST POP POP POP POP POP SWAP1 POP SWAP1 JUMP JUMPDEST PUSH0 PUSH0 PUSH2 0x4D3 PUSH2 0x78B JUMP JUMPDEST SWAP1 POP PUSH2 0x4E0 DUP2 DUP6 DUP6 PUSH2 0x792 JUMP JUMPDEST PUSH1 0x1 SWAP2 POP POP SWAP3 SWAP2 POP POP JUMP JUMPDEST PUSH0 PUSH1 0x2 SLOAD SWAP1 POP SWAP1 JUMP JUMPDEST PUSH0 PUSH0 PUSH2 0x4FE PUSH2 0x78B JUMP JUMPDEST SWAP1 POP PUSH2 0x50B DUP6 DUP3 DUP6 PUSH2 0x7A4 JUMP JUMPDEST PUSH2 0x516 DUP6 DUP6 DUP6 PUSH2 0x837 JUMP JUMPDEST PUSH1 0x1 SWAP2 POP POP SWAP4 SWAP3 POP POP POP JUMP JUMPDEST PUSH0 PUSH1 0x12 SWAP1 POP SWAP1 JUMP JUMPDEST PUSH2 0x532 PUSH2 0x927 JUMP JUMPDEST PUSH2 0x53C DUP3 DUP3 PUSH2 0x9AE JUMP JUMPDEST POP POP JUMP JUMPDEST PUSH2 0x54A CALLER DUP3 PUSH2 0xA2D JUMP JUMPDEST POP JUMP JUMPDEST PUSH0 PUSH0 PUSH0 DUP4 PUSH20 0xFFFFFFFFFFFFFFFFFFFFFFFFFFFFFFFFFFFFFFFF AND PUSH20 0xFFFFFFFFFFFFFFFFFFFFFFFFFFFFFFFFFFFFFFFF AND DUP2 MSTORE PUSH1 0x20 ADD SWAP1 DUP2 MSTORE PUSH1 0x20 ADD PUSH0 KECCAK256 SLOAD SWAP1 POP SWAP2 SWAP1 POP JUMP JUMPDEST PUSH2 0x59A PUSH2 0x927 JUMP JUMPDEST PUSH2 0x5A3 PUSH0 PUSH2 0xAAC JUMP JUMPDEST JUMP JUMPDEST PUSH0 PUSH1 0x5 PUSH0 SWAP1 SLOAD SWAP1 PUSH2 0x100 EXP SWAP1 DIV PUSH20 0xFFFFFFFFFFFFFFFFFFFFFFFFFFFFFFFFFFFFFFFF AND SWAP1 POP SWAP1 JUMP JUMPDEST PUSH1 0x60 PUSH1 0x4 DUP1 SLOAD PUSH2 0x5DC SWAP1 PUSH2 0x1427 JUMP JUMPDEST DUP1 PUSH1 0x1F ADD PUSH1 0x20 DUP1 SWAP2 DIV MUL PUSH1 0x20 ADD PUSH1 0x40 MLOAD SWAP1 DUP2 ADD PUSH1 0x40 MSTORE DUP1 SWAP3 SWAP2 SWAP1 DUP2 DUP2 MSTORE PUSH1 0x20 ADD DUP3 DUP1 SLOAD PUSH2 0x608 SWAP1 PUSH2 0x1427 JUMP JUMPDEST DUP1 ISZERO PUSH2 0x653 JUMPI DUP1 PUSH1 0x1F LT PUSH2 0x62A JUMPI PUSH2 0x100 DUP1 DUP4 SLOAD DIV MUL DUP4 MSTORE SWAP2 PUSH1 0x20 ADD SWAP2 PUSH2 0x653 JUMP JUMPDEST DUP3 ADD SWAP2 SWAP1 PUSH0 MSTORE PUSH1 0x20 PUSH0 KECCAK256 SWAP1 JUMPDEST DUP2 SLOAD DUP2 MSTORE SWAP1 PUSH1 0x1 ADD SWAP1 PUSH1 0x20 ADD DUP1 DUP4 GT PUSH2 0x636 JUMPI DUP3 SWAP1 SUB PUSH1 0x1F AND DUP3 ADD SWAP2 JUMPDEST POP POP POP POP POP SWAP1 POP SWAP1 JUMP JUMPDEST PUSH0 PUSH0 PUSH2 0x667 PUSH2 0x78B JUMP JUMPDEST SWAP1 POP PUSH2 0x674 DUP2 DUP6 DUP6 PUSH2 0x837 JUMP JUMPDEST PUSH1 0x1 SWAP2 POP POP SWAP3 SWAP2 POP POP JUMP JUMPDEST PUSH1 0x6 SLOAD DUP2 JUMP JUMPDEST PUSH0 PUSH1 0x1 PUSH0 DUP5 PUSH20 0xFFFFFFFFFFFFFFFFFFFFFFFFFFFFFFFFFFFFFFFF AND PUSH20 0xFFFFFFFFFFFFFFFFFFFFFFFFFFFFFFFFFFFFFFFF AND DUP2 MSTORE PUSH1 0x20 ADD SWAP1 DUP2 MSTORE PUSH1 0x20 ADD PUSH0 KECCAK256 PUSH0 DUP4 PUSH20 0xFFFFFFFFFFFFFFFFFFFFFFFFFFFFFFFFFFFFFFFF AND PUSH20 0xFFFFFFFFFFFFFFFFFFFFFFFFFFFFFFFFFFFFFFFF AND DUP2 MSTORE PUSH1 0x20 ADD SWAP1 DUP2 MSTORE PUSH1 0x20 ADD PUSH0 KECCAK256 SLOAD SWAP1 POP SWAP3 SWAP2 POP POP JUMP JUMPDEST PUSH2 0x70F PUSH2 0x927 JUMP JUMPDEST PUSH0 PUSH20 0xFFFFFFFFFFFFFFFFFFFFFFFFFFFFFFFFFFFFFFFF AND DUP2 PUSH20 0xFFFFFFFFFFFFFFFFFFFFFFFFFFFFFFFFFFFFFFFF AND SUB PUSH2 0x77F JUMPI PUSH0 PUSH1 0x40 MLOAD PUSH32 0x1E4FBDF700000000000000000000000000000000000000000000000000000000 DUP2 MSTORE PUSH1 0x4 ADD PUSH2 0x776 SWAP2 SWAP1 PUSH2 0x1273 JUMP JUMPDEST PUSH1 0x40 MLOAD DUP1 SWAP2 SUB SWAP1 REVERT JUMPDEST PUSH2 0x788 DUP2 PUSH2 0xAAC JUMP JUMPDEST POP JUMP JUMPDEST PUSH0 CALLER SWAP1 POP SWAP1 JUMP JUMPDEST PUSH2 0x79F DUP4 DUP4 DUP4 PUSH1 0x1 PUSH2 0xB6F JUMP JUMPDEST POP POP POP JUMP JUMPDEST PUSH0 PUSH2 0x7AF DUP5 DUP5 PUSH2 0x685 JUMP JUMPDEST SWAP1 POP PUSH32 0xFFFFFFFFFFFFFFFFFFFFFFFFFFFFFFFFFFFFFFFFFFFFFFFFFFFFFFFFFFFFFFFF DUP2 LT ISZERO PUSH2 0x831 JUMPI DUP2 DUP2 LT ISZERO PUSH2 0x822 JUMPI DUP3 DUP2 DUP4 PUSH1 0x40 MLOAD PUSH32 0xFB8F41B200000000000000000000000000000000000000000000000000000000 DUP2 MSTORE PUSH1 0x4 ADD PUSH2 0x819 SWAP4 SWAP3 SWAP2 SWAP1 PUSH2 0x1457 JUMP JUMPDEST PUSH1 0x40 MLOAD DUP1 SWAP2 SUB SWAP1 REVERT JUMPDEST PUSH2 0x830 DUP5 DUP5 DUP5 DUP5 SUB PUSH0 PUSH2 0xB6F JUMP JUMPDEST JUMPDEST POP POP POP POP JUMP JUMPDEST PUSH0 PUSH20 0xFFFFFFFFFFFFFFFFFFFFFFFFFFFFFFFFFFFFFFFF AND DUP4 PUSH20 0xFFFFFFFFFFFFFFFFFFFFFFFFFFFFFFFFFFFFFFFF AND SUB PUSH2 0x8A7 JUMPI PUSH0 PUSH1 0x40 MLOAD PUSH32 0x96C6FD1E00000000000000000000000000000000000000000000000000000000 DUP2 MSTORE PUSH1 0x4 ADD PUSH2 0x89E SWAP2 SWAP1 PUSH2 0x1273 JUMP JUMPDEST PUSH1 0x40 MLOAD DUP1 SWAP2 SUB SWAP1 REVERT JUMPDEST PUSH0 PUSH20 0xFFFFFFFFFFFFFFFFFFFFFFFFFFFFFFFFFFFFFFFF AND DUP3 PUSH20 0xFFFFFFFFFFFFFFFFFFFFFFFFFFFFFFFFFFFFFFFF AND SUB PUSH2 0x917 JUMPI PUSH0 PUSH1 0x40 MLOAD PUSH32 0xEC442F0500000000000000000000000000000000000000000000000000000000 DUP2 MSTORE PUSH1 0x4 ADD PUSH2 0x90E SWAP2 SWAP1 PUSH2 0x1273 JUMP JUMPDEST PUSH1 0x40 MLOAD DUP1 SWAP2 SUB SWAP1 REVERT JUMPDEST PUSH2 0x922 DUP4 DUP4 DUP4 PUSH2 0xD3E JUMP JUMPDEST POP POP POP JUMP JUMPDEST PUSH2 0x92F PUSH2 0x78B JUMP JUMPDEST PUSH20 0xFFFFFFFFFFFFFFFFFFFFFFFFFFFFFFFFFFFFFFFF AND PUSH2 0x94D PUSH2 0x5A5 JUMP JUMPDEST PUSH20 0xFFFFFFFFFFFFFFFFFFFFFFFFFFFFFFFFFFFFFFFF AND EQ PUSH2 0x9AC JUMPI PUSH2 0x970 PUSH2 0x78B JUMP JUMPDEST PUSH1 0x40 MLOAD PUSH32 0x118CDAA700000000000000000000000000000000000000000000000000000000 DUP2 MSTORE PUSH1 0x4 ADD PUSH2 0x9A3 SWAP2 SWAP1 PUSH2 0x1273 JUMP JUMPDEST PUSH1 0x40 MLOAD DUP1 SWAP2 SUB SWAP1 REVERT JUMPDEST JUMP JUMPDEST PUSH0 PUSH20 0xFFFFFFFFFFFFFFFFFFFFFFFFFFFFFFFFFFFFFFFF AND DUP3 PUSH20 0xFFFFFFFFFFFFFFFFFFFFFFFFFFFFFFFFFFFFFFFF AND SUB PUSH2 0xA1E JUMPI PUSH0 PUSH1 0x40 MLOAD PUSH32 0xEC442F0500000000000000000000000000000000000000000000000000000000 DUP2 MSTORE PUSH1 0x4 ADD PUSH2 0xA15 SWAP2 SWAP1 PUSH2 0x1273 JUMP JUMPDEST PUSH1 0x40 MLOAD DUP1 SWAP2 SUB SWAP1 REVERT JUMPDEST PUSH2 0xA29 PUSH0 DUP4 DUP4 PUSH2 0xD3E JUMP JUMPDEST POP POP JUMP JUMPDEST PUSH0 PUSH20 0xFFFFFFFFFFFFFFFFFFFFFFFFFFFFFFFFFFFFFFFF AND DUP3 PUSH20 0xFFFFFFFFFFFFFFFFFFFFFFFFFFFFFFFFFFFFFFFF AND SUB PUSH2 0xA9D JUMPI PUSH0 PUSH1 0x40 MLOAD PUSH32 0x96C6FD1E00000000000000000000000000000000000000000000000000000000 DUP2 MSTORE PUSH1 0x4 ADD PUSH2 0xA94 SWAP2 SWAP1 PUSH2 0x1273 JUMP JUMPDEST PUSH1 0x40 MLOAD DUP1 SWAP2 SUB SWAP1 REVERT JUMPDEST PUSH2 0xAA8 DUP3 PUSH0 DUP4 PUSH2 0xD3E JUMP JUMPDEST POP POP JUMP JUMPDEST PUSH0 PUSH1 0x5 PUSH0 SWAP1 SLOAD SWAP1 PUSH2 0x100 EXP SWAP1 DIV PUSH20 0xFFFFFFFFFFFFFFFFFFFFFFFFFFFFFFFFFFFFFFFF AND SWAP1 POP DUP2 PUSH1 0x5 PUSH0 PUSH2 0x100 EXP DUP2 SLOAD DUP2 PUSH20 0xFFFFFFFFFFFFFFFFFFFFFFFFFFFFFFFFFFFFFFFF MUL NOT AND SWAP1 DUP4 PUSH20 0xFFFFFFFFFFFFFFFFFFFFFFFFFFFFFFFFFFFFFFFF AND MUL OR SWAP1 SSTORE POP DUP2 PUSH20 0xFFFFFFFFFFFFFFFFFFFFFFFFFFFFFFFFFFFFFFFF AND DUP2 PUSH20 0xFFFFFFFFFFFFFFFFFFFFFFFFFFFFFFFFFFFFFFFF AND PUSH32 0x8BE0079C531659141344CD1FD0A4F28419497F9722A3DAAFE3B4186F6B6457E0 PUSH1 0x40 MLOAD PUSH1 0x40 MLOAD DUP1 SWAP2 SUB SWAP1 LOG3 POP POP JUMP JUMPDEST PUSH0 PUSH20 0xFFFFFFFFFFFFFFFFFFFFFFFFFFFFFFFFFFFFFFFF AND DUP5 PUSH20 0xFFFFFFFFFFFFFFFFFFFFFFFFFFFFFFFFFFFFFFFF AND SUB PUSH2 0xBDF JUMPI PUSH0 PUSH1 0x40 MLOAD PUSH32 0xE602DF0500000000000000000000000000000000000000000000000000000000 DUP2 MSTORE PUSH1 0x4 ADD PUSH2 0xBD6 SWAP2 SWAP1 PUSH2 0x1273 JUMP JUMPDEST PUSH1 0x40 MLOAD DUP1 SWAP2 SUB SWAP1 REVERT JUMPDEST PUSH0 PUSH20 0xFFFFFFFFFFFFFFFFFFFFFFFFFFFFFFFFFFFFFFFF AND DUP4 PUSH20 0xFFFFFFFFFFFFFFFFFFFFFFFFFFFFFFFFFFFFFFFF AND SUB PUSH2 0xC4F JUMPI PUSH0 PUSH1 0x40 MLOAD PUSH32 0x94280D6200000000000000000000000000000000000000000000000000000000 DUP2 MSTORE PUSH1 0x4 ADD PUSH2 0xC46 SWAP2 SWAP1 PUSH2 0x1273 JUMP JUMPDEST PUSH1 0x40 MLOAD DUP1 SWAP2 SUB SWAP1 REVERT JUMPDEST DUP2 PUSH1 0x1 PUSH0 DUP7 PUSH20 0xFFFFFFFFFFFFFFFFFFFFFFFFFFFFFFFFFFFFFFFF AND PUSH20 0xFFFFFFFFFFFFFFFFFFFFFFFFFFFFFFFFFFFFFFFF AND DUP2 MSTORE PUSH1 0x20 ADD SWAP1 DUP2 MSTORE PUSH1 0x20 ADD PUSH0 KECCAK256 PUSH0 DUP6 PUSH20 0xFFFFFFFFFFFFFFFFFFFFFFFFFFFFFFFFFFFFFFFF AND PUSH20 0xFFFFFFFFFFFFFFFFFFFFFFFFFFFFFFFFFFFFFFFF AND DUP2 MSTORE PUSH1 0x20 ADD SWAP1 DUP2 MSTORE PUSH1 0x20 ADD PUSH0 KECCAK256 DUP2 SWAP1 SSTORE POP DUP1 ISZERO PUSH2 0xD38 JUMPI DUP3 PUSH20 0xFFFFFFFFFFFFFFFFFFFFFFFFFFFFFFFFFFFFFFFF AND DUP5 PUSH20 0xFFFFFFFFFFFFFFFFFFFFFFFFFFFFFFFFFFFFFFFF AND PUSH32 0x8C5BE1E5EBEC7D5BD14F71427D1E84F3DD0314C0F7B2291E5B200AC8C7C3B925 DUP5 PUSH1 0x40 MLOAD PUSH2 0xD2F SWAP2 SWAP1 PUSH2 0x1171 JUMP JUMPDEST PUSH1 0x40 MLOAD DUP1 SWAP2 SUB SWAP1 LOG3 JUMPDEST POP POP POP POP JUMP JUMPDEST PUSH0 PUSH20 0xFFFFFFFFFFFFFFFFFFFFFFFFFFFFFFFFFFFFFFFF AND DUP4 PUSH20 0xFFFFFFFFFFFFFFFFFFFFFFFFFFFFFFFFFFFFFFFF AND SUB PUSH2 0xD8E JUMPI DUP1 PUSH1 0x2 PUSH0 DUP3 DUP3 SLOAD PUSH2 0xD82 SWAP2 SWAP1 PUSH2 0x148C JUMP JUMPDEST SWAP3 POP POP DUP2 SWAP1 SSTORE POP PUSH2 0xE5C JUMP JUMPDEST PUSH0 PUSH0 PUSH0 DUP6 PUSH20 0xFFFFFFFFFFFFFFFFFFFFFFFFFFFFFFFFFFFFFFFF AND PUSH20 0xFFFFFFFFFFFFFFFFFFFFFFFFFFFFFFFFFFFFFFFF AND DUP2 MSTORE PUSH1 0x20 ADD SWAP1 DUP2 MSTORE PUSH1 0x20 ADD PUSH0 KECCAK256 SLOAD SWAP1 POP DUP2 DUP2 LT ISZERO PUSH2 0xE17 JUMPI DUP4 DUP2 DUP4 PUSH1 0x40 MLOAD PUSH32 0xE450D38C00000000000000000000000000000000000000000000000000000000 DUP2 MSTORE PUSH1 0x4 ADD PUSH2 0xE0E SWAP4 SWAP3 SWAP2 SWAP1 PUSH2 0x1457 JUMP JUMPDEST PUSH1 0x40 MLOAD DUP1 SWAP2 SUB SWAP1 REVERT JUMPDEST DUP2 DUP2 SUB PUSH0 PUSH0 DUP7 PUSH20 0xFFFFFFFFFFFFFFFFFFFFFFFFFFFFFFFFFFFFFFFF AND PUSH20 0xFFFFFFFFFFFFFFFFFFFFFFFFFFFFFFFFFFFFFFFF AND DUP2 MSTORE PUSH1 0x20 ADD SWAP1 DUP2 MSTORE PUSH1 0x20 ADD PUSH0 KECCAK256 DUP2 SWAP1 SSTORE POP POP JUMPDEST PUSH0 PUSH20 0xFFFFFFFFFFFFFFFFFFFFFFFFFFFFFFFFFFFFFFFF AND DUP3 PUSH20 0xFFFFFFFFFFFFFFFFFFFFFFFFFFFFFFFFFFFFFFFF AND SUB PUSH2 0xEA3 JUMPI DUP1 PUSH1 0x2 PUSH0 DUP3 DUP3 SLOAD SUB SWAP3 POP POP DUP2 SWAP1 SSTORE POP PUSH2 0xEED JUMP JUMPDEST DUP1 PUSH0 PUSH0 DUP5 PUSH20 0xFFFFFFFFFFFFFFFFFFFFFFFFFFFFFFFFFFFFFFFF AND PUSH20 0xFFFFFFFFFFFFFFFFFFFFFFFFFFFFFFFFFFFFFFFF AND DUP2 MSTORE PUSH1 0x20 ADD SWAP1 DUP2 MSTORE PUSH1 0x20 ADD PUSH0 KECCAK256 PUSH0 DUP3 DUP3 SLOAD ADD SWAP3 POP POP DUP2 SWAP1 SSTORE POP JUMPDEST DUP2 PUSH20 0xFFFFFFFFFFFFFFFFFFFFFFFFFFFFFFFFFFFFFFFF AND DUP4 PUSH20 0xFFFFFFFFFFFFFFFFFFFFFFFFFFFFFFFFFFFFFFFF AND PUSH32 0xDDF252AD1BE2C89B69C2B068FC378DAA952BA7F163C4A11628F55A4DF523B3EF DUP4 PUSH1 0x40 MLOAD PUSH2 0xF4A SWAP2 SWAP1 PUSH2 0x1171 JUMP JUMPDEST PUSH1 0x40 MLOAD DUP1 SWAP2 SUB SWAP1 LOG3 POP POP POP JUMP JUMPDEST PUSH0 PUSH0 REVERT JUMPDEST PUSH0 DUP2 SWAP1 POP SWAP2 SWAP1 POP JUMP JUMPDEST PUSH2 0xF6D DUP2 PUSH2 0xF5B JUMP JUMPDEST DUP2 EQ PUSH2 0xF77 JUMPI PUSH0 PUSH0 REVERT JUMPDEST POP JUMP JUMPDEST PUSH0 DUP2 CALLDATALOAD SWAP1 POP PUSH2 0xF88 DUP2 PUSH2 0xF64 JUMP JUMPDEST SWAP3 SWAP2 POP POP JUMP JUMPDEST PUSH0 PUSH20 0xFFFFFFFFFFFFFFFFFFFFFFFFFFFFFFFFFFFFFFFF DUP3 AND SWAP1 POP SWAP2 SWAP1 POP JUMP JUMPDEST PUSH0 PUSH2 0xFB7 DUP3 PUSH2 0xF8E JUMP JUMPDEST SWAP1 POP SWAP2 SWAP1 POP JUMP JUMPDEST PUSH2 0xFC7 DUP2 PUSH2 0xFAD JUMP JUMPDEST DUP2 EQ PUSH2 0xFD1 JUMPI PUSH0 PUSH0 REVERT JUMPDEST POP JUMP JUMPDEST PUSH0 DUP2 CALLDATALOAD SWAP1 POP PUSH2 0xFE2 DUP2 PUSH2 0xFBE JUMP JUMPDEST SWAP3 SWAP2 POP POP JUMP JUMPDEST PUSH0 PUSH0 PUSH1 0x40 DUP4 DUP6 SUB SLT ISZERO PUSH2 0xFFE JUMPI PUSH2 0xFFD PUSH2 0xF57 JUMP JUMPDEST JUMPDEST PUSH0 PUSH2 0x100B DUP6 DUP3 DUP7 ADD PUSH2 0xF7A JUMP JUMPDEST SWAP3 POP POP PUSH1 0x20 PUSH2 0x101C DUP6 DUP3 DUP7 ADD PUSH2 0xFD4 JUMP JUMPDEST SWAP2 POP POP SWAP3 POP SWAP3 SWAP1 POP JUMP JUMPDEST PUSH0 DUP2 MLOAD SWAP1 POP SWAP2 SWAP1 POP JUMP JUMPDEST PUSH0 DUP3 DUP3 MSTORE PUSH1 0x20 DUP3 ADD SWAP1 POP SWAP3 SWAP2 POP POP JUMP JUMPDEST DUP3 DUP2 DUP4 MCOPY PUSH0 DUP4 DUP4 ADD MSTORE POP POP POP JUMP JUMPDEST PUSH0 PUSH1 0x1F NOT PUSH1 0x1F DUP4 ADD AND SWAP1 POP SWAP2 SWAP1 POP JUMP JUMPDEST PUSH0 PUSH2 0x1068 DUP3 PUSH2 0x1026 JUMP JUMPDEST PUSH2 0x1072 DUP2 DUP6 PUSH2 0x1030 JUMP JUMPDEST SWAP4 POP PUSH2 0x1082 DUP2 DUP6 PUSH1 0x20 DUP7 ADD PUSH2 0x1040 JUMP JUMPDEST PUSH2 0x108B DUP2 PUSH2 0x104E JUMP JUMPDEST DUP5 ADD SWAP2 POP POP SWAP3 SWAP2 POP POP JUMP JUMPDEST PUSH0 PUSH1 0x20 DUP3 ADD SWAP1 POP DUP2 DUP2 SUB PUSH0 DUP4 ADD MSTORE PUSH2 0x10AE DUP2 DUP5 PUSH2 0x105E JUMP JUMPDEST SWAP1 POP SWAP3 SWAP2 POP POP JUMP JUMPDEST PUSH0 PUSH2 0x10C0 DUP3 PUSH2 0xF8E JUMP JUMPDEST SWAP1 POP SWAP2 SWAP1 POP JUMP JUMPDEST PUSH2 0x10D0 DUP2 PUSH2 0x10B6 JUMP JUMPDEST DUP2 EQ PUSH2 0x10DA JUMPI PUSH0 PUSH0 REVERT JUMPDEST POP JUMP JUMPDEST PUSH0 DUP2 CALLDATALOAD SWAP1 POP PUSH2 0x10EB DUP2 PUSH2 0x10C7 JUMP JUMPDEST SWAP3 SWAP2 POP POP JUMP JUMPDEST PUSH0 PUSH0 PUSH1 0x40 DUP4 DUP6 SUB SLT ISZERO PUSH2 0x1107 JUMPI PUSH2 0x1106 PUSH2 0xF57 JUMP JUMPDEST JUMPDEST PUSH0 PUSH2 0x1114 DUP6 DUP3 DUP7 ADD PUSH2 0x10DD JUMP JUMPDEST SWAP3 POP POP PUSH1 0x20 PUSH2 0x1125 DUP6 DUP3 DUP7 ADD PUSH2 0xF7A JUMP JUMPDEST SWAP2 POP POP SWAP3 POP SWAP3 SWAP1 POP JUMP JUMPDEST PUSH0 DUP2 ISZERO ISZERO SWAP1 POP SWAP2 SWAP1 POP JUMP JUMPDEST PUSH2 0x1143 DUP2 PUSH2 0x112F JUMP JUMPDEST DUP3 MSTORE POP POP JUMP JUMPDEST PUSH0 PUSH1 0x20 DUP3 ADD SWAP1 POP PUSH2 0x115C PUSH0 DUP4 ADD DUP5 PUSH2 0x113A JUMP JUMPDEST SWAP3 SWAP2 POP POP JUMP JUMPDEST PUSH2 0x116B DUP2 PUSH2 0xF5B JUMP JUMPDEST DUP3 MSTORE POP POP JUMP JUMPDEST PUSH0 PUSH1 0x20 DUP3 ADD SWAP1 POP PUSH2 0x1184 PUSH0 DUP4 ADD DUP5 PUSH2 0x1162 JUMP JUMPDEST SWAP3 SWAP2 POP POP JUMP JUMPDEST PUSH0 PUSH0 PUSH0 PUSH1 0x60 DUP5 DUP7 SUB SLT ISZERO PUSH2 0x11A1 JUMPI PUSH2 0x11A0 PUSH2 0xF57 JUMP JUMPDEST JUMPDEST PUSH0 PUSH2 0x11AE DUP7 DUP3 DUP8 ADD PUSH2 0x10DD JUMP JUMPDEST SWAP4 POP POP PUSH1 0x20 PUSH2 0x11BF DUP7 DUP3 DUP8 ADD PUSH2 0x10DD JUMP JUMPDEST SWAP3 POP POP PUSH1 0x40 PUSH2 0x11D0 DUP7 DUP3 DUP8 ADD PUSH2 0xF7A JUMP JUMPDEST SWAP2 POP POP SWAP3 POP SWAP3 POP SWAP3 JUMP JUMPDEST PUSH0 PUSH1 0xFF DUP3 AND SWAP1 POP SWAP2 SWAP1 POP JUMP JUMPDEST PUSH2 0x11EF DUP2 PUSH2 0x11DA JUMP JUMPDEST DUP3 MSTORE POP POP JUMP JUMPDEST PUSH0 PUSH1 0x20 DUP3 ADD SWAP1 POP PUSH2 0x1208 PUSH0 DUP4 ADD DUP5 PUSH2 0x11E6 JUMP JUMPDEST SWAP3 SWAP2 POP POP JUMP JUMPDEST PUSH0 PUSH1 0x20 DUP3 DUP5 SUB SLT ISZERO PUSH2 0x1223 JUMPI PUSH2 0x1222 PUSH2 0xF57 JUMP JUMPDEST JUMPDEST PUSH0 PUSH2 0x1230 DUP5 DUP3 DUP6 ADD PUSH2 0xF7A JUMP JUMPDEST SWAP2 POP POP SWAP3 SWAP2 POP POP JUMP JUMPDEST PUSH0 PUSH1 0x20 DUP3 DUP5 SUB SLT ISZERO PUSH2 0x124E JUMPI PUSH2 0x124D PUSH2 0xF57 JUMP JUMPDEST JUMPDEST PUSH0 PUSH2 0x125B DUP5 DUP3 DUP6 ADD PUSH2 0x10DD JUMP JUMPDEST SWAP2 POP POP SWAP3 SWAP2 POP POP JUMP JUMPDEST PUSH2 0x126D DUP2 PUSH2 0x10B6 JUMP JUMPDEST DUP3 MSTORE POP POP JUMP JUMPDEST PUSH0 PUSH1 0x20 DUP3 ADD SWAP1 POP PUSH2 0x1286 PUSH0 DUP4 ADD DUP5 PUSH2 0x1264 JUMP JUMPDEST SWAP3 SWAP2 POP POP JUMP JUMPDEST PUSH0 PUSH0 PUSH1 0x40 DUP4 DUP6 SUB SLT ISZERO PUSH2 0x12A2 JUMPI PUSH2 0x12A1 PUSH2 0xF57 JUMP JUMPDEST JUMPDEST PUSH0 PUSH2 0x12AF DUP6 DUP3 DUP7 ADD PUSH2 0x10DD JUMP JUMPDEST SWAP3 POP POP PUSH1 0x20 PUSH2 0x12C0 DUP6 DUP3 DUP7 ADD PUSH2 0x10DD JUMP JUMPDEST SWAP2 POP POP SWAP3 POP SWAP3 SWAP1 POP JUMP JUMPDEST PUSH32 0x4F6E6C79206F776E65722063616E2077697468647261772E0000000000000000 PUSH0 DUP3 ADD MSTORE POP JUMP JUMPDEST PUSH0 PUSH2 0x12FE PUSH1 0x18 DUP4 PUSH2 0x1030 JUMP JUMPDEST SWAP2 POP PUSH2 0x1309 DUP3 PUSH2 0x12CA JUMP JUMPDEST PUSH1 0x20 DUP3 ADD SWAP1 POP SWAP2 SWAP1 POP JUMP JUMPDEST PUSH0 PUSH1 0x20 DUP3 ADD SWAP1 POP DUP2 DUP2 SUB PUSH0 DUP4 ADD MSTORE PUSH2 0x132B DUP2 PUSH2 0x12F2 JUMP JUMPDEST SWAP1 POP SWAP2 SWAP1 POP JUMP JUMPDEST PUSH32 0x496E73756666696369656E742066756E64732E00000000000000000000000000 PUSH0 DUP3 ADD MSTORE POP JUMP JUMPDEST PUSH0 PUSH2 0x1366 PUSH1 0x13 DUP4 PUSH2 0x1030 JUMP JUMPDEST SWAP2 POP PUSH2 0x1371 DUP3 PUSH2 0x1332 JUMP JUMPDEST PUSH1 0x20 DUP3 ADD SWAP1 POP SWAP2 SWAP1 POP JUMP JUMPDEST PUSH0 PUSH1 0x20 DUP3 ADD SWAP1 POP DUP2 DUP2 SUB PUSH0 DUP4 ADD MSTORE PUSH2 0x1393 DUP2 PUSH2 0x135A JUMP JUMPDEST SWAP1 POP SWAP2 SWAP1 POP JUMP JUMPDEST PUSH32 0x4E487B7100000000000000000000000000000000000000000000000000000000 PUSH0 MSTORE PUSH1 0x11 PUSH1 0x4 MSTORE PUSH1 0x24 PUSH0 REVERT JUMPDEST PUSH0 PUSH2 0x13D1 DUP3 PUSH2 0xF5B JUMP JUMPDEST SWAP2 POP PUSH2 0x13DC DUP4 PUSH2 0xF5B JUMP JUMPDEST SWAP3 POP DUP3 DUP3 SUB SWAP1 POP DUP2 DUP2 GT ISZERO PUSH2 0x13F4 JUMPI PUSH2 0x13F3 PUSH2 0x139A JUMP JUMPDEST JUMPDEST SWAP3 SWAP2 POP POP JUMP JUMPDEST PUSH32 0x4E487B7100000000000000000000000000000000000000000000000000000000 PUSH0 MSTORE PUSH1 0x22 PUSH1 0x4 MSTORE PUSH1 0x24 PUSH0 REVERT JUMPDEST PUSH0 PUSH1 0x2 DUP3 DIV SWAP1 POP PUSH1 0x1 DUP3 AND DUP1 PUSH2 0x143E JUMPI PUSH1 0x7F DUP3 AND SWAP2 POP JUMPDEST PUSH1 0x20 DUP3 LT DUP2 SUB PUSH2 0x1451 JUMPI PUSH2 0x1450 PUSH2 0x13FA JUMP JUMPDEST JUMPDEST POP SWAP2 SWAP1 POP JUMP JUMPDEST PUSH0 PUSH1 0x60 DUP3 ADD SWAP1 POP PUSH2 0x146A PUSH0 DUP4 ADD DUP7 PUSH2 0x1264 JUMP JUMPDEST PUSH2 0x1477 PUSH1 0x20 DUP4 ADD DUP6 PUSH2 0x1162 JUMP JUMPDEST PUSH2 0x1484 PUSH1 0x40 DUP4 ADD DUP5 PUSH2 0x1162 JUMP JUMPDEST SWAP5 SWAP4 POP POP POP POP JUMP JUMPDEST PUSH0 PUSH2 0x1496 DUP3 PUSH2 0xF5B JUMP JUMPDEST SWAP2 POP PUSH2 0x14A1 DUP4 PUSH2 0xF5B JUMP JUMPDEST SWAP3 POP DUP3 DUP3 ADD SWAP1 POP DUP1 DUP3 GT ISZERO PUSH2 0x14B9 JUMPI PUSH2 0x14B8 PUSH2 0x139A JUMP JUMPDEST JUMPDEST SWAP3 SWAP2 POP POP JUMP INVALID LOG2 PUSH5 0x6970667358 0x22 SLT KECCAK256 BLOBBASEFEE 0xE2 0xB8 CALLCODE DELEGATECALL ADDMOD 0x2F 0xD9 0xC3 LOG4 0xC9 SWAP14 STATICCALL 0xC4 EXTCODESIZE NUMBER 0xDB PUSH8 0x6A32E4F46C3A481C RETURNDATACOPY 0xD5 EXTCODECOPY SWAP12 0x1F 0xA8 PUSH5 0x736F6C6343 STOP ADDMOD SHR STOP CALLER "
				},
				"gasEstimates": {
					"creation": {
						"codeDepositCost": "1073000",
						"executionCost": "infinite",
						"totalCost": "infinite"
					},
					"external": {
						"allowance(address,address)": "infinite",
						"approve(address,uint256)": "infinite",
						"balance()": "2469",
						"balanceOf(address)": "2851",
						"burn(uint256)": "infinite",
						"decimals()": "383",
						"mint(address,uint256)": "infinite",
						"name()": "infinite",
						"owner()": "2582",
						"renounceOwnership()": "infinite",
						"symbol()": "infinite",
						"totalSupply()": "2522",
						"transfer(address,uint256)": "infinite",
						"transferFrom(address,address,uint256)": "infinite",
						"transferOwnership(address)": "infinite",
						"withdraw(uint256,address)": "infinite"
					}
				},
				"methodIdentifiers": {
					"allowance(address,address)": "dd62ed3e",
					"approve(address,uint256)": "095ea7b3",
					"balance()": "b69ef8a8",
					"balanceOf(address)": "70a08231",
					"burn(uint256)": "42966c68",
					"decimals()": "313ce567",
					"mint(address,uint256)": "40c10f19",
					"name()": "06fdde03",
					"owner()": "8da5cb5b",
					"renounceOwnership()": "715018a6",
					"symbol()": "95d89b41",
					"totalSupply()": "18160ddd",
					"transfer(address,uint256)": "a9059cbb",
					"transferFrom(address,address,uint256)": "23b872dd",
					"transferOwnership(address)": "f2fde38b",
					"withdraw(uint256,address)": "00f714ce"
				}
			},
			"storageLayout": {
				"storage": [
					{
						"astId": 279,
						"contract": "contracts/FCODE_flattened.sol:FCODE",
						"label": "_balances",
						"offset": 0,
						"slot": "0",
						"type": "t_mapping(t_address,t_uint256)"
					},
					{
						"astId": 285,
						"contract": "contracts/FCODE_flattened.sol:FCODE",
						"label": "_allowances",
						"offset": 0,
						"slot": "1",
						"type": "t_mapping(t_address,t_mapping(t_address,t_uint256))"
					},
					{
						"astId": 287,
						"contract": "contracts/FCODE_flattened.sol:FCODE",
						"label": "_totalSupply",
						"offset": 0,
						"slot": "2",
						"type": "t_uint256"
					},
					{
						"astId": 289,
						"contract": "contracts/FCODE_flattened.sol:FCODE",
						"label": "_name",
						"offset": 0,
						"slot": "3",
						"type": "t_string_storage"
					},
					{
						"astId": 291,
						"contract": "contracts/FCODE_flattened.sol:FCODE",
						"label": "_symbol",
						"offset": 0,
						"slot": "4",
						"type": "t_string_storage"
					},
					{
						"astId": 777,
						"contract": "contracts/FCODE_flattened.sol:FCODE",
						"label": "_owner",
						"offset": 0,
						"slot": "5",
						"type": "t_address"
					},
					{
						"astId": 923,
						"contract": "contracts/FCODE_flattened.sol:FCODE",
						"label": "balance",
						"offset": 0,
						"slot": "6",
						"type": "t_uint256"
					}
				],
				"types": {
					"t_address": {
						"encoding": "inplace",
						"label": "address",
						"numberOfBytes": "20"
					},
					"t_mapping(t_address,t_mapping(t_address,t_uint256))": {
						"encoding": "mapping",
						"key": "t_address",
						"label": "mapping(address => mapping(address => uint256))",
						"numberOfBytes": "32",
						"value": "t_mapping(t_address,t_uint256)"
					},
					"t_mapping(t_address,t_uint256)": {
						"encoding": "mapping",
						"key": "t_address",
						"label": "mapping(address => uint256)",
						"numberOfBytes": "32",
						"value": "t_uint256"
					},
					"t_string_storage": {
						"encoding": "bytes",
						"label": "string",
						"numberOfBytes": "32"
					},
					"t_uint256": {
						"encoding": "inplace",
						"label": "uint256",
						"numberOfBytes": "32"
					}
				}
			},
			"userdoc": {
				"kind": "user",
				"methods": {},
				"version": 1
			}
		}
	}
}